:10020000DEC3000006C4000004C4000002C40000F5
:1002100000C40000FEC30000FCC30000FAC30000DD
:10022000F8C30000F6C30000F4C30000F2C30000EE
:10023000F0C30000EEC30000ECC30000EAC30000FE
:10024000E8C30000E6C30000E4C30000E2C300000E
:10025000E0C300000C9417140C9412140C941C149A
:10026000D8C30000D6C30000D4C30000D2C300002E
:10027000D0C30000CEC300000C9462150C9485140A
:10028000C8C30000C6C30000C4C30000C2C300004E
:10029000C0C30000BEC30000BCC30000BAC300005E
:1002A000B8C30000B6C30000B4C30000B2C300006E
:1002B0000C94AD14AEC30000ACC30000AAC3000090
:1002C000A8C30000A6C30000A4C30000A2C300008E
:1002D000A0C300009EC300009CC300009AC300009E
:1002E00098C3000096C3000094C3000092C30000AE
:1002F00090C3000020445249465432200020464119
:1003000044453220200020444F5453322020002006
:1003100020574156452020002020464144452020BA
:10032000002020444F5453202000205241494E4287
:100330004F57002050554C534520200020434F4D2F
:1003400045545320004452494654494E47002053D7
:100350004F4C4944202000204457454C4C2000205D
:100360004449524543540044454E53495459002092
:100370004C454E47544800204E554D4245520020B2
:1003800053504545442000535441544943200050A4
:100390005552504C45200050554D504B494E004A47
:1003A000554E474C452000202046495245200053D9
:1003B000455854494D45004C495A41524420005338
:1003C000554E53455420002020434F4F4C200020D1
:1003D000205741524D20005241494E424F57002074
:1003E000202020202020004D415820424C55004D17
:1003F000494E20424C55004D41582047524E004D29
:10040000494E2047524E004D415820524544004D20
:10041000494E20524544002020424C5545200020A2
:10042000475245454E2000202052454420200000E0
:100430000000000000000005000000000000000AAD
:100440000A0500000000000505000000000000058E
:100450000A000000000000050A000000000000057E
:10046000000000000000000514020000000000056C
:100470000A000000000000050A020000000000055C
:100480000A020000000000FFFFFF00000000000063
:100490001F001F001F0000001F001F001F000000A2
:1004A0001F001F001F0000000000000000000000EF
:1004B0001F001F001F0000FFFFFFFFFFFF000000E5
:1004C000000000000000000000000000000000002C
:1004D00000000000000000000000000000000045D7
:1004E00052524F523A20726174696F206F757420B6
:1004F0006F662072616E67650000010203040608E2
:100500000B0E12161B21272E363F49545F6A758049
:100510008B97A3B0BDCCDCEDFF4552524F523A2031
:10052000726174696F206F7574206F662072616EDE
:10053000676500FF000000FF000000FF00000000F2
:100540000000000000000000000000FF6020FF64C9
:1005500000F08028FF2000000000000000000000E4
:10056000000000FF00400040FF00D2A0A000A0005B
:100570000000000000000000000000FF5014FF64B5
:1005800000C41040A00040FF200000000000000058
:1005900000000000FF0000801000200040A00000CC
:1005A0000000000000000000000000FF0010C40078
:1005B00040FF1064FF004000000000000000000049
:1005C000000000FF4000C42000DC4000FF100000DD
:1005D000000000000000000000000000FF0020FFFD
:1005E0000000FF2020FF20000000000000000000AD
:1005F000000000FF4000C42000DC400020FF00009D
:100600000000000000000000000000C00060C40006
:1006100040FF1064FF0040000000000000000000E8
:10062000000000A0A08CE4E4C880806E3C3C320056
:1006300000000000000000000000001F1F1F00005D
:100640000000001F1F1F1F1F1F00001F1F1F1F1F55
:100650001F00001F1F1F1F1F1F00000000000000C1
:100660000000001F1F1F1F1F1F00001F1F1F1F1F35
:100670001F00000A000000000000000A0000000047
:100680000000000A000000000000000A0000000056
:1006900000000000FF0100010000FFFF000001005A
:1006A00001FF004E6F7468696E6720776F726B731D
:1006B0002100576F61682049276D206F6E206120EF
:1006C000444221004D6F6465205361766564006388
:1006D0006C6561726564005361766564206D6F645A
:1006E000650041444A555354204C49474854494EAB
:1006F00047005455524E204D59204B4E4F425320E7
:100700003B2900555345204B4E4F425326425554EA
:10071000544F4E00504C41592057495448204D45A4
:1007200000796F7520416C6963652120005A757AE4
:100730007520616E642049206D6973730031322F1A
:1007400031392F323120766572732E004C45444387
:1007500054524C41202D2056322E31004657440031
:10076000524556004E0345033C0333032A0321033D
:1007700018030F030603FD02F402202020200002CC
:1007800000050005020501FF020502050000030047
:1007900002000300022020202000DF0300000000F0
:1007A000000000000000000000007F03770300004D
:1007B000000000000000000000007F0377036F03CB
:1007C000000000000000000000007F03670300003D
:1007D000000000000000000000007F036F035F03C3
:1007E000000000000000000000007F0367035F03BB
:1007F000000000000000000000007F030000000077
:10080000000000000000000000007F036F0357039A
:100810005F0300000000000000007F0367035F0328
:10082000000000000000000000007F036F0357037A
:100830005F0300000000000000007F036F03570308
:1008400000000000000000000000D703CF03C70332
:10085000BF03B703AF03A7039F0397038F03870368
:1008600027041F041704000000000000000000001F
:100870000F040704FF03F703EF03E7030000000082
:100880000F040704FF03F703EF03E7030000000072
:100890000F040704FF03F703EF03E7030000000062
:1008A000DF03000000000000000000000000000066
:1008B0000F040704FF03F703EF03E7030000000042
:1008C0000F04FF03EF030704F703E7030000000032
:1008D000DF03000000000000000000000000000036
:1008E000DF03000000000000000000000000000026
:1008F000DF03000000000000000000000000000016
:10090000DF03000000000000000000000000000005
:10091000000102030405060708090A0C0E10121450
:1009200016181A1C1F2225282B2E3134373B3F4323
:10093000474B4F53575C61666B70757A7F858B911F
:10094000979DA3A9AFB6BDC4CBD2D9E0E7EFF7FF1F
:10095000030404050404040404040400000000006B
:100960000000000A000000000000000A0A0A00005F
:100970000000000A140000000000000A0A01000044
:100980000000000A0C0100000000000A0000000046
:100990000000000A281401000000000A0C010000F9
:1009A0000000000A141401000000000A14140000E2
:1009B0000000000000020104060300037216112467
:1009C0001FBECFEFCDBFDFE7DEBF11E4A0E0B0E494
:1009D000E8E7F8E400E00BBF02C007900D92A633F1
:1009E000B107D9F72EE5A6E3B1E401C01D92AF38F7
:1009F000B207E1F714E0CFEDD4E004C02197FE0187
:100A00000E942D24CE3DD107C9F70E94F3160C9405
:100A10003A24F6CBDC01ED91FC910190F081E02DC0
:100A20000994EF92FF920F931F93CF93DF938C0162
:100A30007B01D0E0C0E0F701EC0FFD1F649166235D
:100A400061F0D801ED91FC910190F081E02DC80199
:100A50000995892B11F02196EECFCE01DF91CF9130
:100A60001F910F91FF90EF900895AF92BF92CF9298
:100A7000DF92EF92FF920F931F93CF93DF936C015E
:100A80007B018B01040F151FEB015E01AE18BF083F
:100A9000C017D10759F06991D601ED91FC910190F1
:100AA000F081E02DC6010995892B79F7C501DF9109
:100AB000CF911F910F91FF90EF90DF90CF90BF905B
:100AC000AF900895FC0155894689252F30E0842F89
:100AD00090E0821B930B541710F0CF960895019766
:100AE0000895FC0193898489981761F0A489AE0F59
:100AF000BF2FB11D57968C9194899F5F9F73948BE4
:100B000090E008958FEF9FEF0895FC019389848909
:100B1000981731F08489E80FF11D878990E00895D6
:100B20008FEF9FEF0895FC0193892489892F90E02E
:100B3000805C9F4F821B91098F7399270895CF93F3
:100B4000DF93EC01E881F9810680F781E02D0995BA
:100B5000EC85FD85868116828581158280E48483FB
:100B60008C898B8B1A8ADF91CF9108958F929F92F7
:100B7000AF92BF92FF920F931F93CF93DF938C019D
:100B80004A015B01D22FC32FDC0152968C91529700
:100B900080FF07C0ED91FC910288F389E02DC80128
:100BA0000995D11101C0D3E0FD2EE894F2F8DC2FB5
:100BB000D095D07CB1E68B16B3EE9B06B6E1AB06C2
:100BC000B10428F0D260B694A7949794879460E01B
:100BD00078ED88EB95E0A50194010E94BF21C90141
:100BE0002034310510F480E490E03C2F3B72D7FDB7
:100BF00030684D2F487C30FD41605FB7F894D801D4
:100C00001C96ED91FC911682F7828087918735FFC3
:100C10008FC04F7781E084878FEF85873F7D358355
:100C2000D683F8012189C08986859785FC0133E048
:100C3000239FE00DF11D1124659174912C1708F08C
:100C400059C0272F46FF76C0793288F430E0F90189
:100C5000E858FF4BA081AF3F51F02F553F4BF901B2
:100C6000308120E2329FF0011124FC5FA18347FF15
:100C70002AC021E0270F293230F530E0F901E85889
:100C8000FF4BD081DF3FF9F0F901EF55FF4BA08119
:100C9000F0E2AF9FD0011124BC5F2B5C3F4BF90108
:100CA0001081F0E0E0E0183030F49D01205F3F4F0C
:100CB000F901E10FF11D3FB7F8941296DC93208102
:100CC000286020833FBF40FF15C023E0270F293253
:100CD00088F430E0F901E858FF4B40814F3F51F074
:100CE0002F553F4BD901EC91B0E2EB9FF00111245D
:100CF000FC5F4183FC0123E0C29FE00DF11D112444
:100D0000319625913491F901FF27EE51FA4F9081E8
:100D1000832F80958923682B60835FBFDF91CF91FC
:100D20001F910F91FF90BF90AF909F908F9008956B
:100D3000148674CF342F307509F499CF793208F0C6
:100D400096CF30E0F901E858FF4BD081DF3F09F43E
:100D50008ECFF901EF55FF4BA081E0E2AE9FD001AD
:100D60001124BC5F2B5C3F4BF9011081F0E0E0E007
:100D7000183030F49D01205F3F4FF901E10FF11D64
:100D80003FB7F8941296DC932081286020833FBF00
:100D90006ECFFC010FB607FE04C0809111018823BD
:100DA000A9F0A485B58514968C91149785FF0EC083
:100DB00095898689981739F015968C9115978F7DAE
:100DC00015968C930895E8940C94271408950F9326
:100DD0001F93CF93DF93EC018A89982F91609A8BB0
:100DE0002D899E8929130AC0EC85FD85948195FF84
:100DF00005C081FD0DC080E4848312C0062F1D89CB
:100E00001F5F1F738E89811315C0CE01C2DFFACF19
:100E100085818F77806490E49483EC85FD8585835C
:100E2000EC85FD85628381E090E0DF91CF911F9199
:100E30000F910895ED89EC0FFD2FF11DE95AFF4F39
:100E400000831D8BEC85FD858A8981FF09C0858122
:100E50008F77806690E49483EC85FD858583E3CF6E
:100E600085818062FBCFCF93DF93EC018A8980FF7D
:100E70000BC0EC85FD85858185FD03C0848186FDE1
:100E800003C0CE0186DFF5CFDF91CF91089581E0D9
:100E900008959FB7F894E0912A0BF0912B0B809165
:100EA000260B209168413091694140916A415091EF
:100EB0006B419FBF80FF08C0EC3E8CE2F80720F436
:100EC0002F5F3F4F4F4F5F4F0F01169407941694BB
:100ED00007941694079416940794F00116940794B7
:100EE000E00DF11D16940794102C16940118169419
:100EF000010C169401181694010C169401181694FE
:100F00001694010C1124E019F109A8EEB3E00E9437
:100F1000AF216E0F7F1F811D911D08958F929F92AB
:100F2000AF92BF92CF92DF92EF92FF924B015C01A2
:100F3000B0DF6B017C01ADDF6C197D098E099F0963
:100F4000683E734081059105B0F321E0821A910853
:100F5000A108B10888EEC80E83E0D81EE11CF11C80
:100F600081149104A104B10431F7FF90EF90DF9058
:100F7000CF90BF90AF909F908F9008952FB7F89427
:100F8000609168417091694180916A4190916B4193
:100F90002FBF08958F929F92AF92BF92EF92FF92D0
:100FA0001F93CF93DF93EC01162FE881F98104841E
:100FB000F585E02D462F70E060E009957C01115029
:100FC0001230D0F419861A8688889988AA88BB8836
:100FD00060DF688F798F8A8F9B8F8C8E9D8EAE8E0F
:100FE000BF8EC701DF91CF911F91FF90EF90BF900F
:100FF000AF909F908F9008958C889D88AE88BF8811
:10100000E7CF61E086E69EE5C5CFDC0118968C91BE
:101010001897481710F04FEF480F1B969C911B979D
:10102000992389F017969C911797691730F0691BDF
:101030004F5F4817D0F340E0F8CF19966C9319979B
:101040001A964C931A97FD01E40FF11D8485680FE1
:101050006068CD019FCF8F929F92AF92BF92EF9227
:10106000FF920F931F93CF93DF93EC01462FE881FC
:10107000F9810484F585E02D61E070E009957C013B
:101080008C889D88AE88BF8804DF688F798F8A8FAF
:101090009B8F8C8E9D8EAE8EBF8E01E010E0EF2870
:1010A00011F010E000E08B85882391F089858F5F37
:1010B00089879F81891760F019868A858F5F8A8763
:1010C0009885891708F01A864A8560E0CE019DDF71
:1010D000C801DF91CF911F910F91FF90EF90BF90CA
:1010E000AF909F908F9008958DEF9FEF08958DEFB3
:1010F0009FEF089590E080E008958091074084304C
:1011000019F08091974F089580E0089580910740ED
:10111000843041F48091A04F26E0829FC0011124C9
:1011200009960895883039F08091A04F23E0829F7E
:10113000C001112408958FEF90E008958091074039
:10114000843051F0883041F08091A14F24E0829F9B
:10115000C00111240296089582E090E008952F9234
:101160003F924F925F926F927F928F929F92AF9237
:10117000BF92CF92DF92EF92FF920F931F93CF9384
:10118000DF931C013B012A0148015901D7DF6C01A3
:10119000BDDF7C01B2DF182F80910740843009F059
:1011A0005DC082E090E08156904BEC0188818823FD
:1011B00009F457C080E090E0DC01C12FD0E0C05BB3
:1011C000D64FFE014491EC0CFD1CBC01CD01680D15
:1011D000791D8A1D9B1D4E9D90014F9D300D112440
:1011E00050E040E00E94BF21970150E040E00E94A3
:1011F000BF21E22EF12CF8E11F9F50011124F501CF
:1012000003E0209FE00DF11D1124DF01AC5CBA4F1B
:10121000AF014B5C5A4F6C157D0540F5ED5CFA4F04
:10122000E491E101E883FD01A491E301A883FA01BF
:101230004491E2014883DF91CF911F910F91FF907C
:10124000EF90DF90CF90BF90AF909F908F907F9066
:101250006F905F904F903F902F90089583E090E0C3
:10126000A2CF80EB94E0A0E0B0E0A7CFE8E0F7E009
:101270008F010C191D096801FE01C491FFEFEF1ADF
:10128000FF0A2F5FCE151F0409F00CF420E08B013C
:101290000D571E4B48018C0C9D1CF401C081C501EB
:1012A000F3E02F9F800D911D1124FC01EC5CFA4F9F
:1012B000D491FD01A4912FEF30E02C1B3109A29FA6
:1012C000B001A39F700D1124DC9F600D711D1124CE
:1012D000F30170838B5C9A4FFC018491FA01449175
:1012E000429FB001439F700D1124C89F600D711D76
:1012F0001124E20178839FCF222381F0E3E4F0E51B
:1013000020E53EE5938191932E173F07D9F780930F
:10131000505E6093515E4093525E0895E0E5FEE5B5
:101320009291938390E5E334F907D1F7809343508A
:1013300060934450409345500895E0917541209149
:10134000074098E0299F90011124E20FF32FF11D2F
:10135000E55CF94FE491EF3141F4803208F08FE120
:10136000E82FF0E0E750FB4F849108953FB72091BC
:101370000210422F427021FDFACFF8942DE924BFCC
:101380004093001043E124BF40930010DC01ED9135
:10139000FC91F170FC5E60833FBF0895DC01ED912C
:1013A000FC910088F189E02D23E030E00994089554
:1013B000282F30E08932A8F4F901E858FF4B8081EA
:1013C0008F3F79F02F553F4BD901EC91B0E2EB9F65
:1013D000F0011124FC5F9085982381E019F480E0EE
:1013E00008958FEF08950F931F93CF93DF93893262
:1013F00008F07CC090E0DC01A858BF4B2C912F3F37
:1014000009F474C08C010F551F4BE801E881D0E24C
:10141000ED9FF0011124FC5F611133C02683308100
:101420002323AC014B5C5F4B211111C0EA012881E1
:10143000309749F1283038F57096E20FF11D3FB72B
:10144000F8942081611122C0277F20833FBFFA01D9
:1014500030813F3F09F44AC0E8012881363058F511
:101460003091E605432F4770241312C0EC91E5300C
:1014700008F0EE0F8091010AE095E823E093010A5D
:1014800035C02583CCCFF0E0E0E0D9CF2860DDCFB8
:10149000387169F4213079F4EC91E53008F0EE0F01
:1014A0008091410AE095E823E093410A1FC038315A
:1014B00011F4263089F3845F9F4BFC01808185FF06
:1014C00013C030E1839FF0011124F75F9181977081
:1014D000973061F4EC91853270F4803298F4883062
:1014E000E1F2803121F202C08111F4CFDF91CF917E
:1014F0001F910F910895803471F08038B9F71092E0
:10150000A006F4CF90E1899FF0011124F75F81815B
:101510008F7E8183EBCF8091920B8E2339F3C0E2D3
:101520002C9F900111243C5FE83030F5205F3F4F45
:10153000E20FF32FF11D4FB7F8949091800B9E7F2F
:101540009093800B90918E0B90FFFCCF2091920B8B
:1015500090E08095909530E08223932328ED24BF7E
:101560008093920B8091800B81608093800B8081AF
:101570008F7780834FBFBACFF0E0E0E0DCCF0F93EE
:101580001F93CF938C01C62FFC0183A161E0C0FFA4
:1015900060E029DFF80184A161E0C1FF60E023DFA2
:1015A000F80185A161E0C2FF60E01DDFF80186A1BE
:1015B00061E0C3FF60E0CF911F910F9114CF4F9274
:1015C0005F926F927F928F929F92AF92BF92EF92B3
:1015D000FF921F93CF93DF93EC017B01142F88A11F
:1015E00061E091E0E916F10409F060E0FCDE612FB2
:1015F00070E084E0759567958A95E1F7CE01BFDFCD
:101600008C8C9D8CAE8CBF8C488C598C6A8C7B8C5E
:1016100040DC6419750986099709681579058A05FA
:101620009B05B0F361E08AA1DEDE88E08A95F1F7E0
:1016300060E08AA1D8DE92E0E916F10469F0612F3A
:101640006F70CE019CDF61E08AA1CDDE88E08A95D3
:10165000F1F760E08AA1C7DE90E080E0DF91CF91F2
:101660001F91FF90EF90BF90AF909F908F907F90D1
:101670006F905F904F900895CF92DF92EF92FF921C
:101680000F931F93CF93DF93482F62E070E086E6BD
:101690009EE595DF8C01C6E6DEE5CC88DD88EE8828
:1016A000FF88F7DB688F798F8A8F9B8FCC8EDD8EDA
:1016B000EE8EFF8EC801DF91CF911F910F91FF90A9
:1016C000EF90DF90CF9008958F929F92AF92BF924C
:1016D000CF92DF92EF92FF920F931F93CF93DF93FE
:1016E000DC0191962C912F3F09F45EC18B01EC0136
:1016F000CC8CDD8CEE8CFF8C888C998CAA8CBB8C6E
:10170000C8DB681979098A099B096C157D058E0566
:101710009F05B0F38BA1893228F590E0FC01E858D1
:10172000FF4B20812F3FF1F0FC01EF55FF4BA081D3
:10173000E0E2AE9FD0011124BC5F8B5C9F4BFC01AB
:101740003081F0E0E0E0383028F4CD014096FC0133
:10175000E30FF11D9FB7F89412962C938081877F39
:1017600080839FBF8CA1893228F590E0FC01E85866
:10177000FF4B20812F3FF1F0FC01EF55FF4BA08183
:10178000F0E2AF9FD0011124BC5F8B5C9F4BFC014A
:101790003081F0E0E0E0383028F4CD014096FC01E3
:1017A000E30FF11D9FB7F89412962C938081877FE9
:1017B00080839FBF8DA1893228F590E0FC01E85815
:1017C000FF4B20812F3FF1F0FC01EF55FF4BA08133
:1017D000F0E2AF9FD0011124BC5F8B5C9F4BFC01FA
:1017E0003081F0E0E0E0383028F4CD014096FC0193
:1017F000E30FF11D9FB7F89412962C938081877F99
:1018000080839FBF8EA1893228F590E0FC01E858C3
:10181000FF4B20812F3FF1F0FC01EF55FF4BA081E2
:10182000F0E2AF9FD0011124BC5F8B5C9F4BFC01A9
:101830003081F0E0E0E0383028F4CD014096FC0142
:10184000E30FF11D9FB7F89412962C938081877F48
:1018500080839FBF88A161E00130110509F060E03D
:10186000C2DD61E089A1BFDD61E08AA1BCDDF8E0F5
:10187000FA95F1F78BA19CDD10E0813009F410E1BD
:101880008CA196DD813009F410628DA191DD81304B
:1018900009F410648EA18CDD813009F4106860E0D9
:1018A0008AA1A1DD38E03A95F1F761E08AA19BDDDC
:1018B00088E08A95F1F78BA17BDD813009F4116016
:1018C0008CA176DD813009F412608DA171DD81304B
:1018D00009F414608EA16CDD813009F4186060E0B9
:1018E0008AA181DD8BA1893288F490E0FC01E8585F
:1018F000FF4B20812F3F51F08F559F4BDC01EC9126
:10190000B0E2EB9FF0011124FC5F21838CA18932AE
:1019100088F490E0FC01E858FF4B20812F3F51F004
:101920008F559F4BDC01EC91B0E2EB9FF00111244D
:10193000FC5F21838DA1893288F490E0FC01E85896
:10194000FF4B20812F3F51F08F559F4BDC01EC91D5
:10195000B0E2EB9FF0011124FC5F21838EA189325C
:1019600088F490E0FC01E858FF4B20812F3F51F0B4
:101970008F559F4BDC01EC91B0E2EB9FF0011124FD
:10198000FC5F218360E089A12EDD812F90E0DF9153
:10199000CF911F910F91FF90EF90DF90CF90BF906C
:1019A000AF909F908F9008958DEF9FEFF0CFCF92E3
:1019B000DF92EF92FF920F931F93CF93DF938C01EF
:1019C000DC0190968C91893288F490E0FC01E85813
:1019D000FF4B20812F3F51F08F559F4BDC01EC9145
:1019E000B0E2EB9FF0011124FC5F2183F80181A19B
:1019F0008F3FB1F0893290F4282F30E0F901E85898
:101A0000FF4B90819F3F51F02F553F4BD901EC91F7
:101A1000B0E2EB9FF0011124FC5F918360E0E3DC16
:101A2000F80182A1893290F4282F30E0F901E858BA
:101A3000FF4B90819F3F51F02F553F4BD901EC91C7
:101A4000B0E2EB9FF0011124FC5F918360E0CBDCFE
:101A5000F80183A1893288F490E0FC01E858FF4B3B
:101A600020812F3F51F08F559F4BDC01EC91B0E26C
:101A7000EB9FF0011124FC5F2183F80184A18932DE
:101A800088F490E0FC01E858FF4B20812F3F51F093
:101A90008F559F4BDC01EC91B0E2EB9FF0011124DC
:101AA000FC5F2183F80185A1893288F490E0FC0174
:101AB000E858FF4B20812F3F51F08F559F4BDC01A1
:101AC000EC91B0E2EB9FF0011124FC5F2183F8015F
:101AD00086A1893288F490E0FC01E858FF4B208110
:101AE0002F3F51F08F559F4BDC01EC91B0E2EB9F03
:101AF000F0011124FC5F2183F801C7A1CF3F09F455
:101B00008AC080A5813009F071C0EC2EF12C60E014
:101B10008C2F69DCC93208F08FC0C70188589F4BF1
:101B20006C01DC018C918F3FF1F0F701EF55FF4B19
:101B3000A081E0E2AE9FD0011124BC5FF701EB5C15
:101B4000FF4BE081E83008F071C09D01205F3F4FFE
:101B5000E20FF32FF11D9FB7F89412968C938081BA
:101B6000877F80839FBFF60180818F3F51F0F7010F
:101B7000EF55FF4BE08120E2E29FF0011124FC5F72
:101B8000818361E08C2F2FDC88E28A95F1F78C2F1E
:101B90000FDCD82F60E08C2F26DCC93208F5D60187
:101BA0008C918F3FE9F0F701EF55FF4BA081E0E208
:101BB000AE9FD0011124BC5FF701EB5CFF4BE081CD
:101BC000E830B8F59D01205F3F4FE20FF32FF11D84
:101BD0009FB7F89412968C938081877F80839FBFF4
:101BE000D13021F08EEFD80198968C93F80187A11F
:101BF000893288F490E0FC01E858FF4B20812F3FA8
:101C000051F08F559F4BDC01EC91B0E2EB9FF0015E
:101C10001124FC5F218390E080E0DF91CF911F9140
:101C20000F91FF90EF90DF90CF900895F0E0E0E00B
:101C300092CFF0E0E0E0CCCF61E08C2FD4DBF8E293
:101C4000FA95F1F78C2FB4DBD82F60E08C2FCBDB2B
:101C5000C7CFCF93DF93893208F042C0482F50E0BE
:101C6000FA01E858FF4B90819F3FD1F1FA01EF55FF
:101C7000FF4B308120E2329FD0011124BC5F1196CE
:101C80009C931197FA01E45FFF4BE081E03809F47F
:101C9000D6C06115710521F460E0DF91CF91A3CB2F
:101CA0006F3F710511F461E0F8CF903408F0CBC0BC
:101CB0002091E605F22FF770F3131AC0E0E095309B
:101CC00010F0990FE1E0892F847469F0EC5FF0E087
:101CD000E85DF54F60838091010A982B9093010A8B
:101CE000DF91CF910895892F827289F3EE5FEFCF54
:101CF00028713630A9F42831B9F4E0E0953010F0BD
:101D0000990FE1E0892F8474D9F0EC5FF0E0E85995
:101D1000F54F60838091410A982B9093410AE0CF60
:101D2000313011F4222349F3E03439F170F490EEAC
:101D30009E0F953090F0603871050CF0B4CFACCFA9
:101D4000892F827219F3EE5FE1CFE038A1F760933B
:101D5000A30681E48093A006C3CF90E1E99FF00140
:101D60001124F75F91819770973029F784858487D4
:101D70006587818180618183B3CF6115710519F019
:101D80006F3F710511F080E003C081E070E060E01A
:101D90002FEF30E0261B370B6091AE0B6091AF0B3D
:101DA000662321F06330B8F5220F331F1097C1F17D
:101DB0004B5C5F4BEA01E881E83090F55096EA0F02
:101DC000FB2FF11D4FB7F89421503109592F5A7A42
:101DD00051F12093AC0B3093AD0B2091920B292342
:101DE00039F53091800B232F2E7F2093800B20918B
:101DF0008E0B20FFFCCF2091920B922B28ED24BF5D
:101E00009093920B3093800B811116C080818F7755
:101E100080834FBF65CF220F331F220F331FC6CFE2
:101E2000F0E0E0E0CFCF2093A80B3093A90BD5CF03
:101E300091E09093840BE8CF80818068E9CF903463
:101E400008F436CF84CFE03208F475CFE53208F4D9
:101E500084CFE03409F497CF6ECFCF93DF93FC01AA
:101E600087A18F3F09F465C090A59E3F09F042C04D
:101E7000282F30E0662359F1893218F5F901E85826
:101E8000FF4B80818F3FE9F0F901EF55FF4BA081B7
:101E900040E2A49FD0011124BC5F2B5C3F4BE901C1
:101EA000E881E83088F49D01205F3F4FE20FF32F77
:101EB000F11D9FB7F89412968C938081877F808361
:101EC0009FBF90E080E037C0F0E0E0E0F2CF8932E1
:101ED000C0F7F901E858FF4B80818F3F91F32F55F0
:101EE0003F4BD901EC91B0E2EB9FF0011124FC5F74
:101EF0008183E7CF2AED280F223020F02CEF280F26
:101F0000203160F470E0913011F4A3DEDACF2FEFCE
:101F100030E0E901C61BD70BBE01F7CF662329F0DD
:101F2000913029F461E05FDACCCF9923D9F360E0F6
:101F3000FACF8DEF9FEFDF91CF9108958F929F920F
:101F4000AF92BF92CF92DF92EF92FF924B015C0172
:101F500082169306A406B5069CF469017A01C81896
:101F6000D908EA08FB0841F00E943E21A70196012A
:101F70000E9493216B017C018C0C9D1CAE1CBF1C2C
:101F8000C501B401FF90EF90DF90CF90BF90AF906C
:101F90009F908F900895CF92DF92EF92FF920F93D0
:101FA0001F93CF93DF93A9D8E82FF0E0E05BF64FC3
:101FB000C491C4D88C01AAD8800F911FC89F60011A
:101FC000C99FD00C112410E000E0D0E0C0E00D2C3F
:101FD000000CEE08FF08A701960160E070E0CB015D
:101FE000ADDFCB01F801F595E795ED57FE4B60832A
:101FF0009E0135952795F901EE0FFF1FE20FF31FA4
:10200000EB57FE4BC0FF19C024E0969587952A95A3
:10201000E1F7807F90818923808321960D5F1F4F98
:10202000C03B84E0D807B9F6DF91CF911F910F91A3
:10203000FF90EF90DF90CF9008957083EECFFB017B
:1020400001900020E9F73197AF01461B570BDC01E7
:10205000ED91FC910280F381E02D09948F929F9283
:10206000AF92BF92EF92FF920F931F93CF93DF93A4
:10207000CDB7DEB7A197CDBFDEBF7C01FA01CB01A2
:1020800019A2223008F42AE08E010F5D1F4F822E24
:10209000912CB12CA12CBF01A50194010E94BF215C
:1020A000F901CA016A30ECF4605DD8016E938D01CC
:1020B000232B242B252B79F790E080E0109719F043
:1020C000BD01C701BCDFA196CDBFDEBFDF91CF91BF
:1020D0001F910F91FF90EF90BF90AF909F908F90C6
:1020E0000895695CE2CF4F925F926F927F928F92D8
:1020F0009F92AF92BF92CF92DF92EF92FF920F9397
:102100001F93CF936B017C01742EAC019B010E9445
:10211000062466EF70E4811126C046015701E89459
:10212000B7F82FEF3FEF4FE75FE7C501B4010E941B
:10213000062481110CC02FEF3FEF4FE75FE7C50189
:10214000B4010E9455226AEF70E4181664F02FEF74
:102150003FEF4FE75FE4C701B6010E949F231816C7
:10216000A4F46EEF70E48CEA9FE4CF911F910F917D
:10217000FF90EF90DF90CF90BF90AF909F908F90A7
:102180007F906F905F904F905ACF2FEF3FEF4FE7C8
:102190005FECC701B6010E94552287FDE2CF20E027
:1021A00030E0A901C701B6010E94552210E000E00D
:1021B00087FF0AC06DE28CEA9FE40E940A058C0149
:1021C000F7FAF094F7F8F094C0E060E070E080E097
:1021D0009FE37C1641F020E030E040E251E40E94B1
:1021E0005922CF5FF6CFA70196010E94F1212B0162
:1021F0003C010E94C1224B015C012AE0BC01A40108
:102200008CEA9FE42BDF7C01E00EF11ECC23C9F1A8
:10221000C501B4010E94ED229B01AC01C301B201D2
:102220000E94F0214B015C0162E071E48CEA9FE4C2
:1022300006DFE80EF91EC15020F120E030E040E258
:1022400051E4C501B4010E94A3232B013C010E946B
:10225000C1224B01B12CA12C2AE0B501A4018CEACA
:102260009FE4FCDEE80EF91EC501B4010E94ED22D8
:102270009B01AC01C301B2010E94F0214B015C0142
:10228000DACFC701CF911F910F91FF90EF90DF90B0
:10229000CF90BF90AF909F908F907F906F905F9006
:1022A0004F9008952F923F924F925F926F927F923C
:1022B0008F929F92AF92BF92CF92DF92EF92FF9256
:1022C0000F931F93CF93DF93CDB7DEB72A97CDBF80
:1022D000DEBF1C016D837E834F835887280139013F
:1022E0000E949E085C010E9486086C010E947D0885
:1022F000898380910740843009F070C082E090E0CB
:102300008156904BFC018081882309F46AC080E0EB
:1023100090E0DC01F9812F2F30E0A901405B564F9E
:102320007A01FA014491BC01CD01640D751D861D31
:10233000971D85010C0D1D1D409F9001419F300D83
:10234000112450E040E00E94BF21980150E040E09D
:102350000E94BF21A22FB0E04981E8E14E9FA00179
:10236000112449875A87FA0153E0259FE00DF11D9A
:1023700011248F010D5C1A4FAF014C5C5A4F4983F9
:102380005A83AF014B5C5A4F4B835C836A157B05C4
:1023900068F5F8010491F1010083E981FA81149153
:1023A000ED81FE811083FA016491EF81F8856083ED
:1023B0002A96CDBFDEBFDF91CF911F910F91FF9085
:1023C000EF90DF90CF90BF90AF909F908F907F90D5
:1023D0006F905F904F903F902F90089583E090E032
:1023E0008FCF80EB94E0A0E0B0E094CFAB014A192E
:1023F0005B09F701E490CD010196BB24B394B20EC2
:10240000E816190609F00CF4B12CBA0190E080E04E
:102410000E94ED222B013C01B60190E080E00E9479
:10242000ED229B01AC01C301B2010E9459226B0154
:102430007C0125EC30E240E85FE30E949F23181600
:102440009CF469E175E08CEA9FE40E94110542E08A
:10245000C701B60148DE64E071E48CEA9FE4EFDD79
:102460008CEA9FE40E94330729853A8543E0B49EB5
:10247000200D311D112429873A87F901ED5CFA4FAF
:102480007490F8010491A701960160E070E080E883
:102490009FE30E94F0214B015C01672D70E090E00A
:1024A00080E00E94EF22A70196010E94A32320E072
:1024B00030E040E05FE30E94F1212B013C01602FFE
:1024C00070E090E080E00E94EF22A50194010E945C
:1024D000A3239B01AC01C301B2010E94F1210E9420
:1024E000C122F1016083E985FA85EC5CFA4F6491C1
:1024F000E981FA81149170E090E080E00E94EF227F
:10250000A70196010E94A32320E030E040E05FE3B2
:102510000E94F1212B013C01612F70E090E080E0EE
:102520000E94EF22A50194010E94A3239B01AC010C
:10253000C301B2010E94F1210E94C122ED81FE81FE
:10254000608329853A852B5C3A4FF901F491F98330
:10255000EB81FC81F491FB832981622F70E090E094
:1025600080E00E94EF22A70196010E94A32320E0B1
:1025700030E040E05FE30E94F1216B017C013B8190
:10258000632F70E090E080E00E94EF22A5019401AB
:102590000E94A3239B01AC01C701B6010E94F12157
:1025A0000E94C12202CF0F931F93CF93DF9300D0DD
:1025B0001F92CDB7DEB70091934F1091944F2091A9
:1025C000954F3091964FAE014D5F5F4FBE016E5FEC
:1025D0007F4FCE01019666DE80910740843099F0EE
:1025E00083E090E08156904BFC0120814B816A8111
:1025F00089810E947C092396CDBFDEBFDF91CF91F8
:102600001F910F91089582E090E0ECCF8F929F92FE
:10261000AF92BF92CF92DF92EF92FF920F931F93F0
:10262000CF93DF930BE818E4D0E0C0E00E94860867
:10263000C817D90708F041C00E9486087C01BE0176
:1026400090E080E00E94ED224B015C01B70190E038
:1026500080E00E94ED229B01AC01C501B4010E9403
:1026600059226B017C0125EC30E240E85FE30E94D7
:102670009F2318169CF46FED74E08CEA9FE40E948F
:10268000110542E0C701B6012EDD64E071E48CEA79
:102690009FE4D5DC8CEA9FE40E94330720E030E819
:1026A0004FE753E4C701B6010E94A3230E94C12251
:1026B000F80161938F012196B9CFDF91CF911F91DE
:1026C0000F91FF90EF90DF90CF90BF90AF909F90D1
:1026D0008F9008950E943624AF92BF92CF92DF92DE
:1026E000EF92FF920F931F93CF93DF938093074056
:1026F00080E19EE0E3E8F1E4DF019C011D922150BE
:102700003040E1F7E3E4F0E5DF019C011D92215048
:102710003040E1F78FE9A82E8FE4B82E07E91FE4D7
:10272000D0E0C0E08091074038E0839FC0011124D1
:102730008C0F9D1FFC01E957FB4F24912F3F09F09F
:1027400066C0FC01E55CF94FE491CE2ED12CF12C52
:10275000E12CC114D104E104F10439F00E943E21BE
:10276000A70196010E9493216B01FE01E956F04BEF
:10277000C08280910740B8E08B9FC00111248C0F6C
:102780009D1FFC01E957FB4FE491EF3F09F043C067
:10279000FC01E55AF64FE491CE2ED12CF12CE12C20
:1027A000C114D104E104F10439F00E943E21A701D3
:1027B00096010E9493216B01FE01E156F04BC0820D
:1027C0002196BFEFAB1ABB0A0F5F1F4FC830D10570
:1027D00009F0A8CF809107408A3011F417DFDBDBC6
:1027E0001092934F1092944F1092954F1092964FD3
:1027F0001092754110927441DF91CF911F910F910A
:10280000FF90EF90DF90CF90BF90AF900895E4914C
:10281000D801EC93AECFFC01E15DFB4FE491D50113
:10282000EC93CECFEF93FF93ECEAFFE408C0EF9375
:10283000FF93ECEAFFE432C0EF93E0E053C02F9344
:102840002FB72F938F939F93AF93BF936894CF939A
:10285000DF9320E0C485D8E09689DF01A90FB21F7D
:10286000A95ABF4F8C9120E42C838A839F5F9F736A
:102870008D812589291302C08F7D8D83968BDF91F1
:10288000CF9116F00C94E606BF91AF919F918F9176
:102890002F912FBF2F91FF91EF9118952F932FB765
:1028A0002F938F939F93CF93DF93C485D8E0898133
:1028B000988181FD0DC0C38981E08C0F8F732489BD
:1028C000281731F0CE0FDF2F20E0D21F9F8B838B94
:1028D000DF91CF919F918F912F912FBF2F91FF91DA
:1028E000EF911895FF938F938FB78F93F8E08081C6
:1028F000848187FFFCCF85818F7B806885838F9162
:102900008FBF8F91FF91EF9118951F920F920FB685
:102910000F9211248F939F93AF93BF93809168413F
:1029200090916941A0916A41B0916B410196A11DBE
:10293000B11D8093684190936941A0936A41B0931F
:102940006B4181E08093260BBF91AF919F918F9156
:102950000F900FBE0F901F9018951F920F920FB6F9
:102960000F9211240BB60F922F933F934F935F93C7
:102970006F937F938F939F93AF93BF93EF93FF9347
:1029800040913C0B50913D0B86B3282F287083FD5E
:1029900027C081E48093340B80916441909165411C
:1029A000BA01681B790BCB0170E060E04093644191
:1029B000509365416093664170936741222359F1BA
:1029C000F89B10C08930974098F0F89810926341B6
:1029D000E3E4F1E480E2DF011D928A95E9F708C0A3
:1029E00081E5D8CF835894418B3D954008F4F89AFF
:1029F000FF91EF91BF91AF919F918F917F916F91D7
:102A00005F914F913F912F910F900BBE0F900FBE92
:102A10000F901F901895F89BEBCF9C012D523140E1
:102A200025363340C0F580914241880F8093424162
:102A3000809163418770873009F580914241E09130
:102A40006341F0E093E0F595E7959A95E1F7ED5B4A
:102A5000FE4B808380916341873071F480914241C5
:102A6000829586958695837009F1813009F18230CF
:102A700009F18FEF8093024010924241909163419F
:102A8000809102409817C0F010926341F898F99A2B
:102A90001092350BADCF8F5C94408536934008F093
:102AA00094CF80914241880F8F5FC0CF8FE1E2CFFA
:102AB0008FE3E0CF8FE7DECF809163418F5F80931C
:102AC000634196CF1F920F920FB60F9211240BB64F
:102AD0000F922F933F934F935F938F939F93EF9317
:102AE000FF938AB19BB19BB990910040990F990FC8
:102AF000E82FEF70E695E69520910140220F220F16
:102B0000E22BE09301408370982B90930040EF708C
:102B1000F0E0ED56F94F8491E09141418E0F8093A2
:102B200041419F70E92FF0E0ED56F94F9491E0910B
:102B300040419E0F9093404184300CF481C0E0915D
:102B40007541F0E0E956F04B208180910740E0911B
:102B5000754138E0839FA0011124E40FF52FF11D8A
:102B6000E55CF94FE4912E1740F4E0917541F0E0F7
:102B7000E956F04B20812F5F20838150853010F57E
:102B8000809175418630F0F48091754180FD1AC0C6
:102B9000E0917541F0E0E956F04B2081E0917541FC
:102BA000F0E0E856F04B8081821760F4E0917541C7
:102BB000F0E0E956F04B8081E0917541F0E0E85695
:102BC000F04B808380910640816080930640109294
:102BD000414194300CF472C0E0917441F0E0E15650
:102BE000F04B2081E09174418091074038E0839F51
:102BF000C0011124E80FF92FF11DE55AF64FE491B9
:102C00002E1740F4E0917441F0E0E156F04B8081E2
:102C10008F5F808380910640816080930640109290
:102C20004041FF91EF919F918F915F914F913F9123
:102C30002F910F900BBE0F900FBE0F901F90189505
:102C40008D3F3CF6E0917541F0E0E956F04B808114
:102C5000882341F0E0917541F0E0E956F04B808126
:102C600081508083809107408150823008F0AACF44
:102C700080917541863008F0A5CF8091754180FF25
:102C8000A1CFE0917541F0E0E956F04B2081E09151
:102C90007541E150FF0BE956F04B8081281708F091
:102CA00091CFE0917541F0E0E956F04B8081E091E1
:102CB0007541E150FF0BE956F04B83CF9D3F0CF07F
:102CC000B0CFE0917441F0E0E156F04B8081882371
:102CD00009F4A0CFE0917441F0E0E156F04B80811F
:102CE000815097CF1F93CF93DF93ECEAFFE41282DA
:102CF000138288EE93E0A0E0B0E084839583A683FE
:102D0000B78382E690E48083918380E098E08487B3
:102D1000958783EB99E08687978712E0108B118A5D
:102D2000128AC6E6DEE51A821B828EEC90E4888366
:102D300099831F82188680ED97E0A0E0B0E0888B31
:102D4000998BAA8BBB8B86E290E0A0E0B0E08C8BE5
:102D50009D8BAE8BBF8B1C861D861E861F861B8699
:102D60000E944907688F798F8A8F9B8F1C8E1D8EDA
:102D70001E8E1F8E84EE90E4888399838AE188A357
:102D80008DE18AA38BE189A386E18BA387E18CA3E4
:102D900088E18DA389E18EA38FEF8FA388A7E3E558
:102DA000FEE5158283E490E5868397831486158675
:102DB0001686178681E0838780871186128780E1D7
:102DC0009EE08283938380EB94E08083918386E00E
:102DD000848384E094E0808B918B80E4828BDF910C
:102DE000CF911F910895CF93DF93CDB7DEB763974F
:102DF000CDBFDEBF88ED94E284BF9093680021E0F0
:102E00002093030A8EEF8093260A8093270A9BE083
:102E10009093000A32E03093E6052093430A8093B2
:102E2000660A8093670A9093400A9093E705E0E072
:102E3000FBE027E09EEF85E0218394871586808361
:102E40007096E0343BE0F307B9F72FEF3FE02093B3
:102E5000AA0B3093AB0B20E82093820B1092810BCE
:102E60004BEF53E04093AE0B5093AF0B91E7909331
:102E7000800B809302069EE09093050690E6909367
:102E80000306809300068091B000887F8560809360
:102E9000B0008091B200887F85608093B2008FED92
:102EA0009EE280932C0B90932D0B81E08093250B59
:102EB0001092210B93E09093200B789490E49093E0
:102EC00001048093A10492E09093A1042093010453
:102ED0002FB7F894809342048091500488608093C7
:102EE00050042FBF2FB7F89490934204809151045F
:102EF0008860809351042FBF9FB7F89480E180933E
:102F00002204809134048860809334049FBF9FB76B
:102F1000F89484E080934204809152048860809306
:102F200052049FBF2FB7F89498E090934204809189
:102F300053048860809353042FBF2FB7F894909365
:102F40002204809133048860809333042FBF9FB79D
:102F5000F89480E280932204809135048860809305
:102F600035049FBF8091C200811156C00E94BE07E8
:102F70004B015C0115E401E08091C20081114CC05D
:102F80000E94BE07681979098A099B09613D77404B
:102F90008105910508F440C00E94BE0768197909AF
:102FA0008A099B09693E73408105910528F367E012
:102FB00071E48CEA9FE443D864E071E48CEA9FE416
:102FC0003ED81093080600930A0680910D0680FFF4
:102FD000FCCFC0901006D09011060D2C000CEE080E
:102FE000FF082AE0B701A601F7FE0DC06DE28CEAEA
:102FF0009FE40E940A0544275527BA014C195D0930
:103000006E097F092AE08CEA9FE428D864E071E425
:103010008CEA9FE414D8B0CF8BB18BB989E0809350
:103020005004809351048093520480935304809100
:10303000BC4F823008F453C181E08093BD4F40E023
:1030400052EC61E070E08CEA9FE40E94CE0980912E
:10305000725E81110CC08091735E811108C08091F5
:10306000745E811104C08091755E882321F0809187
:103070006D5E8F7E59F01092725E80E48093735E75
:1030800080E18093745E80E58093755E82E080933A
:103090006E5E80E180936D5E64E670E080E090E0BB
:1030A0000E948E0710926A5E86E69EE50E94D70C0B
:1030B000892B09F049C080916E5E823028F08091A2
:1030C0006A5E886080936A5E80E30E943C0B65E0E4
:1030D00070E080E090E00E948E0780E30E943C0B4D
:1030E00061E070E080E090E00E948E0780E30E9443
:1030F0003C0B61E070E080E090E00E948E078091E0
:103100006A5E84FD03C080E20E943C0B60916A5EAF
:10311000606286E69EE50E94CA0784E080936B5E4B
:103120006CE086E69EE50E94CA070E94010882E0E4
:1031300080936C5E66E086E69EE50E94CA076FEFAC
:1031400086E69EE50E942D0F62EB76E086E69EE520
:103150000E94110541E060E086E69EE50E940508B8
:1031600063EA76E086E69EE50E9411056DE271E471
:103170008CEA9FE40E941F1064E071E48CEA9FE4F3
:103180000E941F1060E270E088E00E94290E60E259
:1031900070E089E00E94290E60E270E08AE00E94FF
:1031A000290E60ED77E080E090E00E948E070E949B
:1031B000010884E091DA212C312C21012A9406B1F6
:1031C00010E043E0159507954A95E1F7602F677089
:1031D000D62E80910440681709F484C0609304409F
:1031E0000E94BE0760937041709371418093724159
:1031F000909373410E94BE0700917B4110917C41E6
:1032000020917D4130917E41601B710B820B930BAD
:10321000683873418105910568F480917B419091F4
:103220007C41A0917D41B0917E41892B8A2B8B2BD3
:1032300009F058C1F8941091064010920640789415
:103240001111D1C10E94BE07C0907741D090784142
:10325000E0907941F0907A416C197D098E099F09BF
:1032600061367A4E8105910508F43CC18091764122
:1032700081112CC181E0809376410E94BE07605687
:103280007A4E8109910960937741709378418093D8
:10329000794190937A410E940108F0D723E030E011
:1032A00040E050E00E949321611159C140E060E08C
:1032B00086E69EE50E9405086CE477E086E69EE5DA
:1032C0000E94110541E060E086E69EE50E94050847
:1032D0006DE377E086E69EE50E94110503C110923A
:1032E000BD4FADCE0E94BE0780907041909071415D
:1032F000A0907241B0907341681979098A099B09BD
:10330000633371058105910508F474CF8091034002
:10331000D816D8F480916C4190916D41A0916E4186
:10332000B0916F41892B8A2B8B2B61F400FD0AC071
:103330000E94BE0760936C4170936D4180936E4113
:1033400090936F41D092034055CF02FF77C082FD2A
:1033500075C080906C4190906D41A0906E41B0908E
:103360006F4181149104A104B10409F453C00E9477
:10337000BE07681979098A099B096131774281057D
:10338000910508F4F0C60E9401083FE0E32EF12CFD
:10339000EB82FC826FEFCE0103960E94B609FFEF2D
:1033A000EF1AFF0A20E2E216F10491F710920740AB
:1033B00090E080E0FC01E956F04B1082FC01E15600
:1033C000F04B1082019688309105A1F7109275415B
:1033D0001092744140E063E086E69EE50E94050895
:1033E00067ED76E086E69EE50E94110541E065E026
:1033F00086E69EE50E9405086FEC76E086E69EE58F
:103400000E94110568EE73E080E090E00E948E0754
:1034100087E00AC0809107408A3008F442C080E00B
:103420005BD98091064084608093064010926C4185
:1034300010926D4110926E4110926F4101FF17C0C2
:103440008091034081FD13C0E0910740F0E0EE0F52
:10345000FF1FE158F84FE491809175418E1750F1AC
:10346000109275418091064082608093064000FF73
:1034700069CF8091034080FD65CFE0910740F0E087
:10348000EE0FFF1FE058F84FE491809174418E17C2
:10349000B8F010927441809106408260809306409B
:1034A00051CF813019F482E080930740809107402A
:1034B0008F5FB6CF809175418F5F80937541D2CF7A
:1034C000809174418F5F80937441E5CF0E94BE0765
:1034D0006C197D098E099F09613C744D81409105ED
:1034E00008F0C8CE1091AB4F00910740111186C56E
:1034F000A99A0111B8C103E410E5D12CC12C53E005
:10350000E52EF12CC601B7010E941924FC01E956F1
:10351000F04B80810E949D09F80181938F01FFEF9C
:10352000CF1ADF0A20E1C2162EE0D20659F78091A9
:10353000934F9091944FA091954FB091964F0196D3
:10354000A11DB11D8093934F9093944FA093954FDD
:10355000B093964FA99881E08093AB4F30CE40E076
:103560006130E9F460E086E69EE50E9405086DE2C0
:1035700077E086E69EE50E94110541E060E086E680
:103580009EE50E94050861E277E086E69EE50E94DE
:1035900011056FE786E69EE50E942B08A3CF62E047
:1035A00086E69EE50E94050864E177E086E69EE5F2
:1035B0000E94110541E060E086E69EE50E94050854
:1035C0005DD622E030E040E050E0ADD6611103C0AE
:1035D00063E077E07FCE613019F462EF76E07ACE77
:1035E00062EE76E077CE8091764181110E940108EB
:1035F00010FF0CC0809107408A3041F40E947D0882
:103600009091054089130E94CB0F00D8809107400C
:103610008A3051F40E947D0890910540891721F06D
:103620000E947D08809305400E94BE076093774109
:10363000709378418093794190937A41812F86707D
:1036400029F480917641882309F438C040E060E095
:1036500086E69EE50E94050880910740873008F0C5
:1036600058C0E091754138E0839FC0011124E80FF4
:10367000F92FF11DEE0FFF1FE05AF74F659174917E
:1036800086E69EE50E94110560E286E69EE50E94C0
:103690000A05E09174418091074048E0849FC00191
:1036A0001124E80FF92FF11DEE0FFF1FE656F84F1A
:1036B0006591749186E69EE50E941105177029F4C4
:1036C00080917641882309F492C0E0910740E73069
:1036D00040F140E060E086E69EE50E940508E0914A
:1036E000974FF0E0EE0FFF1FE65BF74F6591749187
:1036F00086E69EE50E94110541E060E086E69EE5D3
:103700000E94050865E977E086E69EE50E941105BE
:1037100035C0E091974FF0E0EE0FFF1FE65BF74FEB
:10372000ADCFF0E0EE0FFF1FE158F84FE49141E01C
:1037300060E086E69EE5EF3F09F45CC00E94050864
:10374000E0917541F0E0E956F04B80810E949D09BF
:10375000182F482F50E070E060E02AE086E69EE5F2
:103760000E942E1060E286E69EE50E940A051A304D
:1037700028F460E286E69EE50E940A0541E064E0E6
:1037800086E69EE50E940508E0910740F0E0EE0F16
:10379000FF1FEC59F84F6591749186E69EE50E94F3
:1037A000110541E06DE086E69EE50E940508E09186
:1037B00074418091074058E0859FC0011124E80FB3
:1037C000F92FF11DE55AF64FE491E130C1F4E09193
:1037D0007441F0E0E156F04B808160E677E08111C2
:1037E00002C06CE577E086E69EE50E941105109226
:1037F000764178CE0E9405086AE777E085CFE091B0
:103800007441F0E0E156F04B1081143660F460E250
:1038100086E69EE50E940A051A3028F460E286E6F4
:103820009EE50E940A05E09174418091074068E09E
:10383000869FC0011124E80FF92FF11DE55AF64FBC
:10384000E491EE2351F0412F50E070E060E02AE077
:1038500086E69EE50E942E10CACF60E286E69EE5CF
:103860000E940A05C4CF013009F075C000919F4F36
:103870008AE0089F002D1124005F802E8094912CF7
:10388000802F869590E0A401480F591F4E875F87CF
:1038900010E0F801E81BF90BE88BF98B43E4E42E08
:1038A00040E5F42EB12CA12CC50163E070E0C1D736
:1038B000782E770CE3D4A201910135D5C62ED12CF8
:1038C000F7016080F0E2F615A0F48C149D04ECF48E
:1038D000E72DF0E0E856F04B80810E949D09F7014A
:1038E0009081681670F48FE7890F8D3710F19F5F14
:1038F00021C02E853F852C153D0554F38889998973
:1039000005C0692EF0E2F917C8F7C801C816D90634
:103910009CF4E72DF0E0E956F04B80810E949D0970
:10392000861550F4F7018081813898F082508083A9
:1039300003C09E5FF7019083FFEFAF1ABF0A2FEF1E
:10394000E21AF20A30E1A3163EE0B30609F0ACCF6A
:10395000EECD8150ECCF033009F021C133E8E32EE6
:1039600031E4F32E03E410E5F701808190E09C013F
:103970003595279535952795F22FFF716F2EF70115
:1039800041819C0173E0220F331F7A95E1F720718A
:10399000942E92949694A7E09A22922A4F71742EB4
:1039A0002281822E829486948694B3E08B22839423
:1039B0002F73A22E880F892F881F990BB82E262DC2
:1039C000240F3327331FC901890D911D892B09F05D
:1039D0008FC080919F4FE091074038E0E39FF00156
:1039E0001124E45AF64FE49190E00296880F991F53
:1039F000880F991FE89F9001E99F300D1124032E35
:103A0000000C440B550B60E070E0CB010E949E0F50
:103A10002091A04F30E050E040E062177307840728
:103A2000950784F52091984F6091974F30E050E0D2
:103A300040E070E090E080E00E949E0F662E2091B2
:103A40009A4F6091994F30E050E040E070E090E094
:103A500080E00E949E0F962E20919C4F60919B4F7C
:103A600030E050E040E070E090E080E00E949E0F87
:103A7000762E04D423E030E040E050E054D4862E8B
:103A8000B12CA12CF801108211821282492D50E034
:103A900020E8B29EC001112464E0669E90011124CA
:103AA000822B9A0193E0359527959A95E1F7822B21
:103AB000F701808325E0440F551F2A95E1F7742A0A
:103AC0007182282D2150330B490136E0880C991C56
:103AD0003A95E1F7A828A28233E0E30EF11C0D5FCE
:103AE0001F4F43E95FE44E155F0509F03DCF1FCD41
:103AF000282D30E050E040E06091934F7091944F5A
:103B00008091954F9091964F3AD4672B682B692BF3
:103B100009F0BCCFBB2059F0A11009C0F8011082F8
:103B200011821282B12C712C912C612CAFCFEA2D15
:103B3000F0E0E05FF64FC490862D0E949D09D12CE5
:103B4000282F30E0D6013DD4A2019101ECD3F80139
:103B50002083892D0E949D099601A82FB0E031D4C1
:103B6000A2019101E0D3F8012183872D0E949D09D4
:103B70009601A82FB0E025D4A2019101D4D3F80179
:103B80002283BB2011F0AA9481CFFFE3AF1611F07E
:103B9000A3947CCFBB24B3944EE3A42E77CF043000
:103BA00019F40E94D312C3CC053009F05CC0809197
:103BB000A04F2DE030E0281B3109032E000C440BF0
:103BC000550B6091934F7091944F8091954F9091C8
:103BD000964FD5D340E0F12C672B682B692BE1F58C
:103BE0008091984F0E949D09182F8091974F0E94B5
:103BF0009D09212F30E050E040E0682F70E090E018
:103C000080E00E949E0F162F80919A4F0E949D097E
:103C1000082F8091994F0E949D09202F30E050E09D
:103C200040E0682F70E090E080E00E949E0FF62E4A
:103C300080919C4F0E949D09082F80919B4F0E946C
:103C40009D09202F30E050E040E0682F70E090E0C8
:103C500080E00E949E0F462F2091A14F6F2D812F53
:103C60000E947C0964CC063009F07FC080917F41BE
:103C700087FF73C0982F9F738150911171C010926C
:103C80007F41E0917F41EF73F0E0E05FF64FC49039
:103C900080919A4F0E949D09182F8091974F0E9402
:103CA0009D09882E912CB12CA12CD12CF12CE12C2A
:103CB000212F30E050E040E0281939094A095B091A
:103CC000C701B601A7D5A20191012DD3022F080D7E
:103CD00080919B4F0E949D09182F8091984F0E94C0
:103CE0009D09882E912CB12CA12C212F30E050E081
:103CF00040E0281939094A095B09C701B6018AD58C
:103D0000A201910110D3722E780C80919C4F0E94D9
:103D10009D09182F8091994F0E949D09882E912C02
:103D2000B12CA12C212F30E050E040E028193909B6
:103D30004A095B09C701B6016DD5A2019101F3D211
:103D4000820EE3E4F0E5008371828282339683E59C
:103D50009EE58E179F07B9F7EACB8F3320F08FEBE4
:103D600080937F418ECF8F5FFBCF073009F419CF4F
:103D7000083009F04BC08091A04F2DE030E0281BA7
:103D80003109032E000C440B550B6091934F709139
:103D9000944F8091954F9091964FF1D2672B682B5D
:103DA000692B69F50E947D08E82FF0E0E05BF64F93
:103DB000F4900E9486088C010E949E08800F911F3B
:103DC000F89E9001F99E300D112450E040E060E033
:103DD00070E0CB010E949E0F8B019C0140E851E4F2
:103DE00061E871E482E891E40E9452112091A14FB0
:103DF00040918041609181418091824131CF109208
:103E000082411092814110928041F0CF093009F532
:103E10000091934F1091944F2091954F3091964F70
:103E2000AE014D5F5F4FBE01665F7F4FCE010B96C7
:103E30000E9452118B819A852B85E3E4F0E5208363
:103E400091838283339643E55EE54E175F07B9F7AA
:103E50006ECB0A3009F0CEC090909F4F909E002DFF
:103E60001124A0E19A2E900E892C80940E947D0846
:103E7000E82FF0E0E05BF64FF4900E949E088C0182
:103E80000E948608800F911FF89E5001F99EB00C89
:103E90001124B3E4CB2EB0E5DB2E712C612C882DE0
:103EA00090E08E879F87E92DF0E0E88BF98BE6D1D3
:103EB0002FEF3FEF40E050E036D2C60183549045EB
:103EC00096958795930136952795F901EE0FFF1F7B
:103ED000E20FF31F9F012B573E4B2A8B3B8BF901BF
:103EE000E080F12C1E2D002700271F70DC01AD574C
:103EF000BE4B2C91020F111DF4E0EE0CFF1CFA9545
:103F0000E1F7EE24FFE0FF228C579E4BFC0120815D
:103F1000E20EF11C861608F04BC00F5F1F4FA01673
:103F2000B10608F450C07C871D862C853D854E85E2
:103F30005F854217530708F049C05FEFE51AF50A9D
:103F4000AE14BF0408F453C00C93FC01E082812F2F
:103F5000807F970194E0369527959A95E1F7822323
:103F6000EA89FB89808330E020E0A6014E5F5F4F45
:103F7000B6016F5F7F4FC6010E94AF08870130E036
:103F800020E0A6014B5F5F4FB6016C5F7F4FC6011B
:103F900003960E94AF08F2E06F0E711C26E0C20E7D
:103FA000D11C30EB631634E0730609F080CFBFCA32
:103FB000691508F0B8CF01501109A016B10608F034
:103FC000B2CF8501B0CF10E000E0ADCFEC85FD852C
:103FD00028893989E217F30708F0B6CF31E0E31AF0
:103FE000F108AE14BF0408F0AFCF7501ADCFF12CCE
:103FF000E12CAACF80E00E946C1399CA0E94BE07F0
:10400000C090A74FD090A84FE090A94FF090AA4F32
:10401000AB01BC014C195D096E097F0980E50230D6
:1040200070F0033009F08FC0E3E7F9E084919091DC
:104030009F4F891B9AE0899F802D1124825E90E01A
:10404000B0E0A0E084179507A607B70708F0B7C847
:104050000E94BE076093A74F7093A84F8093A94F0B
:104060009093AA4FA89A1092AB4F8091595E90916D
:104070005A5E892B09F465C08091575E89320CF035
:1040800060C00E94490700915F5E1091605E2091C0
:10409000615E3091625E601B710B820B930B623329
:1040A00071058105910568F3F8948091555E9091B2
:1040B000565E89839A83A091595EB0915A5EFD0144
:1040C00031968C918987A091635EB091645E9C91DA
:1040D0008091655E982B98879C91809589238F832A
:1040E0008F818E8388E08D8358856F8149853D81DE
:1040F0002E8189819A8100C05C9347FD252F441F42
:104100003A9500C02C9300C0262F05D06C9321F067
:1041100001D0F1CF00C0089538E0419100C001976F
:1041200051F749873D832E8389839A8378940E942F
:10413000490760935F5E7093605E8093615E9093C9
:10414000625EA8983CC828E0029FF0011124E55A5D
:10415000F64F849190919F4FE82FE91B84E1E89FEF
:10416000802D11246BCF0E94BE07681979098A0936
:104170009B09693B7B408105910508F44BC960911F
:1041800007404FE050E04B835C83CE0103960E94D2
:10419000B609F12CE12CF701E956F04B6081C7011B
:1041A00040968B839C83CE0103960E94B609F7014B
:1041B000E156F04B6081C70148968B839C83CE010A
:1041C00003960E94B6095FEFE51AF50A68E0E61665
:1041D000F10409F70E94010840E063E086E69EE5ED
:1041E0000E94050864EC76E009C98F929F92AF9215
:1041F000BF92CF92DF92EF92FF92CF93DF93EC01C9
:10420000688179818A819B8161157105810591059C
:1042100021F464E279ED8BE597E02DE133EF41E0A5
:1042200050E081D049015A019B01AC01A7EAB1E4F9
:1042300096D06B017C01ACEEB4EFA50194019BD04C
:10424000C60ED71EE81EF91EF7FE06C081E0C81A8A
:10425000D108E10880E8F80AC882D982EA82FB82A4
:10426000C701B6019F77DF91CF91FF90EF90DF906C
:10427000CF90BF90AF909F908F9008958F929F9214
:10428000AF92BF92CF92DF92EF92FF92609108407F
:104290007091094080910A4090910B406115710521
:1042A0008105910521F464E279ED8BE597E02DE13C
:1042B00033EF41E050E037D049015A019B01AC0196
:1042C000A7EAB1E44CD06B017C01ACEEB4EFA501E0
:1042D000940151D0C60ED71EE81EF91EF7FE06C087
:1042E00081E0C81AD108E10880E8F80AC0920840C5
:1042F000D0920940E0920A40F0920B40C701B6010B
:104300009F77FF90EF90DF90CF90BF90AF909F90FE
:104310008F900895609308407093094080930A40FD
:1043200090930B400895052E97FB16F400940FD040
:1043300057FD05D024D007FC02D046F408C05095A4
:104340004095309521953F4F4F4F5F4F0895909581
:104350008095709561957F4F8F4F9F4F089531D015
:10436000A59F900DB49F900DA49F800D911D1124C9
:104370000895B7FFF4CFF3DF821B930B0895A1E2FA
:104380001A2EAA1BBB1BFD010DC0AA1FBB1FEE1FCF
:10439000FF1FA217B307E407F50720F0A21BB30B1A
:1043A000E40BF50B661F771F881F991F1A9469F796
:1043B00060957095809590959B01AC01BD01CF01F2
:1043C0000895A29FB001B39FC001A39F700D811DEE
:1043D0001124911DB29F700D811D1124911D08950E
:1043E0005058BB27AA270ED070C161D130F066D1DA
:1043F00020F031F49F3F11F41EF456C10EF4E09505
:10440000E7FB4CC1E92F72D180F3BA17620773073B
:104410008407950718F071F49EF58AC10EF4E095B3
:104420000B2EBA2FA02D0B01B90190010C01CA016E
:10443000A0011124FF27591B99F0593F50F4503E19
:1044400068F11A16F040A22F232F342F4427585F0B
:10445000F3CF469537952795A795F0405395C9F723
:104460007EF41F16BA0B620B730B840BBAF09150DB
:10447000A1F0FF0FBB1F661F771F881FC2F70EC07A
:10448000BA0F621F731F841F48F48795779567954D
:10449000B795F7959E3F08F0B3CF9395880F08F036
:1044A0009927EE0F979587950895D4D008F481E069
:1044B00008950CD00AC102D140F0F9D030F021F4B7
:1044C0005F3F19F0EBC0511134C1EEC00FD198F32A
:1044D0009923C9F35523B1F3951B550BBB27AA2785
:1044E00062177307840738F09F5F5F4F220F331FF7
:1044F000441FAA1FA9F333D00E2E3AF0E0E830D0C3
:1045000091505040E695001CCAF729D0FE2F27D0C5
:10451000660F771F881FBB1F261737074807AB0793
:10452000B0E809F0BB0B802DBF01FF2793585F4F08
:104530002AF09E3F510568F0B1C0FBC05F3FECF32D
:10454000983EDCF3869577956795B795F7959F5FCD
:10455000C9F7880F911D9695879597F90895E1E021
:10456000660F771F881FBB1F621773078407BA0780
:1045700020F0621B730B840BBA0BEE1F88F7E095DB
:104580000895BCD088F09F5790F0B92F9927B75164
:10459000A0F0D1F0660F771F881F991F1AF0BA9507
:1045A000C9F712C0B13081F0C3D0B1E00895C0C0E6
:1045B000672F782F8827B85F39F0B93FCCF38695FD
:1045C00077956795B395D9F73EF49095809570955A
:1045D00061957F4F8F4F9F4F0895E89409C097FBD7
:1045E0003EF490958095709561957F4F8F4F9F4FCA
:1045F0009923A9F0F92F96E9BB279395F69587950E
:1046000077956795B795F111F8CFFAF4BB0F11F4D0
:1046100060FF1BC06F5F7F4F8F4F9F4F16C0882377
:1046200011F096E911C0772321F09EE8872F762FAD
:1046300005C0662371F096E8862F70E060E02AF0EE
:104640009A95660F771F881FDAF7880F96958795DA
:1046500097F90895990F0008550FAA0BE0E8FEEFAF
:1046600016161706E807F907C0F012161306E40736
:10467000F50798F0621B730B840B950B39F40A262F
:1046800061F0232B242B252B21F408950A2609F40D
:10469000A140A6958FEF811D811D089597F99F6711
:1046A00080E870E060E008959FEF80EC08950024BA
:1046B0000A941616170618060906089500240A9487
:1046C00012161306140605060895092E0394000C0D
:1046D00011F4882352F0BB0F40F4BF2B11F460FF9C
:1046E00004C06F5F7F4F8F4F9F4F089557FD9058C5
:1046F000440F551F59F05F3F71F04795880F97FBA6
:10470000991F61F09F3F79F087950895121613065F
:104710001406551FF2CF4695F1DF08C0161617068E
:104720001806991FF1CF86957105610508940895C3
:10473000E894BB2766277727CB0197F908958ADF8E
:1047400008F48FEF08950BD0C0CFB1DF28F0B6DFAB
:1047500018F0952309F0A2CFA7CF1124EACFC6DF26
:10476000A0F3959FD1F3950F50E0551F629FF00184
:10477000729FBB27F00DB11D639FAA27F00DB11DDD
:10478000AA1F649F6627B00DA11D661F829F222766
:10479000B00DA11D621F739FB00DA11D621F839FED
:1047A000A00D611D221F749F3327A00D611D231FC3
:1047B000849F600D211D822F762F6A2F11249F5711
:1047C00050408AF0E1F088234AF0EE0FFF1FBB1F34
:1047D000661F771F881F91505040A9F79E3F5105D3
:1047E00070F05CCFA6CF5F3FECF3983EDCF386958C
:1047F00077956795B795F795E7959F5FC1F7FE2B7E
:10480000880F911D9695879597F9089523DF880B5A
:10481000990B0895DB018F939F93A1DDBF91AF9119
:10482000A29F800D911DA39F900DB29F900D11240A
:104830000895AA1BBB1B51E107C0AA1FBB1FA617E7
:10484000B70710F0A61BB70B881F991F5A95A9F739
:1048500080959095BC01CD010895EE0FFF1F0024B7
:10486000001C0BBE0790F691E02D099481E090E0CA
:08487000F89400C0F894FFCF9A
:1048780003031F0707FF07040100000000000000F2
:1048880040404040000000000000222300000000DB
:104898000000000000000000800000000000000090
:1048A80000002021000001020304050607000102A0
:1048B80003040500010203040506070001020304BE
:1048C80005060700010203000102030405060000B3
:1048D8000000E70635056205330793057105850570
:1048E800CE09B6059F05470701020408102040803D
:1048F800010204081020010204081020408001026F
:104908000408102040800102040801020408102055
:104918004000000000000000000101010101010247
:104928000202020202020203030303030303030455
:1049380004040405050505050505000000002B080D
:1049480035057A08D7097A0877086A13740874084D
:10495800000000002B0835057A08D709D70C640B2E
:10496800DF0A2D0F74086E616E00696E66006F763F
:1049780066002E000D0A004D56494F206661696C8D
:10498800656420746F20696E697469616C697A6501
:104998003F204E6F20564444494F323F004C434419
:0649A8005F494E49540076
:0400000300000200F7
:00000001FF
