:10020000E5C300000DC400000BC4000009C40000D9
:1002100007C4000005C4000003C4000001C40000BE
:10022000FFC30000FDC30000FBC30000F9C30000D2
:10023000F7C30000F5C30000F3C30000F1C30000E2
:10024000EFC30000EDC30000EBC30000E9C30000F2
:10025000E7C300000C9407120C94DD11E1C3000009
:10026000DFC30000DDC30000DBC30000D9C3000012
:10027000D7C30000D5C300000C9420130C9439128E
:10028000CFC30000CDC30000CBC30000C9C3000032
:10029000C7C30000C5C30000C3C30000C1C3000042
:1002A000BFC30000BDC30000BBC30000B9C3000052
:1002B0000C946112B5C30000B3C30000B1C30000C9
:1002C000AFC30000ADC30000ABC30000A9C3000072
:1002D000A7C30000A5C30000A3C30000A1C3000082
:1002E0009FC300009DC300009BC3000099C3000092
:1002F00097C3000020445249465432200020464112
:1003000044453220200020444F5453322020002006
:1003100020574156452020002020464144452020BA
:10032000002020444F5453202000205241494E4287
:100330004F57002050554C534520200020434F4D2F
:1003400045545320004452494654494E47002053D7
:100350004F4C4944202000204457454C4C2000205D
:100360004449524543540044454E53495459002092
:100370004C454E47544800204E554D4245520020B2
:1003800053504545442000535441544943200050A4
:100390005552504C45200050554D504B494E004A47
:1003A000554E474C452000202046495245200053D9
:1003B000455854494D45004C495A41524420005338
:1003C000554E53455420002020434F4F4C200020D1
:1003D000205741524D20005241494E424F57002074
:1003E000202020202020004D415820424C55004D17
:1003F000494E20424C55004D41582047524E004D29
:10040000494E2047524E004D415820524544004D20
:10041000494E20524544002020424C5545200020A2
:10042000475245454E2000202052454420200000E0
:100430000000000000000005000000000000000AAD
:100440000A0500000000000505000000000000058E
:100450000A000000000000050A000000000000057E
:10046000000000000000000514020000000000056C
:100470000A000000000000050A020000000000055C
:100480000A020000000000FFFFFF00000000000063
:100490001F001F001F0000001F001F001F000000A2
:1004A0001F001F001F0000000000000000000000EF
:1004B0001F001F001F0000FFFFFFFFFFFF000000E5
:1004C000000000000000000000000000000000002C
:1004D00000000000000000000000000000000045D7
:1004E00052524F523A20726174696F206F757420B6
:1004F0006F662072616E67650000010203040608E2
:100500000B0E12161B21272E363F49545F6A758049
:100510008B97A3B0BDCCDCEDFF4552524F523A2031
:10052000726174696F206F7574206F662072616EDE
:10053000676500FF000000FF000000FF00000000F2
:100540000000000000000000000000FF6020FF64C9
:1005500000F08028FF2000000000000000000000E4
:10056000000000FF00400040FF00D2A0A000A0005B
:100570000000000000000000000000FF5014FF64B5
:1005800000C41040A00040FF200000000000000058
:1005900000000000FF0000801000200040A00000CC
:1005A0000000000000000000000000FF0010C40078
:1005B00040FF1064FF004000000000000000000049
:1005C000000000FF4000C42000DC4000FF100000DD
:1005D000000000000000000000000000FF0020FFFD
:1005E0000000FF2020FF20000000000000000000AD
:1005F000000000FF4000C42000DC400020FF00009D
:100600000000000000000000000000C00060C40006
:1006100040FF1064FF0040000000000000000000E8
:10062000000000A0A08CE4E4C880806E3C3C320056
:1006300000000000000000000000001F1F1F00005D
:100640000000001F1F1F1F1F1F00001F1F1F1F1F55
:100650001F00001F1F1F1F1F1F00000000000000C1
:100660000000001F1F1F1F1F1F00001F1F1F1F1F35
:100670001F00000A000000000000000A0000000047
:100680000000000A000000000000000A0000000056
:100690000000000001FF00FF000001010000FF005A
:1006A000FF01004E6F7468696E6720776F726B731D
:1006B0002100576F61682C2049276D206F6E2061E3
:1006C000204442210052454D4F5445204F5645523B
:1006D00052494445004D6F6465205361766564005E
:1006E000636C6561726564005361766564206D6F4B
:1006F00064650041444A555354204C494748544985
:100700004E47005455524E204D59204B4E4F4253A8
:10071000203B2900555345204B4E4F42532642550E
:1007200054544F4E00504C41592057495448204D85
:100730004500207E48414C4C4F5745454B454E4463
:1007400000436162696E205765656B656E64205673
:1007500049004C657427732067657420776569725A
:10076000642100545249434B204F5220545245417A
:1007700054210046574400524556004E0345033C61
:100780000333032A03210318030F030603FD02F4B6
:100790000220202020000200050005020501FF02C2
:1007A00005020500000300020003000220202020B3
:1007B00000DF030000000000000000000000000057
:1007C000007F03770300000000000000000000002D
:1007D000007F0377036F03000000000000000000AB
:1007E000007F03670300000000000000000000001D
:1007F000007F036F035F03000000000000000000A3
:10080000007F0367035F030000000000000000009A
:10081000007F030000000000000000000000000056
:10082000007F036F0357035F030000000000000018
:10083000007F0367035F030000000000000000006A
:10084000007F036F0357035F0300000000000000F8
:10085000007F036F0357030000000000000000004A
:1008600000D703CF03C703BF03B703AF03A7039F9B
:100870000397038F03870327041F04170400000056
:10088000000000000000000F040704FF03F703EF5F
:1008900003E703000000000F040704FF03F703EF62
:1008A00003E703000000000F040704FF03F703EF52
:1008B00003E70300000000DF030000000000000069
:1008C000000000000000000F040704FF03F703EF1F
:1008D00003E703000000000F04FF03EF030704F722
:1008E00003E70300000000DF030000000000000039
:1008F00000000000000000DF030000000000000016
:1009000000000000000000DF030000000000000005
:1009100000000000000000DF0300000000000000F5
:100920000000000000000000000000000000000ABD
:10093000000000000000000A0A0A00000000000A8F
:10094000140000000000000A0A0100000000000A74
:100950000C0100000000000A000000000000000A76
:10096000281401000000000A0C0100000000000A29
:10097000141401000000000A14140000000000001C
:100980000102030405060708090A0C0E10121416CA
:10099000181A1C1F2225282B2E3134373B3F434782
:1009A0004B4F53575C61666B70757A7F858B91975F
:1009B0009DA3A9AFB6BDC4CBD2D9E0E7EFF7FF0343
:1009C000040405040404040404042F1411241FBEA9
:1009D000CFEFCDBFDFE7DEBF11E4A0E0B0E4E4E598
:1009E000F5E400E00BBF02C007900D92AC33B107F5
:1009F000D9F727E4ACE3B1E401C01D92A235B207F8
:100A0000E1F714E0C6EED4E004C02197FE010E9495
:100A10009B22C53ED107C9F70E94BA140C94A822A4
:100A2000EFCBDC01ED91FC910190F081E02D099478
:100A3000EF92FF920F931F93CF93DF938C017B0173
:100A4000D0E0C0E0F701EC0FFD1F6491662361F078
:100A5000D801ED91FC910190F081E02DC80109953C
:100A6000892B11F02196EECFCE01DF91CF911F910E
:100A70000F91FF90EF900895AF92BF92CF92DF92C7
:100A8000EF92FF920F931F93CF93DF936C017B0143
:100A90008B01040F151FEB015E01AE18BF08C017D4
:100AA000D10759F06991D601ED91FC910190F08147
:100AB000E02DC6010995892B79F7C501DF91CF910A
:100AC0001F910F91FF90EF90DF90CF90BF90AF906C
:100AD0000895FC01518D428D252F30E0842F90E048
:100AE000821B930B541710F0CF9608950197089529
:100AF000FC019789808D981761F0A08DAE0FBF2FF4
:100B0000B11D5B968C91908D9F5F9F73908F90E04D
:100B100008958FEF9FEF0895FC019789808D9817B6
:100B200031F0808DE80FF11D838D90E008958FEFF7
:100B30009FEF0895FC019789208D892F90E0805CBC
:100B40009F4F821B91098F7399270895CF93DF934D
:100B5000EC01E881F9810680F781E02D0995EC85AB
:100B6000FD8586818F738683EC85FD8585818F75F4
:100B70008583888D8F8B1E8ADF91CF910895CF93C7
:100B8000DF93FC01918D828DC485D585981306C0B5
:100B90008D818F7D8D83DF91CF910895A28DAE0FD2
:100BA000BF2FB11DA55ABF4F9C91828D8F5F8F7350
:100BB000828F80E48C83A485B58512969C93918D59
:100BC000828D9813E8CF0484F585E02D85818F7D93
:100BD0008583E1CF0FB607FE04C0209111012223C7
:100BE00039F0DC011C96ED91FC91248125FDC7CFE5
:100BF00008950F931F93CF93DF93EC0181E08E8BC9
:100C0000998D8A8D981311C0EC85FD85848185FFAF
:100C10000CC080E48483EC85FD85628381E090E0F4
:100C2000DF91CF911F910F910895062F198D1F5FAE
:100C30001F738A8D811303C0CE01CCDFFACFE98DFB
:100C4000EC0FFD2FF11DE55AFF4F0083198FEC8546
:100C5000FD85858180628583E1CFCF93DF93EC01B1
:100C60008E89882359F0EC85FD85858185FD03C03B
:100C7000848186FD03C0CE01ADDFF5CFDF91CF913A
:100C8000089581E008959FB7F894E0912A0BF091C0
:100C90002B0B8091260B2091494130914A41409184
:100CA0004B4150914C419FBF80FF08C0EC3185E221
:100CB000F80720F42F5F3F4F4F4F5F4F0F011694FF
:100CC00007941694079416940794F00116940794C9
:100CD00016940794E019F109169407940694102CC1
:100CE00016941694011816941694010C1124E00D14
:100CF000F11DA8EEB3E00E941D206E0F7F1F811D25
:100D0000911D08958F929F92AF92BF92CF92DF92E2
:100D1000EF92FF924B015C01B6DF6B017C01B3DF08
:100D20006C197D098E099F09683E73408105910504
:100D3000B0F321E0821A9108A108B10888EEC80E2C
:100D400083E0D81EE11CF11C81149104A104B104BC
:100D500031F7FF90EF90DF90CF90BF90AF909F90D2
:100D60008F9008952FB7F8946091494170914A414E
:100D700080914B4190914C412FBF08958F929F924B
:100D8000AF92BF92EF92FF921F93CF93DF93EC014C
:100D9000162FE881F9810484F585E02D462F70E057
:100DA00060E009957C0111501230D0F419861A8642
:100DB00088889988AA88BB8866DF688F798F8A8F30
:100DC0009B8F8C8E9D8EAE8EBF8EC701DF91CF9193
:100DD0001F91FF90EF90BF90AF909F908F900895DC
:100DE0008C889D88AE88BF88E7CF61E089E297E470
:100DF000C5CFDC0118968C911897481710F04FEF6B
:100E0000480F1B969C911B97992389F017969C91EC
:100E10001797691730F0691B4F5F4817D0F340E010
:100E2000F8CF19966C9319971A964C931A97FD015F
:100E3000E40FF11D8485680F6068CD019FCF8F920C
:100E40009F92AF92BF92EF92FF920F931F93CF9317
:100E5000DF93EC01462FE881F9810484F585E02DCC
:100E600061E070E009957C018C889D88AE88BF8820
:100E70000ADF688F798F8A8F9B8F8C8E9D8EAE8EC6
:100E8000BF8E01E010E0EF2811F010E000E08B854C
:100E9000882391F089858F5F89879F81891760F00A
:100EA00019868A858F5F8A879885891708F01A8640
:100EB0004A8560E0CE019DDFC801DF91CF911F918F
:100EC0000F91FF90EF90BF90AF909F908F900895FB
:100ED0008DEF9FEF08958DEF9FEF089590E080E0F4
:100EE00008950F931F938091024090E043E0959501
:100EF00087954A95E1F721E0A4E0B0E0833019F44A
:100F000020E0A3E0B0E040E050E0BA01E22FF0E0E2
:100F1000EA17FB076CF4E35BFE4B3081430F511D76
:100F2000611D711D762F652F542F44272F5FEECF43
:100F3000835B9E4BFC0180818A019B01080F111D80
:100F4000211D311DC901B8011F910F910895809194
:100F50001944843019F080911144089580E0089577
:100F600080911944843041F48091064426E0829FA8
:100F7000C001112409960895883039F08091064403
:100F800023E0829FC001112408958FEF90E008951F
:100F900080911944843051F0883041F080910744A9
:100FA00024E0829FC00111240296089582E090E01F
:100FB00008952F923F924F925F926F927F928F92FD
:100FC0009F92AF92BF92CF92DF92EF92FF920F93D8
:100FD0001F93CF93DF933C012B011A014801590164
:100FE000D7DF6C01BDDF7C01B2DF182F809119447F
:100FF000843009F05EC082E090E08B5F9B4BDC01A7
:101000008C91882309F458C080E090E0DC01C12F66
:10101000D0E0C154D64FFE014491EC0CFD1CBC0144
:10102000CD01680D791D8A1D9B1D4E9D90014F9D20
:10103000300D112450E040E00E942D20970150E037
:1010400040E00E942D20E22EF12CF8E11F9F50017C
:101050001124A50133E0239F400D511D11248A0165
:101060000D5C1A4FDA01AC5CBA4F4B5C5A4F6C15F1
:101070007D0538F5F8010491E3010883FD01A49191
:10108000E201A883FA014491D1014C93DF91CF9101
:101090001F910F91FF90EF90DF90CF90BF90AF9096
:1010A0009F908F907F906F905F904F903F902F9088
:1010B000089583E090E0A1CF88EC90E0A0E0B0E05C
:1010C000A6CFECE2F1E04F018C189D086401FE010F
:1010D000C491FFEFEF1AFF0A2F5FCE151F0409F02E
:1010E0000CF420E0EB01C355DE4B4E018C0C9D1C33
:1010F000F4016081C501F3E02F9F800D911D112443
:10110000FC01ED5CFA4F7491F80104912FEF30E08F
:10111000261B3109029FF001039FF00D1124769FD9
:10112000E00DF11D1124E301F883FC01EC5CFA4FA2
:101130007491FD01A491A29FF001A39FF00D1124D1
:10114000679FE00DF11D1124D201FC938B5C9A4F37
:10115000FC018491FA014491429FF001439FF00DFC
:101160001124689FE00DF11D1124D101FC938ECF55
:10117000222381F0EEEBF4E423E137E493819193B1
:101180002E173F07D9F78093134760931447409376
:1011900015470895E3E1F7E49291938394E4EE3BDD
:1011A000F907D1F78093BE446093BF444093C04495
:1011B0000895E0919F412091194498E0299F900162
:1011C0001124E20FF32FF11DE55CF94FE491EF31AB
:1011D00041F4803208F08FE1E82FF0E0E750FB4F58
:1011E0008491089520910210422F427021FDFACF80
:1011F0003FB7F8942DE924BF4093001043E124BF8A
:1012000040930010DC01ED91FC91FC5E60833FBFD8
:101210000895DC01ED91FC910088F189E02D23E037
:1012200030E009940895282F30E08932A8F4F901BC
:10123000E958FF4B80818F3F79F020563F4BD90111
:10124000EC91B0E2EB9FF0011124FC5F90859823B4
:1012500081E019F480E008958FEF08950F931F93B4
:10126000CF93DF93893208F07CC090E0DC01A9586D
:10127000BF4B2C912F3F09F474C08C0100561F4BBB
:10128000E801E881D0E2ED9FF0011124FC5F6111DB
:1012900033C0268330812323AC014C5C5F4B21118A
:1012A00011C0EA012881309749F12F3F39F170963A
:1012B000E20FF11D3FB7F8942081611122C0277F12
:1012C00020833FBFFA0130813F3F09F44AC0E80163
:1012D0002881363058F53091E605432F47702413A6
:1012E00012C0EC91E53008F0EE0F8091010AE09514
:1012F000E823E093010A35C02583CCCFF0E0E0E09D
:10130000D9CF2860DDCF387169F4213079F4EC91C0
:10131000E53008F0EE0F8091410AE095E823E09374
:10132000410A1FC0383111F4263089F3855F9F4B85
:10133000FC01808185FF13C030E1839FF0011124FF
:10134000F75F91819770973061F4EC91853270F47A
:10135000803298F48830E1F2803121F202C08111AC
:10136000F4CFDF91CF911F910F910895803471F0E8
:101370008038B9F71092A006F4CF90E1899FF00170
:101380001124F75F81818F7E8183EBCF8091920B57
:101390008E2339F3C0E22C9F900111243C5FEF3F74
:1013A00031F1205F3F4FE20FF32FF11D4FB7F8945B
:1013B0009091800B9E7F9093800B90918E0B90FF6D
:1013C000FCCF2091920B90E08095909530E08223A5
:1013D000932328ED24BF8093920B8091800B816032
:1013E0008093800B80818F7780834FBFBACFF0E0EE
:1013F000E0E0DCCF0F931F93CF938C01C62FFC014D
:1014000083A161E0C0FF60E029DFF80184A161E011
:10141000C1FF60E023DFF80185A161E0C2FF60E069
:101420001DDFF80186A161E0C3FF60E0CF911F914D
:101430000F9114CF4F925F926F927F928F929F92F3
:10144000AF92BF92EF92FF921F93CF93DF93EC0185
:101450007B01142F88A161E091E0E916F10409F005
:1014600060E0FCDE612F70E084E0759567958A95F9
:10147000E1F7CE01BFDF8C8C9D8CAE8CBF8C488C8D
:10148000598C6A8C7B8CFFDB641975098609970976
:10149000681579058A059B05B0F361E08AA1DEDE57
:1014A00086E08A95F1F700C060E08AA1D7DE92E07D
:1014B000E916F10471F0612F6F70CE019BDF61E0DE
:1014C0008AA1CCDE86E08A95F1F700C060E08AA1AF
:1014D000C5DE90E080E0DF91CF911F91FF90EF900B
:1014E000BF90AF909F908F907F906F905F904F9044
:1014F0000895CF93DF93893298F490E0FC01E95886
:10150000FF4B20812F3F61F0FC01E056FF4BE08153
:1015100030E2E39FF0011124FC5F613021F421836C
:10152000DF91CF9108958C5C9F4BEC01A88130979F
:1015300091F0AF3F81F0CF014096A80FB92FB11DB8
:101540009FB7F89422838C91623041F488608C9329
:1015500025839FBFE5CFB0E0A0E0F2CF877F8C93DB
:101560002683F7CF7F928F929F92AF92BF92CF92B6
:10157000DF92EF92FF920F931F93CF93DF93EC01D3
:101580004A015B01722E8E89882339F0E881F98146
:101590000288F389E02DCE0109950D8910E0E12C38
:1015A000811488EB98068BE0A806B10430F0B6945D
:1015B000A7949794879432E0E32E1E8AFFB6F8949E
:1015C000CC84DD8460E074EB84EC94E0A5019401AC
:1015D0000E942D20F60120873187EC85FD857782DA
:1015E000EC85FD858681897F806C8E298683EC85DC
:1015F000FD858581806885839091E2058C89809541
:1016000089239801220F331F020F131FC00FD11F10
:101610009989892B8093E20562E08F856ADF61E01A
:10162000888967DFFFBEDF91CF911F910F91FF90F7
:10163000EF90DF90CF90BF90AF909F908F907F9072
:1016400008958F929F92AF92BF92CF92DF92EF92C6
:10165000FF920F931F93CF93DF93FC0121A12F3FA4
:1016600009F489C08B01EC01C48CD58CE68CF78C15
:10167000808C918CA28CB38C06DB681979098A095D
:101680009B096C157D058E059F05B0F360E08BA16D
:1016900030DF60E08CA12DDF60E08DA12ADF60E00B
:1016A0008EA127DF61E00130110509F060E088A11B
:1016B000D5DD61E089A1D2DD61E08AA1CFDDF6E070
:1016C000FA95F1F700C08BA1AEDD10E1813009F091
:1016D00010E08CA1A8DD813009F410628DA1A3DD9A
:1016E000813009F410648EA19EDD813009F4106808
:1016F00060E08AA1B3DD86E08A95F1F700C061E081
:101700008AA1ACDDE6E0EA95F1F700C08BA18BDDA4
:10171000813009F411608CA186DD813009F41260FA
:101720008DA181DD813009F414608EA17CDD8130D2
:1017300009F4186060E08AA191DD61E08BA1D9DE37
:1017400061E08CA1D6DE61E08DA1D3DE61E08EA1E7
:10175000D0DE60E089A182DD812F90E0DF91CF9122
:101760001F910F91FF90EF90DF90CF90BF90AF90BF
:101770009F908F9008958DEF9FEFF0CF0F931F9361
:10178000CF93DF93EC0161E088A1B3DE89A18F3FA5
:1017900029F061E0AEDE60E089A160DD61E08AA150
:1017A000A8DE60E08AA15ADD61E08BA1A2DE61E0E3
:1017B0008CA19FDE61E08DA19CDE61E08EA199DEAF
:1017C0001FA11F3F19F188A58130E9F460E0812F46
:1017D00045DD60E0812F8DDE61E0812F8ADE61E0F2
:1017E000812F3CDD81E28A95F1F70000812F1BDD1E
:1017F000082F60E0812F32DD60E0812F7ADE01303A
:1018000011F08EEF88A761E08FA173DE90E080E099
:10181000DF91CF911F910F910895EF92FF920F9357
:101820001F93CF93DF93D82F8B01893208F041C0EB
:10183000E82EF12CF701E958FF4BC081CF3FC9F1E9
:1018400061E057DEF701E55FFF4BE081E03809F426
:10185000E8C00115110549F460E08D2FDF91CF91AB
:101860001F910F91FF90EF90F9CC0F3F110511F4EC
:1018700061E0F3CFC03408F0D8C0D701A056BF4B09
:101880009C918091E605282F277029131EC0E0E067
:10189000C53010F0CC0FE1E08C2F847489F0EC5F40
:1018A000F0E0E85DF54F00838091010AC82BC093FA
:1018B000010ADF91CF911F910F91FF90EF90089552
:1018C0008C2F827269F3EE5FEBCF88719630A9F4AA
:1018D0008831B9F4E0E0C53010F0CC0FE1E08C2F96
:1018E0008474D9F0EC5FF0E0E859F54F0083809103
:1018F000410AC82BC093410ADCCF913011F48823F0
:1019000049F3E03439F170F480EE8E0F853090F0B9
:10191000003811050CF0ACCF9FCF8C2F827219F3D9
:10192000EE5FE1CFE038A1F70093A30681E4809356
:10193000A006BFCF30E1E39FF0011124F75F818162
:101940008770873029F78485848705878181806146
:101950008183AFCF0115110519F00F3F110511F06B
:1019600020E003C021E010E000E08FEF90E0801B5A
:10197000910B3091AE0B3091AF0B332329F0333004
:1019800008F03CC0880F991FF701E056FF4BE0813B
:1019900030E2E39FF0011124FC5FD701AC5CBF4B48
:1019A0003C913F3F81F17096E30FF11D3FB7F894F2
:1019B00001974C2F4A7A51F18093AC0B9093AD0B69
:1019C0008091920B8C2339F59091800B892F8E7F1B
:1019D0008093800B80918E0B80FFFCCF8091920BC7
:1019E000C82B88ED84BFC093920B9093800B8081AD
:1019F000211115C08F7780833FBF5BCF880F991F60
:101A0000880F991FC1CFF0E0E0E0D0CF8093A80B02
:101A10009093A90BD5CF81E08093840BE8CF8068A9
:101A2000EACFC03408F429CF7FCFE03208F470CF7A
:101A3000E53208F47FCFE03409F492CF69CFFC019E
:101A400087A18F3F59F190A59E3F49F4662329F065
:101A500060E04FDD90E080E0089561E0FACF2AED8C
:101A6000280F223020F02CEF280F203160F470E096
:101A7000913011F4D2DEEECF2FEF30E0A901461BFA
:101A8000570BBA01F7CF662329F0913029F461E0B2
:101A9000E5DBE0CF9923D9F360E0FACF8DEF9FEF3C
:101AA00008958F929F92AF92BF92CF92DF92EF9262
:101AB000FF924B015C0182169306A406B5069CF4C6
:101AC00069017A01C818D908EA08FB0841F00E94A8
:101AD000A41FA70196010E9401206B017C018C0CC0
:101AE0009D1CAE1CBF1CC501B401FF90EF90DF90A0
:101AF000CF90BF90AF909F908F900895CF92DF923C
:101B0000EF92FF920F931F93CF93DF9320DAE82F8A
:101B1000F0E0E154F64FC4913BDA8C0121DA800FFA
:101B2000911FC89F6001C99FD00C112410E000E0F4
:101B3000D0E0C0E00D2C000CEE08FF08A7019601D4
:101B400060E070E0CB01ADDFCB01F801F595E795E2
:101B5000E355FE4B60839E0135952795F901EE0F05
:101B6000FF1FE20FF31FE155FE4BC0FF18C024E03A
:101B7000969587952A95E1F7807F908189238083C8
:101B800021960D5F1F4FC83CD105C1F6DF91CF9163
:101B90001F910F91FF90EF90DF90CF900895708389
:101BA000EFCFFB0101900020E9F73197AF01461B11
:101BB000570BDC01ED91FC910280F381E02D09943B
:101BC0008F929F92AF92BF92EF92FF920F931F93CB
:101BD000CF93DF93CDB7DEB7A197CDBFDEBF7C013A
:101BE000FA01CB0119A2223008F42AE08E010F5D20
:101BF0001F4F822E912CB12CA12CBF01A501940165
:101C00000E942D20F901CA016A30ECF4605DD80110
:101C10006E938D01232B242B252B79F790E080E008
:101C2000109719F0BD01C701BCDFA196CDBFDEBF83
:101C3000DF91CF911F910F91FF90EF90BF90AF90E8
:101C40009F908F900895695CE2CF4F925F926F9260
:101C50007F928F929F92AF92BF92CF92DF92EF923C
:101C6000FF920F931F93CF936B017C01742EAC01F5
:101C70009B010E94742265EF70E4811126C0460129
:101C80005701E894B7F82FEF3FEF4FE75FE7C50143
:101C9000B4010E94742281110CC02FEF3FEF4FE777
:101CA0005FE7C501B4010E94C32069EF70E4181614
:101CB00064F02FEF3FEF4FE75FE4C701B6010E94EA
:101CC0000D221816A4F46DEF70E483E294E4CF9132
:101CD0001F910F91FF90EF90DF90CF90BF90AF904A
:101CE0009F908F907F906F905F904F905ACF2FEF83
:101CF0003FEF4FE75FECC701B6010E94C32087FDAD
:101D0000E2CF20E030E0A901C701B6010E94C32064
:101D100010E000E087FF0AC06DE283E294E40E94D5
:101D200011058C01F7FAF094F7F8F094C0E060E048
:101D300070E080E09FE37C1641F020E030E040E27C
:101D400051E40E94C720CF5FF6CFA70196010E9401
:101D50005F202B013C010E942F214B015C012AE0F6
:101D6000BC01A40183E294E42BDF7C01E00EF11EB0
:101D7000CC23C9F1C501B4010E945B219B01AC01D8
:101D8000C301B2010E945E204B015C0161E071E47D
:101D900083E294E406DFE80EF91EC15020F120E052
:101DA00030E040E251E4C501B4010E9411222B0150
:101DB0003C010E942F214B01B12CA12C2AE0B5013E
:101DC000A40183E294E4FCDEE80EF91EC501B4012F
:101DD0000E945B219B01AC01C301B2010E945E2005
:101DE0004B015C01DACFC701CF911F910F91FF909A
:101DF000EF90DF90CF90BF90AF909F908F907F90AB
:101E00006F905F904F9008952F923F924F925F9204
:101E10006F927F928F929F92AF92BF92CF92DF92FA
:101E2000EF92FF920F931F93CF93DF93CDB7DEB75F
:101E30002A97CDBFDEBF1C016D837E834F835887F9
:101E400028013901A5D85C018BD86C0180D8898321
:101E500080911944843009F070C082E090E08B5F7B
:101E60009B4BFC018081882309F46AC080E090E0EC
:101E7000DC01F9812F2F30E0A9014154564F7A013E
:101E8000FA014491BC01CD01640D751D861D971D9D
:101E900085010C0D1D1D409F9001419F300D1124A7
:101EA00050E040E00E942D20980150E040E00E9468
:101EB0002D20A22FB0E04981E8E14E9FA00111241E
:101EC00049875A87FA0153E0259FE00DF11D11243F
:101ED0008F010D5C1A4FAF014C5C5A4F49835A83F6
:101EE000AF014B5C5A4F4B835C836A157B0568F5E9
:101EF000F8010491F1010083E981FA811491ED81E7
:101F0000FE811083FA016491EF81F88560832A963F
:101F1000CDBFDEBFDF91CF911F910F91FF90EF906A
:101F2000DF90CF90BF90AF909F908F907F906F90F9
:101F30005F904F903F902F90089583E090E08FCF77
:101F400088EC90E0A0E0B0E094CFAB014A195B09C7
:101F5000F701E490CD010196BB24B394B20EE816CC
:101F6000190609F00CF4B12CBA0190E080E00E944F
:101F70005B212B013C01B60190E080E00E945B21D7
:101F80009B01AC01C301B2010E94C7206B017C011F
:101F900025EC30E240E85FE30E940D2218169CF425
:101FA00069E175E083E294E40E94180542E0C7010C
:101FB000B6014BDE63E071E483E294E4F2DD83E298
:101FC00094E40E942D0629853A8543E0B49E200DB5
:101FD000311D112429873A87F901ED5CFA4F74907D
:101FE000F8010491A701960160E070E080E89FE3AA
:101FF0000E945E204B015C01672D70E090E080E064
:102000000E945D21A70196010E94112220E030E08C
:1020100040E05FE30E945F202B013C01602F70E0F5
:1020200090E080E00E945D21A50194010E941122B0
:102030009B01AC01C301B2010E945F200E942F21CD
:10204000F1016083E985FA85EC5CFA4F6491E981DE
:10205000FA81149170E090E080E00E945D21A70178
:1020600096010E94112220E030E040E05FE30E94F0
:102070005F202B013C01612F70E090E080E00E9426
:102080005D21A50194010E9411229B01AC01C301B5
:10209000B2010E945F200E942F21ED81FE816083AA
:1020A00029853A852B5C3A4FF901F491F983EB814C
:1020B000FC81F491FB832981622F70E090E080E045
:1020C0000E945D21A70196010E94112220E030E0CC
:1020D00040E05FE30E945F206B017C013B81632F46
:1020E00070E090E080E00E945D21A50194010E94D3
:1020F00011229B01AC01C701B6010E945F200E9422
:102100002F2102CF0F931F93CF93DF9300D01F9205
:10211000CDB7DEB700910D4410910E4420910F44CD
:1021200030911044AE014D5F5F4FBE016E5F7F4F37
:10213000CE01019669DE80911944843091F083E0EC
:1021400090E08B5F9B4BFC0120814B816A818981F0
:102150000FD82396CDBFDEBFDF91CF911F910F9196
:10216000089582E090E0EDCF8F929F92AF92BF9260
:10217000CF92DF92EF92FF920F931F93CF93DF9353
:1021800009ED12E4D0E0C0E00E94B007C817D907FB
:1021900008F041C00E94B0077C01BE0190E080E0E1
:1021A0000E945B214B015C01B70190E080E00E943E
:1021B0005B219B01AC01C501B4010E94C7206B01EA
:1021C0007C0125EC30E240E85FE30E940D22181606
:1021D0009CF46FED74E083E294E40E94180542E001
:1021E000C701B60132DD63E071E483E294E4D9DC37
:1021F00083E294E40E942D0620E030E84FE753E4A8
:10220000C701B6010E9411220E942F21F80161939B
:102210008F012196B9CFDF91CF911F910F91FF9040
:10222000EF90DF90CF90BF90AF909F908F900895E8
:102230000E94A42280914441853050F00E94B20651
:1022400060931E4470931F448093204490932144D4
:1022500010924441EDE4F1E480E2DF011D928A95A1
:10226000E9F71092754181E08093350B0895AF92A4
:10227000BF92CF92DF92EF92FF920F931F93CF9373
:10228000DF938093194488E592E0EDEAF1E4DF0101
:102290009C011D9221503040E1F7EEEBF4E4DF01A8
:1022A0009C011D9221503040E1F785E0A82E84E486
:1022B000B82E01E114E4D0E0C0E08091194438E088
:1022C000839FC00111248C0F9D1FFC01E957FB4F18
:1022D00024912F3F09F066C0FC01E55CF94FE491C1
:1022E000CE2ED12CF12CE12CC114D104E104F10447
:1022F00039F00E94A41FA70196010E9401206B01E2
:10230000FE01EF5EFB4BC08280911944B8E08B9FC9
:10231000C00111248C0F9D1FFC01E957FB4FE49174
:10232000EF3F09F043C0FC01E95DF64FE491CE2E8A
:10233000D12CF12CE12CC114D104E104F10439F0C9
:102340000E94A41FA70196010E9401206B01FE01BB
:10235000EB5FFB4BC0822196BFEFAB1ABB0A0F5F4E
:102360001F4FC830D10509F0A8CF809119448A3099
:1023700011F4FADEC3DB10920D4410920E44109259
:102380000F441092104410929F4110929E41DF9191
:10239000CF911F910F91FF90EF90DF90CF90BF9062
:1023A000AF900895E491D801EC93AECFFC01E15DCC
:1023B000FB4FE491D501EC93CECF1F920F920FB655
:1023C0000F9211240BB60F922F933F934F935F936D
:1023D0006F937F938F939F93AF93BF93EF93FF93ED
:1023E00083E294E40E94BF05FF91EF91BF91AF910A
:1023F0009F918F917F916F915F914F913F912F911D
:102400000F900BBE0F900FBE0F901F9018951F924C
:102410000F920FB60F9211240BB60F922F938F933A
:102420009F93EF93FF93E0912F44F091304481818B
:1024300081FD1DC0908180913A448F5F8F73209100
:102440003B44821741F0E0913A44F0E0ED5DFB4BF4
:10245000938F80933A44FF91EF919F918F912F91A9
:102460000F900BBE0F900FBE0F901F90189580819C
:10247000F2CF1F920F920FB60F9211248F939F935A
:10248000AF93BF938091494190914A41A0914B41B4
:10249000B0914C410196A11DB11D8093494190938B
:1024A0004A41A0934B41B0934C4181E08093260B6D
:1024B000BF91AF919F918F910F900FBE0F901F9082
:1024C00018951F920F920FB60F9211240BB60F9210
:1024D0002F933F934F935F936F937F938F939F932C
:1024E000AF93BF93EF93FF9340913C0B50913D0B03
:1024F00086B3282F287083FD2AC081E48093340B93
:102500008091454190914641BA01681B790BCB01FE
:1025100070E060E0409345415093464160934741ED
:1025200070934841222381F120912244222389F093
:102530008D3D9540B0F01092224410924441EDE45C
:10254000F1E480E2DF011D928A95E9F70AC081E596
:10255000D5CF88519141813E944018F481E0809319
:102560002244FF91EF91BF91AF919F918F917F9105
:102570006F915F914F913F912F910F900BBE0F90F4
:102580000FBE0F901F90189520912244222349F3EB
:102590009C012B5F3109243D3240D8F580914341A5
:1025A000880F80934341809144418770873009F5BB
:1025B00080914341E0914441F0E093E0F595E79547
:1025C0009A95E1F7E35BFE4B80838091444187302D
:1025D00071F480914341829586958695837021F1AF
:1025E000813021F1823021F18FEF809302401092EF
:1025F000434190914441809102409817D8F0109245
:1026000044411092224481E0809375411092350B31
:10261000A8CF82509440843D924008F08CCF8091A6
:102620004341880F8F5FBDCF8FE1DFCF8FE3DDCFD9
:102630008FE7DBCF809144418F5F8093444191CFFE
:102640001F920F920FB60F9211240BB60F922F9379
:102650003F934F935F938F939F93EF93FF9390914B
:102660000040892F880F880F9AB1E92FEF70E69507
:10267000E69520910140220F220FE22BE0930140CA
:102680009370982B90930040EF70F0E0ED56F94F67
:102690008491E09142418E0F809342419F70E92FD7
:1026A000F0E0ED56F94F9491E09141419E0F9093E7
:1026B000414184300CF481C0E0919F41F0E0EF5E35
:1026C000FB4B208180911944E0919F4138E0839F2A
:1026D000A0011124E40FF52FF11DE55CF94FE49101
:1026E0002E1740F4E0919F41F0E0EF5EFB4B20811C
:1026F0002F5F20838150853010F580919F41863077
:10270000F0F480919F4180FD1AC0E0919F41F0E07C
:10271000EF5EFB4B2081E0919F41F0E0EE5EFB4BD2
:102720008081821760F4E0919F41F0E0EF5EFB4B07
:102730008081E0919F41F0E0EE5EFB4B80838091D1
:1027400006408160809306401092424194300CF420
:1027500072C0E0919E41F0E0EB5FFB4B2081E09185
:102760009E418091194438E0839FC0011124E80FF5
:10277000F92FF11DE95DF64FE4912E1740F4E09139
:102780009E41F0E0EB5FFB4B80818F5F8083809107
:10279000064081608093064010924141FF91EF9185
:1027A0009F918F915F914F913F912F910F900BBE11
:1027B0000F900FBE0F901F9018958D3F3CF6E09143
:1027C0009F41F0E0EF5EFB4B8081882341F0E09178
:1027D0009F41F0E0EF5EFB4B8081815080838091D0
:1027E00019448150823008F0AACF80919F418630F1
:1027F00008F0A5CF80919F4180FFA1CFE0919F413C
:10280000F0E0EF5EFB4B2081E0919F41E150FF0B38
:10281000EF5EFB4B8081281708F091CFE0919F413C
:10282000F0E0EF5EFB4B8081E0919F41E150FF0BB8
:10283000EF5EFB4B83CF9D3F0CF0B0CFE0919E410C
:10284000F0E0EB5FFB4B8081882309F4A0CFE0919F
:102850009E41F0E0EB5FFB4B8081815097CF0F935F
:102860001F93CF93DF93E3E2F4E41282138288EEA6
:1028700093E0A0E0B0E084839583A683B78381E6EC
:1028800090E48083918380E098E08487958706E1D7
:10289000068711E01787108A118A85E0828B84E011
:1028A000838B148B158A168A178A108E118E128EBE
:1028B000C9E2D7E41A821B828DEC90E48883998365
:1028C0001F82188680ED97E0A0E0B0E0888B998B9E
:1028D000AA8BBB8B86E290E0A0E0B0E08C8B9D8B56
:1028E000AE8BBF8B1C861D861E861F861B860E9494
:1028F0004306688F798F8A8F9B8F1C8E1D8E1E8E4C
:102900001F8E83EE90E4888399838AE188A38DE10A
:102910008AA38BE189A30BA387E18CA388E18DA314
:1029200089E18EA38FEF8FA388A7E6E1F7E41582F4
:102930008EEB94E486839783148615861686178615
:1029400013871087118682E0828788E592E0828370
:10295000938388EC90E08083918386E0848384E095
:1029600094E0808B918B80E4828BDF91CF911F91DB
:102970000F910895CF93DF93CDB7DEB76397CDBFA7
:10298000DEBF88ED90E284BF9093680021E0209341
:10299000030A8EEF8093260A8093270A9BE0909388
:1029A000000A32E03093E6052093430A8093660ADA
:1029B0008093670A9093400A9093E705E0E0FBE07C
:1029C00037E02EEF90E885E0318324879587808378
:1029D0007096E0344BE0F407B9F72FEF3FE0209317
:1029E000AA0B3093AB0B9093820B1092810B2DEFBF
:1029F00031E02093AE0B3093AF0B91E79093800BB7
:102A000094E0909302069EE09093050690E69093E2
:102A10000306809300068091B000887F85608093D4
:102A2000B0008091B200887F85608093B2008FE013
:102A300097E280932C0B90932D0B81E08093250BD4
:102A40001092210B83E08093200B789461E086E064
:102A50000E94790A62E08EE00E94790A62E08FE0CB
:102A60000E94790A62E08BE00E94790A62E080E1CC
:102A70000E94790A62E081E10E94790A62E08CE0BA
:102A80000E94790A62E08DE00E94790A8091C2007A
:102A9000811156C00E94B2064B015C0115E401E0B1
:102AA0008091C20081114CC00E94B2066819790958
:102AB0008A099B09613D77408105910508F440C072
:102AC0000E94B206681979098A099B09693E734018
:102AD0008105910528F366E071E483E294E461D80E
:102AE00063E071E483E294E45CD8109308060093F9
:102AF0000A0680910D0680FFFCCFC0901006D09092
:102B000011060D2C000CEE08FF082AE0B701A60103
:102B1000F7FE0DC06DE283E294E40E9411054427A4
:102B20005527BA014C195D096E097F092AE083E235
:102B300094E446D863E071E483E294E432D8B0CF01
:102B40008BB18BB989E080935004809351048093BA
:102B500052048093530481E08093384440E052EC67
:102B600061E070E083E294E40E9409096CE271E4A0
:102B700083E294E416D863E071E483E294E411D82C
:102B800062EB76E089E297E40E94180541E060E09C
:102B900089E297E40E94F90663EA76E089E297E425
:102BA0000E94180560ED77E080E090E00E948206C8
:102BB0000E94F5068FE090E00E94F91F8F3FE9F038
:102BC0008FE090E00E94F91F8093194410E000E02C
:102BD000C80140960E94F91FF801EF5EFB4B80830D
:102BE000C80148960E94F91FF801EB5FFB4B8083F8
:102BF0000F5F1F4F0830110559F7212C312C21018F
:102C00002A94B7E0CB2E12E0712E04E1602E809161
:102C10007541882309F4A3C140E080E090E0E42FEF
:102C2000F0E02091024030E0A3E035952795AA9589
:102C3000E1F7E217F3077CF4E35BFE4B2081922778
:102C40002081822728E037E0880F08F483272A951F
:102C5000D9F74F5FE4CF2091024030E073E0359523
:102C600027957A95E1F72330310591F52091504170
:102C7000392F3F7022952F70232792959F709227AE
:102C800020915041382F3F7022952F702327829535
:102C90008F708227981302C081E0890F20915041E4
:102CA0002F70921791F1909150419F70981769F190
:102CB000C1DA809122448111C1C00E94B206809184
:102CC0001E4490911F44A0912044B0912144B6C06D
:102CD000981302C081E0890FE0910240F0E063E0C8
:102CE000F595E7956A95E1F7E35BFE4B2081921736
:102CF00061F0E0910240F0E053E0F595E7955A95D8
:102D0000E1F7E35BFE4B9081D1CF80914D410E9472
:102D1000710700916D4110916E4120916F4130918A
:102D200070416017710782079307B9F48091714170
:102D300090917241A0917341B0917441892B8A2B7B
:102D40008B2B59F00E94B2066093714170937241CF
:102D50008093734190937441ABCF0E94710760934D
:102D60006D4170936E4180936F41909370410E94CA
:102D7000B206609371417093724180937341909356
:102D800074418091024080E2EDE4F1E4A6E7B1E411
:102D900001900D928A95E1F74DDA80917741843563
:102DA00009F04CC0809178418B3008F047C05FDA61
:102DB000809179418093114480917A4180931244AB
:102DC00080917B418093134480917C418093144493
:102DD00080917D418093154480917E41809316447B
:102DE00080917F4180930544809180418093064487
:102DF000809181418093074480918241809308446F
:102E000080918341809309448091844180930A4456
:102E10000E94F50640E060E089E297E40E94F9062E
:102E200065EC76E089E297E40E94180568EE73E0AD
:102E300080E090E00E948206C092064006B110E059
:102E400043E0159507954A95E1F7202F2770D22E7C
:102E500080910440281709F4ADC0209304400E94DB
:102E6000B20660939A4170939B4180939C419093EA
:102E70009D410E94B2060091A5411091A64120916A
:102E8000A7413091A841601B710B820B930B6838EE
:102E900073418105910568F48091A5419091A64107
:102EA000A091A741B091A841892B8A2B8B2B09F0C7
:102EB00081C1F89410910640109206407894111147
:102EC0009EC20E94B2068090A1419090A241A09023
:102ED000A341B090A441681979098A099B09613618
:102EE0007A4E8105910508F465C18091A041811158
:102EF00055C181E08093A0410E94B20660567A4E8F
:102F0000810991096093A1417093A2418093A341EB
:102F10009093A4410E94F5060E94A41F23E030E094
:102F200040E050E00E940120611125C240E060E0D5
:102F300089E297E40E94F90663E677E089E297E484
:102F40000E94180541E060E089E297E40E94F906DA
:102F500062E577E089E297E40E9418052BC10E94A0
:102F6000B2060091714110917241209173413091EC
:102F70007441011511052105310509F49ACE601B34
:102F8000710B820B930B693873418105910508F42D
:102F900090CE109271411092724110927341109232
:102FA000744110926D4110926E4110926F411092D7
:102FB00070417FCE0E94B20680909A4190909B41D2
:102FC000A0909C41B0909D41681979098A099B099C
:102FD000633371058105910508F44BCF809103405F
:102FE000D816D8F48091964190919741A09198413C
:102FF000B0919941892B8A2B8B2B61F400FD0AC07B
:103000000E94B206609396417093974180939841D5
:1030100090939941D09203402CCF00FF78C080FD5F
:1030200076C08090964190909741A0909841B09042
:10303000994181149104A104B10409F454C00E947F
:10304000B206681979098A099B09613177428105BD
:10305000910508F4EEC60E94F5063FE0E32EF12C40
:10306000EB82FC826FEFCE0103960E94F2084FEFD5
:10307000E41AF40A50E2E516F10491F710921944AB
:1030800090E080E0FC01EF5EFB4B1082FC01EB5F07
:10309000FB4B1082019688309105A1F710929F4159
:1030A00010929E4140E063E089E297E40E94F906B5
:1030B00068EE76E089E297E40E94180541E065E059
:1030C00089E297E40E94F90660EE76E089E297E4EF
:1030D0000E94180568EE73E080E090E00E9482068E
:1030E000C09206400CC0809119448A3008F442C056
:1030F00080E0BDD8809106408460809306401092A5
:10310000964110929741109298411092994102FF76
:1031100017C08091034082FD13C0E0911944F0E094
:10312000EE0FFF1FEA56F84FE49180919F418E17F2
:1031300048F110929F418091064082608093064042
:1031400001FF68CF8091034081FD64CFE091194475
:10315000F0E0EE0FFF1FE956F84FE49180919E4199
:103160008E17B0F010929E4180910640826080934D
:10317000064050CF813011F4709219448091194467
:103180008F5FB7CF80919F418F5F80939F41D3CF57
:1031900080919E418F5F80939E41E6CF0E94B20650
:1031A000681979098A099B09613C744D8140910530
:1031B00008F09FCE0E94B20600911A4410911B4461
:1031C00020911C4430911D44AB01BC01401B510BAC
:1031D000620B730B1091194480E5123070F01330BC
:1031E00009F04EC2EFE3F9E0849190910544891B08
:1031F0009AE0899F802D1124825E90E0B0E0A0E0EB
:1032000084179507A607B70708F001CD0E94B206FC
:1032100060931A4470931B4480931C4490931D4404
:10322000A99A11113BC20EEB14E4D12CC12C53E02E
:10323000E52EF12CC601B7010E948722FC01EF5E4A
:10324000FB4B80810E94D908F80181938F01FFEF29
:10325000CF1ADF0A28E5C21622E0D20659F780917C
:103260000D4490910E44A0910F44B09110440196EA
:10327000A11DB11D80930D4490930E44A0930F4463
:10328000B0931044A998A89A80911C4790911D472B
:10329000892B09F46EC080911A4789320CF069C0FD
:1032A0000E94430600912247109123472091244712
:1032B00030912547601B710B820B930B62337105B4
:1032C0008105910568F3F89480911847909119470A
:1032D00089839A83E0911C47F0911D47DF01119685
:1032E00080818987E0912647F091274790818091DE
:1032F0002847982B98879081809589238F838F8189
:103300008E8388E08D8358856F8149853D812E812C
:1033100089819A81508347FD252F3A95000000C08E
:103320002083262F49F0441F00C000C060830000A6
:1033300000C000C000C0EECF38E04D9100006083B7
:10334000000000C000C0019729F7E0932647F093E2
:10335000274749873D832E8389839A8378940E94E7
:1033600043066093224770932347809324479093AA
:103370002547A89846CC40E06130E9F460E089E256
:1033800097E40E94F90661E477E089E297E40E94FD
:10339000180541E060E089E297E40E94F90662E3E3
:1033A00077E089E297E40E9418056FE789E297E4E5
:1033B0000E941F07FFCE62E089E297E40E94F906AF
:1033C00065E277E089E297E40E94180541E060E059
:1033D00089E297E40E94F906B7D522E030E040E0A8
:1033E00050E00FD6611103C064E177E0B3CD6130E6
:1033F00019F463E077E0AECD63EF76E0ABCD80917A
:10340000A04181110E94F50610FF0DC08091194462
:103410008A3049F40E94A7079091054089130E94C1
:103420007E0D0E94B410809119448A3051F40E949C
:10343000A70790910540891721F00E94A707809364
:1034400005400E94B2066093A1417093A24180930F
:10345000A3419093A441812F867029F48091A041CB
:10346000882309F438C040E060E089E297E40E94D4
:10347000F90680911944873008F058C0E0919F41C7
:1034800048E0849FC0011124E80FF92FF11DEE0FD1
:10349000FF1FE958F74F6591749189E297E40E9404
:1034A000180560E289E297E40E941105E0919E41CF
:1034B0008091194458E0859FC0011124E80FF92F2D
:1034C000F11DEE0FFF1FEF54F84F6591749189E2E3
:1034D00097E40E941805177029F48091A041882371
:1034E00009F492C0E0911944E73040F140E060E017
:1034F00089E297E40E94F906E0911144F0E0EE0FB2
:10350000FF1FEF59F74F6591749189E297E40E948C
:10351000180541E060E089E297E40E94F9066CEA50
:1035200077E089E297E40E94180535C0E0911144E4
:10353000F0E0EE0FFF1FEF59F74FADCFF0E0EE0FC9
:10354000FF1FEA56F84FE49141E060E089E297E41A
:10355000EF3F09F45CC00E94F906E0919F41F0E062
:10356000EF5EFB4B80810E94D908182F482F50E056
:1035700070E060E02AE089E297E40E94E00D60E2FA
:1035800089E297E40E9411051A3028F460E289E28A
:1035900097E40E94110541E064E089E297E40E940B
:1035A000F906E0911944F0E0EE0FFF1FE558F84FDF
:1035B0006591749189E297E40E94180541E06DE0FD
:1035C00089E297E40E94F906E0919E4180911944B6
:1035D00068E0869FC0011124E80FF92FF11DE95D15
:1035E000F64FE491E130C1F4E0919E41F0E0EB5FF1
:1035F000FB4B808167E777E0811102C063E777E0EA
:1036000089E297E40E9418051092A041D3CD0E9450
:10361000F90661E977E085CFE0919E41F0E0EB5F4C
:10362000FB4B1081143660F460E289E297E40E945B
:1036300011051A3028F460E289E297E40E9411052E
:10364000E0919E4180911944F8E08F9FC0011124C0
:10365000E80FF92FF11DE95DF64FE491EE2351F0EB
:10366000412F50E070E060E02AE089E297E40E9498
:10367000E00DCACF60E289E297E40E941105C4CF51
:1036800028E0129FF0011124E95DF64F849190919A
:103690000544891B869D802D1124AECD113009F083
:1036A00075C0009105448AE0089F002D1124005F39
:1036B000802E8094912C802F869590E0A401480F55
:1036C000591F4E875F8710E0F801E81BF90BE88B64
:1036D000F98B4EEBE42E44E4F42EB12CA12CC50161
:1036E00063E070E014D7782E770C2ED4A2019101FC
:1036F00088D4C62ED12CF7016080F0E2F615A0F434
:103700008C149D04ECF4E72DF0E0EE5EFB4B808121
:103710000E94D908F7019081681670F48FE7890F2D
:103720008D3710F19F5F21C02E853F852C153D05FB
:1037300054F38889998905C0692EF0E2F917C8F712
:10374000C801C816D9069CF4E72DF0E0EF5EFB4BEC
:1037500080810E94D908861550F4F7018081813854
:1037600098F08250808303C09E5FF7019083FFEF43
:10377000AF1ABF0A2FEFE21AF20A38E5A31632E0B9
:10378000B30609F0ACCF6BCD8150ECCF133009F00C
:1037900021C13DEAE32E31E4F32E0EEB14E4F701F0
:1037A000808190E09C013595279535952795F22FDE
:1037B000FF716F2EF70141819C0173E0220F331FCF
:1037C0007A95E1F72071942E92949694A7E09A222C
:1037D000922A4F71742E2281822E8294869486942E
:1037E000B3E08B2283942F73A22E880F892F881F1A
:1037F000990BB82E262D240F3327331FC901890DAD
:10380000911D892B09F08FC080910544E0911944E6
:1038100038E0E39FF0011124E85DF64FE49190E079
:103820000296880F991F880F991FE89F9001E99FC2
:10383000300D1124032E000C440B550B60E070E09A
:10384000CB010E94510D2091064430E050E040E051
:10385000621773078407950784F5209112446091DD
:10386000114430E050E040E070E090E080E00E94E1
:10387000510D662E209114446091134430E050E0C5
:1038800040E070E090E080E00E94510D962E209183
:1038900016446091154430E050E040E070E090E064
:1038A00080E00E94510D762E4FD323E030E040E0BF
:1038B00050E0A7D3862EB12CA12CF80110821182E2
:1038C0001282492D50E020E8B29EC001112464E02C
:1038D000669E90011124822B9A0193E035952795DD
:1038E0009A95E1F7822BF701808325E0440F551F5D
:1038F0002A95E1F7742A7182282D2150330B490152
:1039000036E0880C991C3A95E1F7A828A28233E0AA
:10391000E30EF11C0D5F1F4F45E054E44E155F05AB
:1039200009F03DCF9CCC282D30E050E040E0609184
:103930000D4470910E4480910F44909110448DD3AA
:10394000672B682B692B09F0BCCFBB2059F0A11065
:1039500009C0F801108211821282B12C712C912CB5
:10396000612CAFCFEA2DF0E0E158F64FC490862DE0
:103970000E94D908D12C282F30E0D60190D3A20183
:1039800091013FD3F8012083892D0E94D908960127
:10399000A82FB0E084D3A201910133D3F801218391
:1039A000872D0E94D9089601A82FB0E078D3A201F4
:1039B000910127D3F8012283BB2011F0AA9481CF73
:1039C000FFE3AF1611F0A3947CCFBB24B3944EE376
:1039D000A42E77CF143019F40E94821040CC1530F9
:1039E00009F05DC0809106442DE030E0281B3109CC
:1039F000032E000C440B550B60910D4470910E4446
:103A000080910F449091104428D340E0F12C00E0C5
:103A1000672B682B692BE1F5809112440E94D9082D
:103A2000182F809111440E94D908212F30E050E0D6
:103A300040E0682F70E090E080E00E94510D062F7A
:103A4000809114440E94D908182F809113440E9439
:103A5000D908212F30E050E040E0682F70E090E07E
:103A600080E00E94510DF62E809116440E94D908E4
:103A7000182F809115440E94D908212F30E050E082
:103A800040E0682F70E090E080E00E94510D462FEA
:103A9000209107446F2D802F0E94B808E0CB16308C
:103AA00009F07FC08091A94187FF73C0982F9F7351
:103AB0008150911171C01092A941E091A941EF7319
:103AC000F0E0E158F64FC490809114440E94D90868
:103AD000182F809111440E94D908882E912CB12C66
:103AE000A12CD12CF12CE12C212F30E050E040E032
:103AF000281939094A095B09C701B601F9D4A2019D
:103B000091017FD2022F080D809115440E94D9089F
:103B1000182F809112440E94D908882E912CB12C24
:103B2000A12C212F30E050E040E0281939094A0942
:103B30005B09C701B601DCD4A201910162D2722EE9
:103B4000780C809116440E94D908182F8091134454
:103B50000E94D908882E912CB12CA12C212F30E065
:103B600050E040E0281939094A095B09C701B6014C
:103B7000BFD4A201910145D2820EEEEBF4E486E1BE
:103B800097E400837182828233968E179F07C9F76C
:103B900066CB8F3320F08FEB8093A9418ECF8F5F60
:103BA000FBCF173009F418CF183009F04BC08091C3
:103BB00006442DE030E0281B3109032E000C440B95
:103BC000550B60910D4470910E4480910F4490917B
:103BD000104443D2672B682B692B69F50E94A70715
:103BE000E82FF0E0E154F64FF4900E94B0078C010A
:103BF0000E94C807800F911FF89E9001F99E300D1A
:103C0000112450E040E060E070E0CB010E94510DD3
:103C10008B019C014AEA51E46BEA71E48CEA91E47D
:103C20000E94040F209107444091AA416091AB414A
:103C30008091AC4131CF1092AC411092AB411092C7
:103C4000AA41F0CF193009F500910D4410910E44AE
:103C500020910F4430911044AE014D5F5F4FBE0183
:103C6000665F7F4FCE010B960E94040F2B813A8531
:103C70004B85EEEBF4E486E197E4408331832283C5
:103C800033968E179F07C9F7EACA1A3009F0CDC0DC
:103C900090900544919E102D1124A0E19A2E910E32
:103CA000892C80940E94A707E82FF0E0E154F64F9A
:103CB000F4900E94C8078C010E94B007800F911FEA
:103CC000F89E5001F99EB00C1124BEEBCB2EB4E44B
:103CD000DB2E712C612C882D90E08E879F87E92D3B
:103CE000F0E0E88BF98B30D12FEF3FEF40E050E070
:103CF00088D1C6018E5B944495958795930135953F
:103D00002795F901EE0FFF1FE20FF31F9F012155C9
:103D10003E4B2A8B3B8BF901E080F12C1E2D0027B6
:103D200000271F70DC01A355BE4B2C91020F111D03
:103D3000F4E0EE0CFF1CFA95E1F7EE24FFE0FF2221
:103D400082559E4BFC012081E20EF11C861608F084
:103D50004AC00F5F1F4FA016B10608F44FC07C8702
:103D60001D862C853D854E855F854217530708F0DB
:103D700048C05FEFE51AF50AAE14BF0408F452C05C
:103D80000C93FC01E082812F807F970194E03695AF
:103D900027959A95E1F78223EA89FB89808330E0B1
:103DA00020E0A6014E5F5F4FB6016F5F7F4FC601F7
:103DB0000E94D907870130E020E0A6014B5F5F4FEA
:103DC000B6016C5F7F4FC60103960E94D907F2E0EF
:103DD0006F0E711C26E0C20ED11C38EC6316710404
:103DE00009F081CF3CCA691508F0B9CF015011091B
:103DF000A016B10608F0B3CF8501B1CF10E000E006
:103E0000AECFEC85FD8528893989E217F30708F0E4
:103E1000B7CF31E0E31AF108AE14BF0408F0B0CF19
:103E20007501AECFF12CE12CABCF80E00E943711B1
:103E300016CA0E94B206681979098A099B09693B6A
:103E40007B408105910508F44EC9609119448FE0CB
:103E500090E08B839C83CE0103960E94F208F12CA4
:103E6000E12CF701EF5EFB4B6081C70140968B832D
:103E70009C83CE0103960E94F208F701EB5FFB4B97
:103E80006081C70148968B839C83CE0103960E9474
:103E9000F2089FEFE91AF90AE8E0EE16F10409F7D3
:103EA0000E94F50640E063E089E297E40E94F9068B
:103EB00065ED76E00BC98F929F92AF92BF92CF9241
:103EC000DF92EF92FF92CF93DF93EC0168817981CB
:103ED0008A819B81611571058105910521F464E258
:103EE00079ED8BE597E02DE133EF41E050E089D0AB
:103EF00049015A019B01AC01A7EAB1E49ED06B01D4
:103F00007C01ACEEB4EFA5019401A3D0C60ED71E80
:103F1000E81EF91EF7FE06C081E0C81AD108E108C4
:103F200080E8F80AC882D982EA82FB82C701B6011A
:103F30009F77DF91CF91FF90EF90DF90CF90BF9070
:103F4000AF909F908F9008958F929F92AF92BF9263
:103F5000CF92DF92EF92FF926091074070910840FC
:103F60008091094090910A40611571058105910584
:103F700021F464E279ED8BE597E02DE133EF41E048
:103F800050E03FD049015A019B01AC01A7EAB1E4DE
:103F900054D06B017C01ACEEB4EFA501940159D073
:103FA000C60ED71EE81EF91EF7FE06C081E0C81A2D
:103FB000D108E10880E8F80AC0920740D092084092
:103FC000E0920940F0920A40C701B6019F77FF9046
:103FD000EF90DF90CF90BF90AF909F908F9008951B
:103FE00060930740709308408093094090930A4083
:103FF000089503D0808199270895FC01E050FC4E7C
:104000000895052E97FB16F400940FD057FD05D0A8
:1040100024D007FC02D046F408C050954095309556
:1040200021953F4F4F4F5F4F089590958095709524
:1040300061957F4F8F4F9F4F089531D0A59F900D71
:10404000B49F900DA49F800D911D11240895B7FF7A
:10405000F4CFF3DF821B930B0895A1E21A2EAA1B63
:10406000BB1BFD010DC0AA1FBB1FEE1FFF1FA21728
:10407000B307E407F50720F0A21BB30BE40BF50B25
:10408000661F771F881F991F1A9469F760957095AE
:10409000809590959B01AC01BD01CF010895A29F31
:1040A000B001B39FC001A39F700D811D1124911D0C
:1040B000B29F700D811D1124911D08955058BB278A
:1040C000AA270ED070C161D130F066D120F031F452
:1040D0009F3F11F41EF456C10EF4E095E7FB4CC16E
:1040E000E92F72D180F3BA17620773078407950727
:1040F00018F071F49EF58AC10EF4E0950B2EBA2FDC
:10410000A02D0B01B90190010C01CA01A0011124DD
:10411000FF27591B99F0593F50F4503E68F11A1689
:10412000F040A22F232F342F4427585FF3CF46951A
:1041300037952795A795F0405395C9F77EF41F163C
:10414000BA0B620B730B840BBAF09150A1F0FF0F06
:10415000BB1F661F771F881FC2F70EC0BA0F621FF2
:10416000731F841F48F4879577956795B795F795E2
:104170009E3F08F0B3CF9395880F08F09927EE0F74
:10418000979587950895D4D008F481E008950CD0D0
:104190000AC102D140F0F9D030F021F45F3F19F0AC
:1041A000EBC0511134C1EEC00FD198F39923C9F37C
:1041B0005523B1F3951B550BBB27AA27621773072D
:1041C000840738F09F5F5F4F220F331F441FAA1FE1
:1041D000A9F333D00E2E3AF0E0E830D091505040A1
:1041E000E695001CCAF729D0FE2F27D0660F771F4F
:1041F000881FBB1F261737074807AB07B0E809F031
:10420000BB0B802DBF01FF2793585F4F2AF09E3FC5
:10421000510568F0B1C0FBC05F3FECF3983EDCF3A2
:10422000869577956795B795F7959F5FC9F7880F3E
:10423000911D9695879597F90895E1E0660F771F90
:10424000881FBB1F621773078407BA0720F0621B21
:10425000730B840BBA0BEE1F88F7E0950895BCD062
:1042600088F09F5790F0B92F9927B751A0F0D1F05F
:10427000660F771F881F991F1AF0BA95C9F712C0E9
:10428000B13081F0C3D0B1E00895C0C0672F782F5E
:104290008827B85F39F0B93FCCF386957795679555
:1042A000B395D9F73EF490958095709561957F4FC1
:1042B0008F4F9F4F0895E89409C097FB3EF4909567
:1042C0008095709561957F4F8F4F9F4F9923A9F0EF
:1042D000F92F96E9BB279395F6958795779567957E
:1042E000B795F111F8CFFAF4BB0F11F460FF1BC0C2
:1042F0006F5F7F4F8F4F9F4F16C0882311F096E955
:1043000011C0772321F09EE8872F762F05C0662302
:1043100071F096E8862F70E060E02AF09A95660FBB
:10432000771F881FDAF7880F9695879597F9089574
:10433000990F0008550FAA0BE0E8FEEF16161706B6
:10434000E807F907C0F012161306E407F50798F01E
:10435000621B730B840B950B39F40A2661F0232B37
:10436000242B252B21F408950A2609F4A140A695B3
:104370008FEF811D811D089597F99F6780E870E098
:1043800060E008959FEF80EC089500240A941616CB
:10439000170618060906089500240A941216130633
:1043A000140605060895092E0394000C11F48823C1
:1043B00052F0BB0F40F4BF2B11F460FF04C06F5FDD
:1043C0007F4F8F4F9F4F089557FD9058440F551FB3
:1043D00059F05F3F71F04795880F97FB991F61F087
:1043E0009F3F79F087950895121613061406551FFE
:1043F000F2CF4695F1DF08C0161617061806991F6A
:10440000F1CF86957105610508940895E894BB275E
:1044100066277727CB0197F908958ADF08F48FEF95
:1044200008950BD0C0CFB1DF28F0B6DF18F0952388
:1044300009F0A2CFA7CF1124EACFC6DFA0F3959F42
:10444000D1F3950F50E0551F629FF001729FBB277B
:10445000F00DB11D639FAA27F00DB11DAA1F649F27
:104460006627B00DA11D661F829F2227B00DA11DDA
:10447000621F739FB00DA11D621F839FA00D611D60
:10448000221F749F3327A00D611D231F849F600D81
:10449000211D822F762F6A2F11249F5750408AF0BA
:1044A000E1F088234AF0EE0FFF1FBB1F661F771F46
:1044B000881F91505040A9F79E3F510570F05CCF86
:1044C000A6CF5F3FECF3983EDCF386957795679532
:1044D000B795F795E7959F5FC1F7FE2B880F911D64
:1044E0009695879597F9089523DF880B990B089582
:1044F000DB018F939F93A1DDBF91AF91A29F800DB0
:10450000911DA39F900DB29F900D11240895AA1B99
:10451000BB1B51E107C0AA1FBB1FA617B70710F0AE
:10452000A61BB70B881F991F5A95A9F780959095E0
:10453000BC01CD010895EE0FFF1F0024001C0BBE2F
:104540000790F691E02D099481E090E0F89400C086
:04455000F894FFCF0D
:1045540003031F0707FF07010000000000000040DD
:104564004040400000000000002223000000000042
:1045740000000000000000800000000000000000B7
:1045840000202100000102030405060700010203C4
:1045940004050001020304050607000102030405E3
:1045A40006070001020300010203040506000000DF
:1045B40000F9053C0569052D069A0578058C050961
:1045C40009B20AA605410601020408102040800130
:1045D4000204081020010204081020408001020493
:1045E4000810204080010204080102040810204041
:1045F40000000000000000000101010101010202AD
:10460400020202020202030303030303030304047A
:10461400040405050505050505000000001F073C09
:10462400056E0712096E076B071811680768070003
:104634000000001F073C056E071209BE0B210B1A70
:104644000A1F0D68076E616E00696E66006F7666FC
:10465400002E000D0A004D56494F206661696C65B5
:104664006420746F20696E697469616C697A653F4E
:10467400204E6F20564444494F323F0048692C2055
:0C468400492073746172746564210000A9
:0400000300000200F7
:00000001FF
