:10000000DBC300000CC400000AC4000008C40000E8
:1000100006C4000004C4000002C4000000C40000C4
:10002000FEC30000FCC30000FAC30000F8C30000D8
:10003000F6C30000F4C30000F2C30000F0C30000E8
:10004000EEC30000ECC30000EAC30000E8C30000F8
:10005000E6C300000C94A8130C9465130C948F1342
:10006000DEC30000DCC30000DAC30000D8C3000018
:10007000D6C30000D4C300000C94B4140C94D7135E
:10008000CEC30000CCC30000CAC30000C8C3000038
:10009000C6C30000C4C30000C2C30000C0C3000048
:1000A000BEC30000BCC30000BAC30000B8C3000058
:1000B0000C94FF13B4C30000B2C30000B0C300002F
:1000C000AEC30000ACC30000AAC30000A8C3000078
:1000D000A6C30000A4C30000A2C30000A0C3000088
:1000E0009EC300009CC300009AC3000098C3000098
:1000F00096C3000020445249465432200020464115
:1001000044453220200020444F5453322020002008
:1001100020574156452020002020464144452020BC
:10012000002020444F5453202000205241494E4289
:100130004F57002050554C534520200020434F4D31
:1001400045545320004452494654494E47002053D9
:100150004F4C4944202000204457454C4C2000205F
:100160004449524543540044454E53495459002094
:100170004C454E47544800204E554D4245520020B4
:1001800053504545442000535441544943200050A6
:100190005552504C45200050554D504B494E004A49
:1001A000554E474C452000202046495245200053DB
:1001B000455854494D45004C495A4152442000533A
:1001C000554E53455420002020434F4F4C200020D3
:1001D000205741524D20005241494E424F57002076
:1001E000202020202020004D415820424C55004D19
:1001F000494E20424C55004D41582047524E004D2B
:10020000494E2047524E004D415820524544004D22
:10021000494E20524544002020424C5545200020A4
:10022000475245454E2000202052454420200000E2
:100230000000000000000005000000000000000AAF
:100240000A05000000000005050000000000000590
:100250000A000000000000050A0000000000000580
:10026000000000000000000514020000000000056E
:100270000A000000000000050A020000000000055E
:100280000A020000000000FFFFFF00000000000065
:100290001F001F001F0000001F001F001F000000A4
:1002A0001F001F001F0000000000000000000000F1
:1002B0001F001F001F0000FFFFFFFFFFFF000000E7
:1002C000000000000000000000000000000000002E
:1002D00000000000000000000000000000000045D9
:1002E00052524F523A20726174696F206F757420B8
:1002F0006F662072616E67650000010203040608E4
:100300000B0E12161B21272E363F49545F6A75804B
:100310008B97A3B0BDCCDCEDFF4552524F523A2033
:10032000726174696F206F7574206F662072616EE0
:10033000676500FF000000FF000000FF00000000F4
:100340000000000000000000000000FF6020FF64CB
:1003500000F08028FF2000000000000000000000E6
:10036000000000FF00400040FF00D2A0A000A0005D
:100370000000000000000000000000FF5014FF64B7
:1003800000C41040A00040FF20000000000000005A
:1003900000000000FF0000801000200040A00000CE
:1003A0000000000000000000000000FF0010C4007A
:1003B00040FF1064FF00400000000000000000004B
:1003C000000000FF4000C42000DC4000FF100000DF
:1003D000000000000000000000000000FF0020FFFF
:1003E0000000FF2020FF20000000000000000000AF
:1003F000000000FF4000C42000DC400020FF00009F
:100400000000000000000000000000C00060C40008
:1004100040FF1064FF0040000000000000000000EA
:10042000000000A0A08CE4E4C880806E3C3C320058
:1004300000000000000000000000001F1F1F00005F
:100440000000001F1F1F1F1F1F00001F1F1F1F1F57
:100450001F00001F1F1F1F1F1F00000000000000C3
:100460000000001F1F1F1F1F1F00001F1F1F1F1F37
:100470001F00000A000000000000000A0000000049
:100480000000000A000000000000000A0000000058
:1004900000000000FF0100010000FFFF000001005C
:1004A00001FF004E6F7468696E6720776F726B731F
:1004B0002100576F61682049276D206F6E206120F1
:1004C000444221004D6F646520536176656400638A
:1004D0006C6561726564005361766564206D6F645C
:1004E000650041444A555354204C49474854494EAD
:1004F00047005455524E204D59204B4E4F425320E9
:100500003B2900555345204B4E4F425326425554EC
:10051000544F4E00504C41592057495448204D45A6
:10052000007265616C20706172747900546869733F
:10053000206973206E6F7420610041565231323849
:1005400044423438004C69676874205465737420E1
:1005500076322E310046574400524556004E014532
:10056000013C0133012A01210118010F010601FD9F
:1005700000F40020202020000200050005020501F3
:10058000FF02050205000003000200030002202014
:10059000202000DF0100000000000000000000003B
:1005A0000000007F01770100000000000000000053
:1005B0000000007F0177016F0100000000000000D3
:1005C0000000007F01670100000000000000000043
:1005D0000000007F016F015F0100000000000000CB
:1005E0000000007F0167015F0100000000000000C3
:1005F0000000007F0100000000000000000000007B
:100600000000007F016F0157015F01000000000042
:100610000000007F0167015F010000000000000092
:100620000000007F016F0157015F01000000000022
:100630000000007F016F0157010000000000000072
:10064000000000D701CF01C701BF01B701AF01A76B
:10065000019F0197018F01870127021F02170200E6
:100660000000000000000000000F020702FF01F779
:1006700001EF01E701000000000F020702FF01F790
:1006800001EF01E701000000000F020702FF01F780
:1006900001EF01E70100000000DF010000000000A1
:1006A0000000000000000000000F020702FF01F739
:1006B00001EF01E701000000000F02FF01EF010759
:1006C00002F701E70100000000DF01000000000068
:1006D000000000000000000000DF0100000000003A
:1006E000000000000000000000DF0100000000002A
:1006F000000000000000000000DF0100000000001A
:1007000000000000000000000000010203040506D4
:100710000708090A0C0E10121416181A1C1F22259D
:10072000282B2E3134373B3F43474B4F53575C61A7
:10073000666B70757A7F858B91979DA3A9AFB6BDC7
:10074000C4CBD2D9E0E7EFF7FF03040405040404A7
:100750000404040400000000000000000A0000007F
:10076000000000000A0A0A00000000000A1400004D
:10077000000000000A0A0100000000000A0C01004D
:10078000000000000A000000000000000A28140118
:10079000000000000A0C0100000000000A1414010F
:1007A000000000000A141400000000000000020114
:1007B000040603000300C41511241FBECFEFCDBFF4
:1007C000DFE7DEBF80914000811105C088ED91E038
:1007D00084BF9093410011E4A0E0B0E4EEE7F7E4B9
:1007E00000E00BBF02C007900D92AC34B107D9F7FF
:1007F0002EE4ACE4B1E401C01D92AE33B207E1F7E0
:1008000013E0CCEDD3E004C02197FE010E94B02399
:10081000CB3DD107C9F70E9445160C94BD23F0CB00
:10082000DC01ED91FC910190F081E02D0994EF92B3
:10083000FF920F931F93CF93DF938C017B01D0E046
:10084000C0E0F701EC0FFD1F6491662361F0D80151
:10085000ED91FC910190F081E02DC8010995892B63
:1008600011F02196EECFCE01DF91CF911F910F9124
:10087000FF90EF900895AF92BF92CF92DF92EF92E8
:10088000FF920F931F93CF93DF936C017B018B013A
:10089000040F151FEB015E01AE18BF08C017D1078A
:1008A00059F06991D601ED91FC910190F081E02D14
:1008B000C6010995892B79F7C501DF91CF911F9169
:1008C0000F91FF90EF90DF90CF90BF90AF90089581
:1008D000FC0155894689252F30E0842F90E0821B4A
:1008E000930B541710F0CF96089501970895FC01CB
:1008F00093898489981761F0A489AE0FBF2FB11D29
:1009000057968C9194899F5F9F73948B90E0089584
:100910008FEF9FEF0895FC0193898489981731F038
:100920008489E80FF11D878990E008958FEF9FEF8C
:100930000895FC0193892489892F90E0805C9F4F62
:10094000821B91098F7399270895CF93DF93EC0150
:10095000E881F9810680F781E02D0995EC85FD8518
:1009600086818F738683EC85FD8585818F71858374
:10097000EC85FD8580E484838C898B8B1A8ADF91DA
:10098000CF9108958F929F92AF92BF92EF92FF9274
:100990000F931F93CF93DF938C014A015B01790181
:1009A000DC0152968C91529780FF07C0ED91FC912B
:1009B0000288F389E02DC8010995DF2DCF2DC09560
:1009C000C07CB1EC8B16B6EC9B06BDE2AB06B10465
:1009D00008F4BCC0C26020E430E0D2FDC860D97029
:1009E000C7FDD0688C2F887CD3FF0CC04C2F407C77
:1009F000403C41F4D80152964C9152974260529635
:100A00004C938061D0FD8160BFB6F894D8011C96EC
:100A1000ED91FC91D5831682E78220873187F5FE20
:100A2000B5C08F7791E094879FEF9587C683F801D3
:100A30009189F08826853785F90143E0949FE00D80
:100A4000F11D1124659174919F1508F060C0972FD6
:100A5000C2E083FFC1E086FF17C09932A8F4472F98
:100A600050E0FA01E958FF4B90819F3F69F0FA018D
:100A7000E056FF4BE081A0E2EA9FF0011124FC5F09
:100A8000C13009F085C0918387FF2AC091E0970F9C
:100A9000492F50E0993220F5FA01E958FF4B908137
:100AA0009F3FF1F0FA01E056FF4BE081B0E2EB9F8F
:100AB000F0011124FC5F4C5C5F4BDA01CC91CF3F1D
:100AC00009F480C0AF01405F5F4FC40FD52FD11D27
:100AD0005FB7F894928348814860488395835FBFED
:100AE00080FF15C083E0870F893288F490E0FC0115
:100AF000E958FF4B40814F3F51F080569F4BDC013E
:100B0000EC91B0E2EB9FF0011124FC5F4183F9010D
:100B100043E0F49EE00DF11D1124319625913491AE
:100B2000F901FF27EE51FA4F9081832F8095892399
:100B3000682B6083BFBEDF91CF911F910F91FF9013
:100B4000EF90BF90AF909F908F9008952FEF3FEF61
:100B5000E4E98E16E5E09E06A104B10408F43DCF59
:100B6000F1E68F16F3EE9F06F6E1AF06B10428F02A
:100B7000C260B694A7949794879460E078ED88EB70
:100B800095E0A50194010E94422127CF14864ECF03
:100B90004C5C5F4BDA01CC91309789F0CF3F79F014
:100BA000AF01405F5F4FC40FD52FD11D5FB7F894E1
:100BB000928348814860488395835FBF65CFD0E0CA
:100BC000C0E0F4CFD0E0C0E083CFCF93DF93FC014F
:100BD000A485B5852689EC01C20FD11DC95ADF4F06
:100BE000888190E414969C93149712968C93129794
:100BF0002F5F2F7315969C91159735898289321333
:100C000009C09F7D81FD906415969C93268BDF9192
:100C1000CF91089581FFFACF9F7BF6CF0FB607FEE5
:100C200004C0209111012223A1F0DC011C96ED915A
:100C3000FC911D97248125FF0CC055963C9155973A
:100C400056962C91321721F085818F7D85830895EA
:100C5000BCCF08950F931F93CF93DF93EC018A8944
:100C6000982F91609A8B2D899E8929130AC0EC8553
:100C7000FD85948195FF05C081FD0DC080E48483CE
:100C800012C0062F1D891F5F1F738E89811315C027
:100C9000CE01C4DFFACF85818F77806490E494839E
:100CA000EC85FD858583EC85FD85628381E090E0A0
:100CB000DF91CF911F910F910895ED89EC0FFD2FDA
:100CC000F11DE95AFF4F00831D8BEC85FD858A8954
:100CD00081FF09C085818F77806690E49483EC85DD
:100CE000FD858583E3CF85818062FBCFCF93DF9342
:100CF000EC018A8980FF0BC0EC85FD85858185FD2F
:100D000003C0848186FD03C0CE0188DFF5CFDF916B
:100D1000CF91089581E008959FB7F894E0912A0B50
:100D2000F0912B0B8091260B20917E4130917F41D9
:100D300040918041509181419FBF80FF08C0EC3EAF
:100D40008CE2F80720F42F5F3F4F4F4F5F4F0F01AA
:100D5000169407941694079416940794169407947F
:100D6000F00116940794E00DF11D16940794102CD1
:100D7000169401181694010C169401181694010C7F
:100D80001694011816941694010C1124E019F10917
:100D9000A8EEB3E00E9432216E0F7F1F811D911DCE
:100DA00008958F929F92AF92BF92CF92DF92EF926F
:100DB000FF924B015C01B0DF6B017C01ADDF6C1970
:100DC0007D098E099F09683E734081059105B0F346
:100DD00021E0821A9108A108B10888EEC80E83E0CC
:100DE000D81EE11CF11C81149104A104B10431F757
:100DF000FF90EF90DF90CF90BF90AF909F908F903B
:100E000008952FB7F89460917E4170917F41809151
:100E10008041909181412FBF08958F929F92AF9210
:100E2000BF92EF92FF921F93CF93DF93EC01162FA7
:100E3000E881F9810484F585E02D462F70E060E0BB
:100E400009957C0111501230D0F419861A868888D1
:100E50009988AA88BB8860DF688F798F8A8F9B8F7B
:100E60008C8E9D8EAE8EBF8EC701DF91CF911F916C
:100E7000FF90EF90BF90AF909F908F9008958C88D7
:100E80009D88AE88BF88E7CF61E085E19EE4C5CF4D
:100E9000DC0118968C911897481710F04FEF480F07
:100EA0001B969C911B97992389F017969C911797F5
:100EB000691730F0691B4F5F4817D0F340E0F8CF57
:100EC00019966C9319971A964C931A97FD01E40F93
:100ED000F11D8485680F6068CD019FCF8F929F922E
:100EE000AF92BF92EF92FF920F931F93CF93DF9336
:100EF000EC01462FE881F9810484F585E02D61E05D
:100F000070E009957C018C889D88AE88BF8804DFDD
:100F1000688F798F8A8F9B8F8C8E9D8EAE8EBF8EC1
:100F200001E010E0EF2811F010E000E08B8588234D
:100F300091F089858F5F89879F81891760F0198675
:100F40008A858F5F8A879885891708F01A864A856F
:100F500060E0CE019DDFC801DF91CF911F910F911D
:100F6000FF90EF90BF90AF909F908F9008958DEF7E
:100F70009FEF08958DEF9FEF089590E080E0089532
:100F800080918947843019F080917947089580E0F5
:100F9000089580918947843041F48091824726E00A
:100FA000829FC001112409960895883039F08091FC
:100FB000824723E0829FC001112408958FEF90E0C3
:100FC000089580918947843051F0883041F08091B4
:100FD000834724E0829FC00111240296089582E095
:100FE00090E008952F923F924F925F926F927F927E
:100FF0008F929F92AF92BF92CF92DF92EF92FF9229
:101000000F931F93CF93DF931C013B012A014801EB
:101010005901D7DF6C01BDDF7C01B2DF182F809151
:101020008947843009F05DC082E090E08F57984B8B
:10103000EC018881882309F457C080E090E0DC014E
:10104000C12FD0E0C75BD84FFE014491EC0CFD1CD2
:10105000BC01CD01680D791D8A1D9B1D4E9D90011F
:101060004F9D300D112450E040E00E944221970135
:1010700050E040E00E944221E22EF12CF8E11F9F57
:1010800050011124F50103E0209FE00DF11D112412
:10109000DF01AC5CBC4FAF014B5C5C4F6C157D0558
:1010A00040F5ED5CFC4FE491E101E883FD01A49182
:1010B000E301A883FA014491E2014883DF91CF91D3
:1010C0001F910F91FF90EF90DF90CF90BF90AF9066
:1010D0009F908F907F906F905F904F903F902F9058
:1010E000089583E090E0A2CF84EF91E0A0E0B0E02B
:1010F000A7CFEEEEF2E08F010C191D096801FE0189
:10110000C491FFEFEF1AFF0A2F5FCE151F0409F0FD
:101110000CF420E08B0107561E4B48018C0C9D1CE3
:10112000F401C081C501F3E02F9F800D911D1124B2
:10113000FC01EC5CFC4FD491FD01A4912FEF30E059
:101140002C1B3109A29FB001A39F700D1124DC9FBD
:10115000600D711D1124F30170838B5C9C4FFC01A9
:101160008491FA014491429FB001439F700D112474
:10117000C89F600D711D1124E20178839FCF222347
:1011800081F0E6E2F8E42FEF3DE4938191932E178E
:101190003F07D9F78093FF4D6093004E4093014E77
:1011A0000895EFEFFDE49291938398E4E632F90716
:1011B000D1F78093264860932748409328480895A4
:1011C000E0918B412091894798E0299F900111245B
:1011D000E20FF32FF11DE55CFB4FE491EF3141F499
:1011E000803208F08FE1E82FF0E0E750FD4F849166
:1011F00008953FB720910210422F427021FDFACF8F
:10120000F8942DE924BF4093001043E124BF40939C
:101210000010DC01EC91F0E0FC5E60833FBF0895BC
:10122000DC01ED91FC910088F189E02D23E030E1B3
:1012300009940895282F30E08932A8F4F901E9587B
:10124000FF4B80818F3F79F020563F4BD901EC91C5
:10125000B0E2EB9FF0011124FC5F9085982381E0C0
:1012600019F480E008958FEF08950F931F93CF93A3
:10127000DF93893208F07CC090E0DC01A958BF4BB5
:101280002C912F3F09F474C08C0100561F4BE801CC
:10129000E881D0E2ED9FF0011124FC5F611133C0C1
:1012A000268330812323AC014C5C5F4B211111C09C
:1012B000EA012881309749F12F3F39F17096E20F0A
:1012C000F11D3FB7F8942081611122C0277F208350
:1012D0003FBFFA0130813F3F09F44AC0E80128814D
:1012E000363058F53091E605432F4770241312C06D
:1012F000EC91E53008F0EE0F8091010AE095E823CB
:10130000E093010A35C02583CCCFF0E0E0E0D9CFEF
:101310002860DDCF387169F4213079F4EC91E53043
:1013200008F0EE0F8091410AE095E823E093410A2E
:101330001FC0383111F4263089F3855F9F4BFC01C3
:10134000808185FF13C030E1839FF0011124F75F96
:1013500091819770973061F4EC91853270F480320E
:1013600098F48830E1F2803121F202C08111F4CF8B
:10137000DF91CF911F910F910895803471F08038E3
:10138000B9F71092A006F4CF90E1899FF0011124E3
:10139000F75F81818F7E8183EBCF8091920B8E23CB
:1013A00039F3C0E22C9F900111243C5FEF3F31F1F3
:1013B000205F3F4FE20FF32FF11D4FB7F89490914C
:1013C000800B9E7F9093800B90918E0B90FFFCCFB3
:1013D0002091920B90E08095909530E082239323AA
:1013E00028ED24BF8093920B8091800B81608093C5
:1013F000800B80818F7780834FBFBACFF0E0E0E031
:10140000DCCF0F931F93CF938C01C62FFC0183A1D8
:1014100061E0C0FF60E029DFF80184A161E0C1FF65
:1014200060E023DFF80185A161E0C2FF60E01DDF1D
:10143000F80186A161E0C3FF60E0CF911F910F9199
:1014400014CF4F925F926F927F928F929F92AF9242
:10145000BF92EF92FF921F93CF93DF93EC017B013A
:10146000142F88A161E091E0E916F10409F060E031
:10147000FCDE612F70E084E0759567958A95E1F751
:10148000CE01BFDF8C8C9D8CAE8CBF8C488C598C70
:101490006A8C7B8C41DC641975098609970968158B
:1014A00079058A059B05B0F361E08AA1DEDE88E05C
:1014B0008A95F1F760E08AA1D8DE92E0E916F1049E
:1014C00069F0612F6F70CE019CDF61E08AA1CDDEF3
:1014D00088E08A95F1F760E08AA1C7DE90E080E0BD
:1014E000DF91CF911F91FF90EF90BF90AF909F90B1
:1014F0008F907F906F905F904F900895CF92DF9282
:10150000EF92FF920F931F93CF93DF93482F62E0E8
:1015100070E085E19EE495DF8C01C5E1DEE4CC88D6
:10152000DD88EE88FF88F8DB688F798F8A8F9B8F44
:10153000CC8EDD8EEE8EFF8EC801DF91CF911F9194
:101540000F91FF90EF90DF90CF9008958F929F9230
:10155000AF92BF92CF92DF92EF92FF920F931F93C1
:10156000CF93DF93DC0191962C912F3F09F45EC15C
:101570008B01EC01CC8CDD8CEE8CFF8C888C998CF3
:10158000AA8CBB8CC9DB681979098A099B096C157F
:101590007D058E059F05B0F38BA1893228F590E07B
:1015A000FC01E958FF4B20812F3FF1F0FC01E05690
:1015B000FF4BE081B0E2EB9FF0011124FC5F8C5CFB
:1015C0009F4BDC013C91B0E0A0E03F3F29F0CF0110
:1015D0004096DC01A30FB11D9FB7F89422838C9134
:1015E000877F8C9326839FBF8CA1893228F590E05A
:1015F000FC01E958FF4B20812F3FF1F0FC01E05640
:10160000FF4BE081B0E2EB9FF0011124FC5F8C5CAA
:101610009F4BDC013C91B0E0A0E03F3F29F0CF01BF
:101620004096DC01A30FB11D9FB7F89422838C91E3
:10163000877F8C9326839FBF8DA1893228F590E008
:10164000FC01E958FF4B20812F3FF1F0FC01E056EF
:10165000FF4BE081B0E2EB9FF0011124FC5F8C5C5A
:101660009F4BDC013C91B0E0A0E03F3F29F0CF016F
:101670004096DC01A30FB11D9FB7F89422838C9193
:10168000877F8C9326839FBF8EA1893228F590E0B7
:10169000FC01E958FF4B20812F3FF1F0FC01E0569F
:1016A000FF4BE081B0E2EB9FF0011124FC5F8C5C0A
:1016B0009F4BDC013C91B0E0A0E03F3F29F0CF011F
:1016C0004096DC01A30FB11D9FB7F89422838C9143
:1016D000877F8C9326839FBF88A161E0013011052D
:1016E00009F060E0C2DD61E089A1BFDD61E08AA1AF
:1016F000BCDDB8E0BA95F1F78BA19CDD10E081303C
:1017000009F410E18CA196DD813009F410628DA1FD
:1017100091DD813009F410648EA18CDD813009F4F3
:10172000106860E08AA1A1DDE8E0EA95F1F761E0E8
:101730008AA19BDDF8E0FA95F1F78BA17BDD813082
:1017400009F411608CA176DD813009F412608DA15D
:1017500071DD813009F414608EA16CDD813009F4F3
:10176000186060E08AA181DD8BA1893288F490E065
:10177000FC01E958FF4B20812F3F51F080569F4BD1
:10178000DC01EC91B0E2EB9FF0011124FC5F2183BE
:101790008CA1893288F490E0FC01E958FF4B20814C
:1017A0002F3F51F080569F4BDC01EC91B0E2EB9F54
:1017B000F0011124FC5F21838DA1893288F490E02F
:1017C000FC01E958FF4B20812F3F51F080569F4B81
:1017D000DC01EC91B0E2EB9FF0011124FC5F21836E
:1017E0008EA1893288F490E0FC01E958FF4B2081FA
:1017F0002F3F51F080569F4BDC01EC91B0E2EB9F04
:10180000F0011124FC5F218360E089A12EDD812F8E
:1018100090E0DF91CF911F910F91FF90EF90DF90BB
:10182000CF90BF90AF909F908F9008958DEF9FEFD6
:10183000F0CFCF92DF92EF92FF920F931F93CF934F
:10184000DF938C01DC0190968C91893288F490E0D2
:10185000FC01E958FF4B20812F3F51F080569F4BF0
:10186000DC01EC91B0E2EB9FF0011124FC5F2183DD
:10187000F80181A18F3FB1F0893290F4282F30E038
:10188000F901E958FF4B90819F3F51F020563F4BA3
:10189000D901EC91B0E2EB9FF0011124FC5F918340
:1018A00060E0E3DCF80182A1893290F4282F30E077
:1018B000F901E958FF4B90819F3F51F020563F4B73
:1018C000D901EC91B0E2EB9FF0011124FC5F918310
:1018D00060E0CBDCF80183A1893288F490E0FC0160
:1018E000E958FF4B20812F3F51F080569F4BDC0180
:1018F000EC91B0E2EB9FF0011124FC5F2183F80131
:1019000084A1893288F490E0FC01E958FF4B2081E2
:101910002F3F51F080569F4BDC01EC91B0E2EB9FE2
:10192000F0011124FC5F2183F80185A1893288F43C
:1019300090E0FC01E958FF4B20812F3F51F0805689
:101940009F4BDC01EC91B0E2EB9FF0011124FC5FB6
:101950002183F80186A1893288F490E0FC01E958DE
:10196000FF4B20812F3F51F080569F4BDC01EC91C3
:10197000B0E2EB9FF0011124FC5F2183F801C7A1C5
:10198000CF3F09F48AC080A5813009F070C0EC2EE9
:10199000F12C60E08C2F69DCC93208F08FC0C701E0
:1019A00089589F4B6C01DC018C918F3FF1F0F7015E
:1019B000E056FF4BE081B0E2EB9FF0011124FC5FA9
:1019C000D701AC5CBF4BAC91AF3F09F471C09F0134
:1019D000205F3F4FA20FB32FB11D2FB7F894828322
:1019E0009C91977F9C9386832FBFF60180818F3FC8
:1019F00051F0F701E056FF4BE08120E2E29FF00159
:101A00001124FC5F818361E08C2F2FDC88E28A95B2
:101A1000F1F78C2F0FDCD82F60E08C2F26DCC93239
:101A200008F5D6018C918F3FE9F0F701E056FF4BA6
:101A3000E081B0E2EB9FF0011124FC5FD701AC5CC8
:101A4000BF4BAC91AF3FB9F19F01205F3F4FA20F59
:101A5000B32FB11D2FB7F89482839C91977F9C93ED
:101A600086832FBFD13019F08EEFF80180A7D801FF
:101A700097968C91893288F490E0FC01E958FF4BED
:101A800020812F3F51F080569F4BDC01EC91B0E25A
:101A9000EB9FF0011124FC5F218390E080E0DF9157
:101AA000CF911F910F91FF90EF90DF90CF9008950D
:101AB000B0E0A0E092CFB0E0A0E0CCCF61E08C2F0E
:101AC000D4DBF8E2FA95F1F78C2FB4DBD82F60E085
:101AD0008C2FCBDBC7CFCF93DF93893208F042C086
:101AE000482F50E0FA01E958FF4B90819F3FD1F118
:101AF000FA01E056FF4B308120E2329FD0011124E1
:101B0000BC5F11969C931197FA01E55FFF4BE08152
:101B1000E03809F4D6C06115710521F460E0DF9169
:101B2000CF91A3CB6F3F710511F461E0F8CF9034F2
:101B300008F0CBC02091E605F22FF770F3131AC01E
:101B4000E0E0953010F0990FE1E0892F847469F09E
:101B5000EC5FF0E0E85DF54F60838091010A982B1F
:101B60009093010ADF91CF910895892F827289F3B2
:101B7000EE5FEFCF28713630A9F42831B9F4E0E0F8
:101B8000953010F0990FE1E0892F8474D9F0EC5F63
:101B9000F0E0E859F54F60838091410A982B9093CB
:101BA000410AE0CF313011F4222349F3E03439F116
:101BB00070F490EE9E0F953090F0603871050CF047
:101BC000B4CFACCF892F827219F3EE5FE1CFE0384A
:101BD000A1F76093A30681E48093A006C3CF90E1B0
:101BE000E99FF0011124F75F91819770973029F7F1
:101BF000848584876587818180618183B3CF611506
:101C0000710519F06F3F710511F080E003C081E0AC
:101C100070E060E02FEF30E0261B370B6091AE0BD9
:101C20006091AF0B662321F06330B8F5220F331FAC
:101C30001097C1F14C5C5F4BEA01E881EF3F91F1F5
:101C40005096EA0FFB2FF11D4FB7F8942150310940
:101C5000592F5A7A51F12093AC0B3093AD0B209150
:101C6000920B292339F53091800B232F2E7F20935F
:101C7000800B20918E0B20FFFCCF2091920B922B9A
:101C800028ED24BF9093920B3093800B811116C0E6
:101C900080818F7780834FBF65CF220F331F220F44
:101CA000331FC6CFF0E0E0E0CFCF2093A80B3093F6
:101CB000A90BD5CF91E09093840BE8CF8081806809
:101CC000E9CF903408F436CF84CFE03208F475CFF2
:101CD000E53208F484CFE03409F497CF6ECFCF9388
:101CE000DF93FC0187A18F3F09F465C090A59E3F5B
:101CF00009F042C0282F30E0662359F1893218F5E7
:101D0000F901E958FF4B80818F3FE9F0F901E05676
:101D1000FF4BE08140E2E49FF0011124FC5F2C5C6A
:101D20003F4BE901A881AF3F89F09F01205F3F4F02
:101D3000A20FB32FB11D2FB7F89482839C91977F88
:101D40009C9386832FBF90E080E037C0B0E0A0E096
:101D5000F2CF8932C0F7F901E958FF4B80818F3FFC
:101D600091F320563F4BD901EC91B0E2EB9FF0018B
:101D70001124FC5F8183E7CF2AED280F223020F069
:101D80002CEF280F203160F470E0913011F4A3DEC5
:101D9000DACF2FEF30E0E901C61BD70BBE01F7CF3A
:101DA000662329F0913029F461E05FDACCCF9923E2
:101DB000D9F360E0FACF8DEF9FEFDF91CF910895D7
:101DC0008F929F92AF92BF92CF92DF92EF92FF924B
:101DD0004B015C0182169306A406B5069CF46901CA
:101DE0007A01C818D908EA08FB0841F00E94C1200E
:101DF000A70196010E9416216B017C018C0C9D1C91
:101E0000AE1CBF1CC501B401FF90EF90DF90CF90D6
:101E1000BF90AF909F908F900895CF92DF92EF92F6
:101E2000FF920F931F93CF93DF93AAD8E82FF0E090
:101E3000E75BF84FC491C5D88C01ABD8800F911FD8
:101E4000C89F6001C99FD00C112410E000E0D0E0D1
:101E5000C0E00D2C000CEE08FF08A701960160E021
:101E600070E0CB01ADDFCB01F801F595E795E756C2
:101E7000FE4B60839E0135952795F901EE0FFF1FFC
:101E8000E20FF31FE556FE4BC0FF19C024E0969504
:101E900087952A95E1F7807F908189238083219619
:101EA0000D5F1F4FC43F81E0D807B9F6DF91CF9196
:101EB0001F910F91FF90EF90DF90CF900895708366
:101EC000EECFFB0101900020E9F73197AF01461BEF
:101ED000570BDC01ED91FC910280F381E02D099418
:101EE0008F929F92AF92BF92EF92FF920F931F93A8
:101EF000CF93DF93CDB7DEB7A197CDBFDEBF7C0117
:101F0000FA01CB0119A2223008F42AE08E010F5DFC
:101F10001F4F822E912CB12CA12CBF01A501940141
:101F20000E944221F901CA016A30ECF4605DD801D7
:101F30006E938D01232B242B252B79F790E080E0E5
:101F4000109719F0BD01C701BCDFA196CDBFDEBF60
:101F5000DF91CF911F910F91FF90EF90BF90AF90C5
:101F60009F908F900895695CE2CFCF93DF93BC017F
:101F70008FE897E4A6DFEC0165EF70E48FE897E463
:101F8000A0DF8C0F9D1FDF91CF9108954F925F923C
:101F90006F927F928F929F92AF92BF92CF92DF9279
:101FA000EF92FF920F931F93CF936B017C01742EDE
:101FB000AC019B010E94892368EF70E4811126C067
:101FC00046015701E894B7F82FEF3FEF4FE75FE77F
:101FD000C501B4010E94892381110CC02FEF3FEF8E
:101FE0004FE75FE7C501B4010E94D8216CEF70E4B0
:101FF000181664F02FEF3FEF4FE75FE4C701B6011B
:102000000E9422231816A4F460E071E48FE897E49C
:10201000CF911F910F91FF90EF90DF90CF90BF90E5
:10202000AF909F908F907F906F905F904F9049CF2F
:102030002FEF3FEF4FE75FECC701B6010E94D821B9
:1020400087FDE2CF20E030E0A901C701B6010E9480
:10205000D82110E000E087FF0AC06DE28FE897E426
:102060000E9410048C01F7FAF094F7F8F094C0E0A5
:1020700060E070E080E09FE37C1641F020E030E01B
:1020800040E251E40E94DC21CF5FF6CFA701960128
:102090000E9474212B013C010E9444224B015C01EF
:1020A0002AE0BC01A4018FE897E41ADF7C01E00E6E
:1020B000F11ECC23C9F1C501B4010E9470229B011D
:1020C000AC01C301B2010E9473214B015C0164E0C9
:1020D00071E48FE897E4F5DEE80EF91EC15020F1B7
:1020E00020E030E040E251E4C501B4010E94262323
:1020F0002B013C010E9444224B01B12CA12C2AE06F
:10210000B501A4018FE897E4EBDEE80EF91EC501E6
:10211000B4010E9470229B01AC01C301B2010E9474
:1021200073214B015C01DACFC701CF911F910F9151
:10213000FF90EF90DF90CF90BF90AF909F908F90E7
:102140007F906F905F904F9008952F923F924F92A3
:102150005F926F927F928F929F92AF92BF92CF9237
:10216000DF92EF92FF920F931F93CF93DF93CDB740
:10217000DEB72A97CDBFDEBF1C016D837E834F8300
:102180005887280139010E94E1075C010E94C907B4
:102190006C010E94C007898380918947843009F0CF
:1021A00070C082E090E08F57984BFC0180818823BB
:1021B00009F46AC080E090E0DC01F9812F2F30E063
:1021C000A901475B584F7A01FA014491BC01CD0146
:1021D000640D751D861D971D85010C0D1D1D409FED
:1021E0009001419F300D112450E040E00E944221B7
:1021F000980150E040E00E944221A22FB0E04981C6
:10220000E8E14E9FA001112449875A87FA0153E063
:10221000259FE00DF11D11248F010D5C1C4FAF01B6
:102220004C5C5C4F49835A83AF014B5C5C4F4B83E2
:102230005C836A157B0568F5F8010491F101008360
:10224000E981FA811491ED81FE811083FA01649194
:10225000EF81F88560832A96CDBFDEBFDF91CF91F5
:102260001F910F91FF90EF90DF90CF90BF90AF90B4
:102270009F908F907F906F905F904F903F902F90A6
:10228000089583E090E08FCF84EF91E0A0E0B0E08C
:1022900094CFAB014A195B09F701E490CD01019697
:1022A000BB24B394B20EE816190609F00CF4B12C55
:1022B000BA0190E080E00E9470222B013C01B6013F
:1022C00090E080E00E9470229B01AC01C301B2014A
:1022D0000E94DC216B017C0125EC30E240E85FE3E9
:1022E0000E94222318169CF469E173E08FE897E4BA
:1022F0000E94170442E0C701B60148DE65EF70E4B2
:102300008FE897E4DEDD8FE897E40E947606298562
:102310003A8543E0B49E200D311D112429873A8768
:10232000F901ED5CFC4F7490F8010491A70196014E
:1023300060E070E080E89FE30E9473214B015C0144
:10234000672D70E090E080E00E947222A701960164
:102350000E94262320E030E040E05FE30E947421E9
:102360002B013C01602F70E090E080E00E9472221F
:10237000A50194010E9426239B01AC01C301B20177
:102380000E9474210E944422F1016083E985FA854C
:10239000EC5CFC4F6491E981FA81149170E090E06B
:1023A00080E00E947222A70196010E94262320E06D
:1023B00030E040E05FE30E9474212B013C01612F7B
:1023C00070E090E080E00E947222A50194010E94DA
:1023D00026239B01AC01C301B2010E9474210E941B
:1023E0004422ED81FE81608329853A852B5C3C4F38
:1023F000F901F491F983EB81FC81F491FB8329814C
:10240000622F70E090E080E00E947222A7019601A6
:102410000E94262320E030E040E05FE30E94742128
:102420006B017C013B81632F70E090E080E00E94B3
:102430007222A50194010E9426239B01AC01C701D1
:10244000B6010E9474210E94442202CF0F931F9371
:10245000CF93DF9300D01F92CDB7DEB700917547C1
:10246000109176472091774730917847AE014D5FC4
:102470005F4FBE016E5F7F4FCE01019666DE809199
:102480008947843099F083E090E08F57984BFC01A6
:1024900020814B816A8189810E94BF082396CDBF2C
:1024A000DEBFDF91CF911F910F91089582E090E000
:1024B000ECCF8F929F92AF92BF92CF92DF92EF922A
:1024C000FF920F931F93CF93DF9307E814E4D0E0BC
:1024D000C0E00E94C907C817D90708F041C00E9490
:1024E000C9077C01BE0190E080E00E9470224B0190
:1024F0005C01B70190E080E00E9470229B01AC017A
:10250000C501B4010E94DC216B017C0125EC30E2A5
:1025100040E85FE30E94222318169CF46FED72E0FE
:102520008FE897E40E94170442E0C701B6012EDD50
:1025300065EF70E48FE897E4C4DC8FE897E40E94CD
:10254000760620E030E84FE753E4C701B6010E9469
:1025500026230E944422F80161938F012196B9CF6E
:10256000DF91CF911F910F91FF90EF90DF90CF906F
:10257000BF90AF909F908F9008950E94B923AF9223
:10258000BF92CF92DF92EF92FF920F931F93CF9360
:10259000DF93809389478CED95E0E9E9F1E4DF0171
:1025A0009C011D9221503040E1F7E6E2F8E4DF01A2
:1025B0009C011D9221503040E1F781E8A82E87E46C
:1025C000B82E09E717E4D0E0C0E08091894738E0F1
:1025D000839FC00111248C0F9D1FFC01E957FD4F03
:1025E00024912F3F09F066C0FC01E55CFB4FE491AC
:1025F000CE2ED12CF12CE12CC114D104E104F10434
:1026000039F00E94C120A70196010E9416216B019A
:10261000FE01E758F84BC08280918947B8E08B9F54
:10262000C00111248C0F9D1FFC01E957FD4FE4915F
:10263000EF3F09F043C0FC01EC5AF84FE491CE2E75
:10264000D12CF12CE12CC114D104E104F10439F0B6
:102650000E94C120A70196010E9416216B01FE0174
:10266000EF57F84BC0822196BFEFAB1ABB0A0F5F42
:102670001F4FC830D10509F0A8CF809189478A3013
:1026800011F417DFCADB109275471092764710924B
:1026900077471092784710928B4110928A41DF91D0
:1026A000CF911F910F91FF90EF90DF90CF90BF904F
:1026B000AF900895E491D801EC93AECFFC01E15DB9
:1026C000FD4FE491D501EC93CECF1F920F920FB640
:1026D0000F9211240BB60F922F933F934F935F935A
:1026E0006F937F938F939F93AF93BF93EF93FF93DA
:1026F0008FE897E40E94E505FF91EF91BF91AF91BC
:102700009F918F917F916F915F914F913F912F9109
:102710000F900BBE0F900FBE0F901F9018951F9239
:102720000F920FB60F9211248F938091040887FFA8
:1027300003C080910008F9CF809105088F7B8068E5
:10274000809305088F910F900FBE0F901F901895E2
:102750001F920F920FB60F9211240BB60F922F9368
:102760008F939F93EF93FF93E0919B47F0919C474A
:1027700081819081E091A24781FD0DC081E08E0FA3
:102780008F732091A347821731F0F0E0E157F84BA7
:10279000978B8093A247FF91EF919F918F912F91FB
:1027A0000F900BBE0F900FBE0F901F9018951F92A9
:1027B0000F920FB60F9211248F939F93AF93BF93F5
:1027C00080917E4190917F41A0918041B091814163
:1027D0000196A11DB11D80937E4190937F41A093EE
:1027E0008041B093814181E08093260BBF91AF91EE
:1027F0009F918F910F900FBE0F901F9018951F9271
:102800000F920FB60F9211240BB60F922F933F9396
:102810004F935F936F937F938F939F93AF93BF93E8
:10282000EF93FF9340913C0B50913D0B86B3282FC3
:10283000287083FD27C081E48093340B80917A4116
:1028400090917B41BA01681B790BCB0170E060E08D
:1028500040937A4150937B4160937C4170937D41DA
:10286000222359F1F89B10C08930974098F0F898CE
:1028700010927941E9E5F1E480E2DF011D928A9549
:10288000E9F708C081E5D8CF835894418B3D954046
:1028900008F4F89AFF91EF91BF91AF919F918F91BA
:1028A0007F916F915F914F913F912F910F900BBE50
:1028B0000F900FBE0F901F901895F89BEBCF9C01C7
:1028C0002D52314025363340C0F580915841880F54
:1028D00080935841809179418770873009F58091C4
:1028E0005841E0917941F0E093E0F595E7959A95AC
:1028F000E1F7E75AFE4B808380917941873071F48C
:1029000080915841829586958695837009F1813032
:1029100009F1823009F18FEF809302401092584103
:1029200090917941809102409817C0F010927941BE
:10293000F898F99A1092350BADCF8F5C944085369C
:10294000934008F094CF80915841880F8F5FC0CF9B
:102950008FE1E2CF8FE3E0CF8FE7DECF8091794147
:102960008F5F8093794196CF1F920F920FB60F928F
:1029700011240BB60F922F933F934F935F938F9336
:102980009F93EF93FF938AB19BB19BB990910040C5
:10299000990F990FE82FEF70E695E6952091014089
:1029A000220F220FE22BE09301408370982B90932B
:1029B0000040EF70F0E0ED56FB4F8491E0915741FD
:1029C0008E0F809357419F70E92FF0E0ED56FB4F3B
:1029D0009491E09156419E0F9093564184300CF4AF
:1029E00081C0E0918B41F0E0E758F84B2081809165
:1029F0008947E0918B4138E0839FA0011124E40FC7
:102A0000F52FF11DE55CFB4FE4912E1740F4E091AA
:102A10008B41F0E0E758F84B20812F5F20838150F5
:102A2000853010F580918B418630F0F480918B4198
:102A300080FD1AC0E0918B41F0E0E758F84B20810F
:102A4000E0918B41F0E0E658F84B8081821760F40A
:102A5000E0918B41F0E0E758F84B8081E0918B41A9
:102A6000F0E0E658F84B80838091064081608093C7
:102A700006401092574194300CF472C0E0918A41A4
:102A8000F0E0EF57F84B2081E0918A41809189472F
:102A900038E0839FC0011124E80FF92FF11DEC5A93
:102AA000F84FE4912E1740F4E0918A41F0E0EF579F
:102AB000F84B80818F5F8083809106408160809396
:102AC000064010925641FF91EF919F918F915F9137
:102AD0004F913F912F910F900BBE0F900FBE0F9013
:102AE0001F9018958D3F3CF6E0918B41F0E0E75840
:102AF000F84B8081882341F0E0918B41F0E0E7586A
:102B0000F84B808181508083809189478150823049
:102B100008F0AACF80918B41863008F0A5CF809134
:102B20008B4180FFA1CFE0918B41F0E0E758F84B5B
:102B30002081E0918B41E150FF0BE758F84B8081F9
:102B4000281708F091CFE0918B41F0E0E758F84B5F
:102B50008081E0918B41E150FF0BE758F84B83CF28
:102B60009D3F0CF0B0CFE0918A41F0E0EF57F84B79
:102B70008081882309F4A0CFE0918A41F0E0EF57EB
:102B8000F84B8081815097CF1F93CF93DF93EFE86D
:102B9000F7E41282138288EE93E0A0E0B0E0848331
:102BA0009583A683B78381E690E48083918380E058
:102BB00098E0848795878CEA97E08687978712E06C
:102BC000108B118A128AC5E1DEE41A821B828DEC19
:102BD00090E4888399831F82188680ED97E0A0E0B7
:102BE000B0E0888B998BAA8BBB8B86E290E0A0E04B
:102BF000B0E08C8B9D8BAE8BBF8B1C861D861E869A
:102C00001F861B860E948C06688F798F8A8F9B8F08
:102C10001C8E1D8E1E8E1F8E83EE90E488839983FA
:102C20008AE188A38DE18AA38BE189A386E18BA346
:102C300087E18CA388E18DA389E18EA38FEF8FA319
:102C400088A7E2E0FEE4158286E298E48683978313
:102C5000148615861686178681E0838780871186FD
:102C600012878CED95E08283938384EF91E08083DB
:102C7000918386E0848384E094E0808B918B80E470
:102C8000828BDF91CF911F910895CF93DF93CDB7C2
:102C9000DEB76297CDBFDEBF88ED94E284BF90932C
:102CA000680021E02093030A8EEF8093260A809328
:102CB000270A9BE09093000A32E03093E6052093C8
:102CC000430A8093660A8093670A9093400A909320
:102CD000E705E0E0FBE037E09EEF20E885E03183A8
:102CE0009487258780837096E0344BE0F407B9F72A
:102CF0004FEF5FE04093AA0B5093AB0B2093820BF6
:102D00001092810B4BEF53E04093AE0B5093AF0BFF
:102D100091E79093800B809302069EE090930506C6
:102D200090E690930306809300068091B000887F20
:102D300085608093B0008091B200887F8560809329
:102D4000B2008FED9EE280932C0B90932D0B81E0CF
:102D50008093250B1092210B93E09093200B789495
:102D600090E4909301048093A10492E09093A104D5
:102D7000209301043FB7F8948093420420915004BB
:102D8000286020935004809345043FBF2FB7F894E8
:102D900090934204809151048860809351049093F1
:102DA00045042FBF2FB7F89490E1909322048091AF
:102DB0003404886080933404909325042FBF2FB788
:102DC000F89494E090934204809152048860809338
:102DD0005204909345042FBF2FB7F89488E0809356
:102DE0004204909153049860909353048093450457
:102DF0002FBF2FB7F89480932204909133049860EA
:102E000090933304809325042FBF2FB7F89490E25A
:102E100090932204809135048860809335049093C8
:102E200025042FBF8091C20081114FC00E9401076D
:102E30004B015C0115E401E08091C200811145C0A5
:102E40000E940107681979098A099B09613D774049
:102E500081059105D0F10E940107681979098A0955
:102E60009B09693E73408105910530F386E091E44A
:102E70007CD81093080600930A0680910D0680FF07
:102E8000FCCFC0901006D09011060D2C000CEE085F
:102E9000FF082AE0B701A601F7FE0DC06DE28FE83A
:102EA00097E40E94100444275527BA014C195D0984
:102EB0006E097F092AE08FE897E412D865EF70E485
:102EC0008FE897E40E94610FB7CF8BB18BB989E08F
:102ED0008093500480935104809352048093530450
:102EE0009091A14780919F47981708F083C181E096
:102EF0008093A04740E052EC61E070E08FE897E4F7
:102F00000E9410098CE291E430D88091214E811109
:102F10000CC08091224E811108C08091234E8111F6
:102F200004C08091244E882321F080911C4E8F7E16
:102F300059F01092214E80E48093224E80E18093DC
:102F4000234E80E58093244E82E080931D4E80E1E5
:102F500080931C4E64E670E080E090E00E94D10611
:102F60001092194E85E19EE40E94190C892B09F0FC
:102F700049C080911D4E823028F08091194E8860A2
:102F80008093194E80E30E947E0A65E070E080E045
:102F900090E00E94D10680E30E947E0A61E070E02A
:102FA00080E090E00E94D10680E30E947E0A61E00A
:102FB00070E080E090E00E94D1068091194E84FD7F
:102FC00003C080E20E947E0A6091194E606285E132
:102FD0009EE40E940D0784E080931A4E6CE085E128
:102FE0009EE40E940D070E94440782E080931B4EDE
:102FF00066E085E19EE40E940D076FEF85E19EE4A7
:103000000E946F0E62EB74E085E19EE40E9417045B
:1030100041E060E085E19EE40E94480763EA74E0D5
:1030200085E19EE40E94170461E088E00E94350972
:1030300061E089E00E94350961E08AE00E9435097B
:1030400080E48093610461E08CE10E94350960EDC9
:1030500077E080E090E00E94D1060E9444078BE375
:1030600091E40E94B50F10910F141F3F79F1612F69
:1030700062956F7060636A330CF0695F8FE897E464
:103080000E942A06612F6F7060636A3308F0695FDF
:103090008FE897E40E942A0680910F148093894755
:1030A00090E080E0FC01E05FFB4E2081FC01E758EE
:1030B000F84B2083FC01E85EFB4E2081FC01EF57BA
:1030C000F84B208301968830910561F7212C312C33
:1030D00021012A9406B110E053E0159507955A9501
:1030E000E1F7F02FF770FF2E80910440F81709F4F4
:1030F00084C0F09304400E9401076093864170935E
:10310000874180938841909389410E9401070091F3
:103110009141109192412091934130919441601BD3
:10312000710B820B930B683873418105910568F42C
:103130008091914190919241A0919341B09194419D
:10314000892B8A2B8B2B09F053C1F89410910640E0
:103150001092064078941111CCC10E940107C090D2
:103160008D41D0908E41E0908F41F09090416C194C
:103170007D098E099F0961367A4E8105910508F413
:1031800037C180918C41811127C181E080938C41AE
:103190000E94010760567A4E8109910960938D4122
:1031A00070938E4180938F41909390410E94440789
:1031B000E8D723E030E040E050E00E9416216111A2
:1031C00054C140E060E085E19EE40E94480765E468
:1031D00075E085E19EE40E94170441E060E085E12E
:1031E0009EE40E9448076AE375E085E19EE40E9440
:1031F0001704FEC01092A0477DCE0E940107809068
:10320000864190908741A0908841B090894168198B
:1032100079098A099B09633371058105910508F4D1
:1032200074CF80910340F816D8F480918241909138
:103230008341A0918441B0918541892B8A2B8B2BAE
:1032400061F400FD0AC00E940107609382417093FF
:1032500083418093844190938541F092034055CF00
:1032600002FF72C082FD70C08090824190908341C5
:10327000A0908441B090854181149104A104B104CF
:1032800009F44EC00E940107681979098A099B094F
:10329000613177428105910508F4ECC60E9444072C
:1032A0004FE0E42EE8866FEFCE0108960E94F90801
:1032B000E39430E2E312F6CF1092894790E080E089
:1032C000FC01E758F84B1082FC01EF57F84B1082D5
:1032D000019688309105A1F710928B4110928A4196
:1032E00040E063E085E19EE40E94480767ED74E0FA
:1032F00085E19EE40E94170441E065E085E19EE4DB
:103300000E9448076FEC74E085E19EE40E94170478
:1033100068EE73E080E090E00E94D10687E00AC08A
:10332000809189478A3008F442C080E028D9809192
:10333000064084608093064010928241109283413F
:10334000109284411092854101FF17C08091034083
:1033500081FD13C0E0918947F0E0EE0FFF1FE858B0
:10336000FA4FE49180918B418E1750F110928B416E
:103370008091064082608093064000FF6ECF80916E
:10338000034080FD6ACFE0918947F0E0EE0FFF1F18
:10339000E758FA4FE49180918A418E17B8F0109265
:1033A0008A418091064082608093064056CF8130EA
:1033B00019F482E080938947809189478F5FB6CF67
:1033C00080918B418F5F80938B41D2CF80918A41D6
:1033D0008F5F80938A41E5CF0E9401076C197D09B8
:1033E0008E099F09613C744D8140910508F0CDCE56
:1033F00010918E4700918947111187C5A99A011133
:10340000B9C106E218E4D12CC12C53E0E52EF12C11
:10341000C601B7010E949C23FC01E758F84B80814C
:103420000E94E008F80181938F01FFEFCF1ADF0AB5
:103430002CEDC21625E0D20659F780917547909180
:103440007647A0917747B09178470196A11DB11DAD
:103450008093754790937647A0937747B0937847CA
:10346000A99881E080938E4735CE40E06130E9F441
:1034700060E085E19EE40E9448076CE275E085E12A
:103480009EE40E94170441E060E085E19EE40E9412
:10349000480761E275E085E19EE40E9417046FE74A
:1034A00085E19EE40E946E07A3CF62E085E19EE481
:1034B0000E94480764E175E085E19EE40E941704DC
:1034C00041E060E085E19EE40E9448075AD622E090
:1034D00030E040E050E0AAD6611103C063E075E03F
:1034E00084CE613019F462EF74E07FCE62EE74E056
:1034F0007CCE80918C4181110E94440710FF0DC049
:10350000809189478A3049F40E94C0079091054014
:1035100089130E940D0F0E945912809189478A30A9
:1035200051F40E94C00790910540891721F00E9434
:10353000C007809305400E94010760938D417093FE
:103540008E4180938F4190939041812F867029F412
:1035500080918C41882309F438C040E060E085E127
:103560009EE40E94480780918947873008F058C040
:10357000E0918B4138E0839FC0011124E80FF92FBF
:10358000F11DEE0FFF1FE75AF94F6591749185E128
:103590009EE40E94170460E285E19EE40E9410040C
:1035A000E0918A418091894748E0849FC0011124BD
:1035B000E80FF92FF11DEE0FFF1FED56FA4F659141
:1035C000749185E19EE40E941704177029F480919C
:1035D0008C41882309F492C0E0918947E73040F19B
:1035E00040E060E085E19EE40E944807E091794771
:1035F000F0E0EE0FFF1FED5BF94F6591749185E1EF
:103600009EE40E94170441E060E085E19EE40E9490
:1036100048076EE875E085E19EE40E94170435C016
:10362000E0917947F0E0EE0FFF1FED5BF94FADCF72
:10363000F0E0EE0FFF1FE858FA4FE49141E060E040
:1036400085E19EE4EF3F09F45CC00E944807E091E9
:103650008B41F0E0E758F84B80810E94E008182F7A
:10366000482F50E070E060E02AE085E19EE40E948F
:10367000700F60E285E19EE40E9410041A3028F485
:1036800060E285E19EE40E94100441E064E085E18F
:103690009EE40E944807E0918947F0E0EE0FFF1F8B
:1036A000E35AFA4F6591749185E19EE40E941704F4
:1036B00041E06DE085E19EE40E944807E0918A4187
:1036C0008091894758E0859FC0011124E80FF92FA8
:1036D000F11DEC5AF84FE491E130C1F4E0918A41D8
:1036E000F0E0EF57F84B808169E575E0811102C089
:1036F00065E575E085E19EE40E94170410928C4117
:1037000077CE0E94480763E775E085CFE0918A4154
:10371000F0E0EF57F84B1081143660F460E285E179
:103720009EE40E9410041A3028F460E285E19EE4D1
:103730000E941004E0918A418091894768E0869F49
:10374000C0011124E80FF92FF11DEC5AF84FE49154
:10375000EE2351F0412F50E070E060E02AE085E177
:103760009EE40E94700FCACF60E285E19EE40E9451
:103770001004C4CF013009F075C0009181478AE080
:10378000089F002D1124005F802E8094912C802FA3
:10379000869590E0A401480F591F4D875E8710E081
:1037A000F801E81BF90BEF87F88B46E2E42E48E4BA
:1037B000F42EB12CA12CC50163E070E0BDD7782EAA
:1037C000770CDFD4A201910131D5C62ED12CF7019F
:1037D0006080F0E2F615A0F48C149D04ECF4E72D63
:1037E000F0E0E658F84B80810E94E008F7019081F4
:1037F000681670F48FE7890F8D3710F19F5F21C035
:103800002D853E852C153D0554F38F85988905C07F
:10381000692EF0E2F917C8F7C801C816D9069CF45A
:10382000E72DF0E0E758F84B80810E94E00886150C
:1038300050F4F7018081813898F08250808303C072
:103840009E5FF7019083FFEFAF1ABF0A2FEFE21AD6
:10385000F20A3CEDA31635E0B30609F0ACCFEDCD8E
:103860008150ECCF033009F021C139E9E32E31E476
:10387000F32E06E218E4F701808190E09C01359573
:10388000279535952795F22FFF716F2EF70141810E
:103890009C0173E0220F331F7A95E1F72071942E7B
:1038A00092949694A7E09A22922A4F71742E2281C4
:1038B000822E829486948694B3E08B2283942F7315
:1038C000A22E880F892F881F990BB82E262D240F22
:1038D0003327331FC901890D911D892B09F08FC032
:1038E00080918147E091894738E0E39FF0011124FE
:1038F000EB5AF84FE49190E00296880F991F880FD9
:10390000991FE89F9001E99F300D1124032E000CB0
:10391000440B550B60E070E0CB010E94E00E20915B
:10392000824730E050E040E0621773078407950754
:1039300084F520917A476091794730E050E040E08B
:1039400070E090E080E00E94E00E662E20917C47BF
:1039500060917B4730E050E040E070E090E080E034
:103960000E94E00E962E20917E4760917D4730E0C8
:1039700050E040E070E090E080E00E94E00E762EA3
:1039800000D423E030E040E050E050D4862EB12C4B
:10399000A12CF801108211821282492D50E020E8FA
:1039A000B29EC001112464E0669E90011124822B16
:1039B0009A0193E0359527959A95E1F7822BF701C7
:1039C000808325E0440F551F2A95E1F7742A718200
:1039D000282D2150330B490136E0880C991C3A956B
:1039E000E1F7A828A28233E0E30EF11C0D5F1F4F20
:1039F00045E757E44E155F0509F03DCF1ECD282D54
:103A000030E050E040E060917547709176478091DA
:103A100077479091784736D4672B682B692B09F04C
:103A2000BCCFBB2059F0A11009C0F801108211824F
:103A30001282B12C712C912C612CAFCFEA2DF0E0C9
:103A4000E75FF84FC490862D0E94E008D12C282F04
:103A500030E0D60139D4A2019101E8D3F8012083E6
:103A6000892D0E94E0089601A82FB0E02DD4A20174
:103A70009101DCD3F8012183872D0E94E008960193
:103A8000A82FB0E021D4A2019101D0D3F801228364
:103A9000BB2011F0AA9481CFFFE3AF1611F0A394DD
:103AA0007CCFBB24B3944EE3A42E77CF043019F41B
:103AB0000E942612C2CC053009F05CC0809182477A
:103AC0002DE030E0281B3109032E000C440B550B70
:103AD00060917547709176478091774790917847CC
:103AE000D1D340E0F12C672B682B692BE1F5809155
:103AF0007A470E94E008182F809179470E94E008D9
:103B0000212F30E050E040E0682F70E090E080E04E
:103B10000E94E00E162F80917C470E94E008082F3B
:103B200080917B470E94E008202F30E050E040E089
:103B3000682F70E090E080E00E94E00EF62E809109
:103B40007E470E94E008082F80917D470E94E00890
:103B5000202F30E050E040E0682F70E090E080E0FF
:103B60000E94E00E462F209183476F2D812F0E94E7
:103B7000BF0863CC063009F07FC08091954187FF74
:103B800073C0982F9F738150911171C0109295410D
:103B9000E0919541EF73F0E0E75FF84FC4908091BA
:103BA0007C470E94E008182F809179470E94E00826
:103BB000882E912CB12CA12CD12CF12CE12C212F71
:103BC00030E050E040E0281939094A095B09C70193
:103BD000B601A3D5A201910129D3022F080D80912E
:103BE0007D470E94E008182F80917A470E94E008E4
:103BF000882E912CB12CA12C212F30E050E040E0F8
:103C0000281939094A095B09C701B60186D5A201FD
:103C100091010CD3722E780C80917E470E94E008AF
:103C2000182F80917B470E94E008882E912CB12CA0
:103C3000A12C212F30E050E040E0281939094A0931
:103C40005B09C701B60169D5A2019101EFD2820ECD
:103C5000E6E2F8E4008371828282339682E09EE499
:103C60008E179F07B9F7E9CB8F3320F08FEB809346
:103C700095418ECF8F5FFBCF073009F419CF083005
:103C800009F04BC0809182472DE030E0281B3109BC
:103C9000032E000C440B550B6091754770917647CD
:103CA0008091774790917847EDD2672B682B692BED
:103CB00069F50E94C007E82FF0E0E75BF84FF49049
:103CC0000E94C9078C010E94E107800F911FF89E96
:103CD0009001F99E300D112450E040E060E070E06A
:103CE000CB010E94E00E8B019C0146E951E467E99B
:103CF00071E488E991E40E94A510209183474091E6
:103D00009641609197418091984131CF10929841AE
:103D10001092974110929641F0CF093009F5009129
:103D20007547109176472091774730917847AE01DB
:103D3000485F5F4FBE01675F7F4FCE010A960E94CA
:103D4000A510888599852A85E6E2F8E42083918389
:103D50008283339642E05EE44E175F07B9F76DCB7E
:103D60000A3009F0CEC090908147909E002D11241A
:103D7000A0E19A2E900E892C80940E94C007E82F13
:103D8000F0E0E75BF84FF4900E94E1078C010E949D
:103D9000C907800F911FF89E5001F99EB00C1124A5
:103DA000B6E2CB2EB8E4DB2E712C612C882D90E08E
:103DB0008D879E87E92DF0E0EF87F88BE2D12FEF1A
:103DC0003FEF40E050E032D2C601865298449695CB
:103DD0008795930136952795F901EE0FFF1FE20FA6
:103DE000F31F9F0125563E4B298B3A8BF901E0804A
:103DF000F12C1E2D002700271F70DC01A756BE4B9B
:103E00002C91020F111DF4E0EE0CFF1CFA95E1F766
:103E1000EE24FFE0FF2286569E4BFC012081E20E3D
:103E2000F11C861608F04BC00F5F1F4FA016B1069D
:103E300008F450C07B871C862B853C854D855E85AC
:103E40004217530708F049C05FEFE51AF50AAE14B0
:103E5000BF0408F453C00C93FC01E082812F807FE3
:103E6000970194E0369527959A95E1F78223E989A1
:103E7000FA89808330E020E0A6014E5F5F4FB601F3
:103E80006F5F7F4FC6010E94F207870130E020E09C
:103E9000A6014B5F5F4FB6016C5F7F4FC601039673
:103EA0000E94F207F2E06F0E711C26E0C20ED11CD8
:103EB00034EF631631E0730609F080CFBECA69158E
:103EC00008F0B8CF01501109A016B10608F0B2CF22
:103ED0008501B0CF10E000E0ADCFEB85FC852F85EC
:103EE0003889E217F30708F0B6CF31E0E31AF1089A
:103EF000AE14BF0408F0AFCF7501ADCFF12CE12CAB
:103F0000AACF80E00E94BF1298CA0E940107C09009
:103F10008A47D0908B47E0908C47F0908D47AB015B
:103F2000BC014C195D096E097F0980E5023070F013
:103F3000033009F08FC0ECE6F7E08491909181475F
:103F4000891B9AE0899F802D1124825E90E0B0E069
:103F5000A0E084179507A607B70708F0BBC80E9422
:103F6000010760938A4770938B4780938C479093A7
:103F70008D47A89A10928E478091084E9091094ED5
:103F8000892B09F465C08091064E89320CF060C01F
:103F90000E948C0600910E4E10910F4E2091104EF3
:103FA0003091114E601B710B820B930B62337105C4
:103FB0008105910568F3F8948091044E9091054E27
:103FC00089839A83A091084EB091094EFD013196E4
:103FD0008C918F83A091124EB091134E9C91809141
:103FE000144E982B9E839C91809589238D838D817F
:103FF0008C8388E08B835E816D814F813B812C8136
:1040000089819A8100C05C9347FD252F441F3A9512
:1040100000C02C9300C0262F05D06C9321F001D056
:10402000F1CF00C0089538E0419100C0019751F7E9
:104030004F833B832C8389839A8378940E948C06D8
:1040400060930E4E70930F4E8093104E9093114ECE
:10405000A89840C828E0029FF0011124EC5AF84FBC
:10406000849190918147E82FE91B84E1E89F802D9E
:1040700011246BCF0E940107681979098A099B09ED
:10408000693B7B408105910508F44AC960918947E5
:104090008FE08887CE0108960E94F90830E1E32E70
:1040A000D12CC12CF601E758F84B6081E886CE018F
:1040B00008960E94F908F601EF57F84B608188E0F6
:1040C0008E0D8887CE0108960E94F9084FEFC41A1A
:1040D000D40AE39458E1E512E5CF0E94440740E09A
:1040E00063E085E19EE40E94480764EC74E00CC93B
:1040F0008F929F92AF92BF92CF92DF92EF92FF92F8
:10410000CF93DF93EC01688179818A819B8161156E
:1041100071058105910521F464E279ED8BE597E065
:104120002DE133EF41E050E081D049015A019B017C
:10413000AC01A7EAB1E496D06B017C01ACEEB4EF20
:10414000A50194019BD0C60ED71EE81EF91EF7FEEE
:1041500006C081E0C81AD108E10880E8F80AC882E0
:10416000D982EA82FB82C701B6019F77DF91CF91A6
:10417000FF90EF90DF90CF90BF90AF909F908F9087
:1041800008958F929F92AF92BF92CF92DF92EF925B
:10419000FF92609107407091084080910940909192
:1041A0000A40611571058105910521F464E279EDFC
:1041B0008BE597E02DE133EF41E050E037D0490146
:1041C0005A019B01AC01A7EAB1E44CD06B017C0120
:1041D000ACEEB4EFA501940151D0C60ED71EE81E77
:1041E000F91EF7FE06C081E0C81AD108E10880E890
:1041F000F80AC0920740D0920840E0920940F0923D
:104200000A40C701B6019F77FF90EF90DF90CF90F3
:10421000BF90AF909F908F900895609307407093E8
:1042200008408093094090930A400895052E97FB1B
:1042300016F400940FD057FD05D024D007FC02D00F
:1042400046F408C050954095309521953F4F4F4F0B
:104250005F4F089590958095709561957F4F8F4F32
:104260009F4F089531D0A59F900DB49F900DA49FAE
:10427000800D911D11240895B7FFF4CFF3DF821B49
:10428000930B0895A1E21A2EAA1BBB1BFD010DC0C2
:10429000AA1FBB1FEE1FFF1FA217B307E407F507F6
:1042A00020F0A21BB30BE40BF50B661F771F881FD2
:1042B000991F1A9469F760957095809590959B0168
:1042C000AC01BD01CF010895A29FB001B39FC00111
:1042D000A39F700D811D1124911DB29F700D811D32
:1042E0001124911D08955058BB27AA270ED070C1E4
:1042F00061D130F066D120F031F49F3F11F41EF40B
:1043000056C10EF4E095E7FB4CC1E92F72D180F362
:10431000BA17620773078407950718F071F49EF5C2
:104320008AC10EF4E0950B2EBA2FA02D0B01B90116
:1043300090010C01CA01A0011124FF27591B99F01B
:10434000593F50F4503E68F11A16F040A22F232F27
:10435000342F4427585FF3CF469537952795A79577
:10436000F0405395C9F77EF41F16BA0B620B730B1E
:10437000840BBAF09150A1F0FF0FBB1F661F771F8F
:10438000881FC2F70EC0BA0F621F731F841F48F444
:10439000879577956795B795F7959E3F08F0B3CFCA
:1043A0009395880F08F09927EE0F979587950895B4
:1043B000D4D008F481E008950CD00AC102D140F0B5
:1043C000F9D030F021F45F3F19F0EBC0511134C146
:1043D000EEC00FD198F39923C9F35523B1F3951B80
:1043E000550BBB27AA2762177307840738F09F5F16
:1043F0005F4F220F331F441FAA1FA9F333D00E2E85
:104400003AF0E0E830D091505040E695001CCAF7F1
:1044100029D0FE2F27D0660F771F881FBB1F2617B6
:1044200037074807AB07B0E809F0BB0B802DBF0189
:10443000FF2793585F4F2AF09E3F510568F0B1C0A7
:10444000FBC05F3FECF3983EDCF38695779567956C
:10445000B795F7959F5FC9F7880F911D969587953A
:1044600097F90895E1E0660F771F881FBB1F621759
:1044700073078407BA0720F0621B730B840BBA0B17
:10448000EE1F88F7E0950895BCD088F09F5790F014
:10449000B92F9927B751A0F0D1F0660F771F881F69
:1044A000991F1AF0BA95C9F712C0B13081F0C3D084
:1044B000B1E00895C0C0672F782F8827B85F39F022
:1044C000B93FCCF3869577956795B395D9F73EF4C8
:1044D00090958095709561957F4F8F4F9F4F089570
:1044E000E89409C097FB3EF490958095709561958E
:1044F0007F4F8F4F9F4F9923A9F0F92F96E9BB2744
:104500009395F695879577956795B795F111F8CFBF
:10451000FAF4BB0F11F460FF1BC06F5F7F4F8F4F2A
:104520009F4F16C0882311F096E911C0772321F020
:104530009EE8872F762F05C0662371F096E8862FB8
:1045400070E060E02AF09A95660F771F881FDAF70F
:10455000880F9695879597F90895990F0008550F3C
:10456000AA0BE0E8FEEF16161706E807F907C0F0F9
:1045700012161306E407F50798F0621B730B840B01
:10458000950B39F40A2661F0232B242B252B21F4DB
:1045900008950A2609F4A140A6958FEF811D811D7B
:1045A000089597F99F6780E870E060E008959FEFB5
:1045B00080EC089500240A941616170618060906BA
:1045C000089500240A941216130614060506089589
:1045D000092E0394000C11F4882352F0BB0F40F411
:1045E000BF2B11F460FF04C06F5F7F4F8F4F9F4F51
:1045F000089557FD9058440F551F59F05F3F71F0D3
:104600004795880F97FB991F61F09F3F79F0879539
:104610000895121613061406551FF2CF4695F1DFC2
:1046200008C0161617061806991FF1CF8695710552
:10463000610508940895E894BB2766277727CB0186
:1046400097F908958ADF08F48FEF08950BD0C0CF53
:10465000B1DF28F0B6DF18F0952309F0A2CFA7CF7D
:104660001124EACFC6DFA0F3959FD1F3950F50E058
:10467000551F629FF001729FBB27F00DB11D639F14
:10468000AA27F00DB11DAA1F649F6627B00DA11DBA
:10469000661F829F2227B00DA11D621F739FB00D60
:1046A000A11D621F839FA00D611D221F749F3327D0
:1046B000A00D611D231F849F600D211D822F762F69
:1046C0006A2F11249F5750408AF0E1F088234AF066
:1046D000EE0FFF1FBB1F661F771F881F91505040B2
:1046E000A9F79E3F510570F05CCFA6CF5F3FECF37A
:1046F000983EDCF3869577956795B795F795E7959E
:104700009F5FC1F7FE2B880F911D9695879597F9AE
:10471000089523DF880B990B0895DB018F939F93F6
:10472000A1DDBF91AF91A29F800D911DA39F900D20
:10473000B29F900D11240895AA1BBB1B51E107C025
:10474000AA1FBB1FA617B70710F0A61BB70B881F21
:10475000991F5A95A9F780959095BC01CD010895B0
:10476000EE0FFF1F0024001C0BBE0790F691E02DFA
:0E477000099481E090E0F89400C0F894FFCF27
:10477E0003031F0707FF07010000000000000040B1
:10478E004040400000000000002223000000000016
:10479E00000000000000008000000000000000008B
:1047AE000020210000010203040506070001020398
:1047BE0004050001020304050607000102030405B7
:1047CE0006070001020300010203040506000000B3
:1047DE00002A063B0468047606990477048B0410BD
:1047EE0009C204A5048A06010204081020408001B3
:1047FE000204081020010204081020408001020467
:10480E000810204080010204080102040810204014
:10481E000000000000000000010101010101020280
:10482E00020202020202030303030303030304044E
:10483E00040405050505050505000000006E073B8F
:10484E0004BD071909BD07BA07BD12B707B70700A0
:10485E000000006E073B04BD071909190CA60A21BA
:10486E000A6F0EB7070D0A006E616E00696E660064
:10487E006F7666002E004D56494F206661696C6555
:10488E006420746F20696E697469616C697A653F22
:10489E00204E6F20564444494F323F0048692C2029
:1048AE0049207374617274656421004C6F61644DAC
:0C48BE006F64652043616C6C6564000051
:00000001FF
